{"abi":[{"type":"constructor","inputs":[{"name":"_bgtToken","type":"address","internalType":"address"}],"stateMutability":"nonpayable"},{"type":"function","name":"addExchanger","inputs":[{"name":"caller","type":"address","internalType":"address"}],"outputs":[],"stateMutability":"nonpayable"},{"type":"function","name":"backupEx","inputs":[],"outputs":[{"name":"","type":"address","internalType":"contract IBGTExchanger"}],"stateMutability":"view"},{"type":"function","name":"bgtBalance","inputs":[],"outputs":[{"name":"","type":"uint256","internalType":"uint256"}],"stateMutability":"view"},{"type":"function","name":"bgtToken","inputs":[],"outputs":[{"name":"","type":"address","internalType":"address"}],"stateMutability":"view"},{"type":"function","name":"exchange","inputs":[{"name":"inToken","type":"address","internalType":"address"},{"name":"amount","type":"uint128","internalType":"uint128"}],"outputs":[{"name":"bgtAmount","type":"uint256","internalType":"uint256"},{"name":"spendAmount","type":"uint256","internalType":"uint256"}],"stateMutability":"nonpayable"},{"type":"function","name":"fund","inputs":[{"name":"amount","type":"uint256","internalType":"uint256"}],"outputs":[],"stateMutability":"nonpayable"},{"type":"function","name":"getOwed","inputs":[{"name":"caller","type":"address","internalType":"address"}],"outputs":[{"name":"_owed","type":"uint256","internalType":"uint256"}],"stateMutability":"view"},{"type":"function","name":"isExchanger","inputs":[{"name":"caller","type":"address","internalType":"address"}],"outputs":[{"name":"","type":"bool","internalType":"bool"}],"stateMutability":"view"},{"type":"function","name":"owed","inputs":[{"name":"caller","type":"address","internalType":"address"}],"outputs":[{"name":"","type":"uint256","internalType":"uint256"}],"stateMutability":"view"},{"type":"function","name":"rate","inputs":[{"name":"token","type":"address","internalType":"address"}],"outputs":[{"name":"rateX128","type":"uint256","internalType":"uint256"}],"stateMutability":"view"},{"type":"function","name":"removeExchanger","inputs":[{"name":"caller","type":"address","internalType":"address"}],"outputs":[],"stateMutability":"nonpayable"},{"type":"function","name":"sendBalance","inputs":[{"name":"token","type":"address","internalType":"address"},{"name":"to","type":"address","internalType":"address"},{"name":"amount","type":"uint256","internalType":"uint256"}],"outputs":[],"stateMutability":"nonpayable"},{"type":"function","name":"setBackup","inputs":[{"name":"backup","type":"address","internalType":"address"}],"outputs":[],"stateMutability":"nonpayable"},{"type":"function","name":"setRate","inputs":[{"name":"inToken","type":"address","internalType":"address"},{"name":"rateX128","type":"uint256","internalType":"uint256"}],"outputs":[],"stateMutability":"nonpayable"},{"type":"function","name":"viewExchange","inputs":[{"name":"inToken","type":"address","internalType":"address"},{"name":"amount","type":"uint128","internalType":"uint128"}],"outputs":[{"name":"bgtAmount","type":"uint256","internalType":"uint256"},{"name":"spendAmount","type":"uint256","internalType":"uint256"}],"stateMutability":"view"},{"type":"function","name":"withdraw","inputs":[{"name":"recipient","type":"address","internalType":"address"},{"name":"bgtAmount","type":"uint256","internalType":"uint256"}],"outputs":[],"stateMutability":"nonpayable"},{"type":"function","name":"withdrawn","inputs":[{"name":"caller","type":"address","internalType":"address"}],"outputs":[{"name":"","type":"uint256","internalType":"uint256"}],"stateMutability":"view"},{"type":"error","name":"CannotReinitializeOwner","inputs":[{"name":"existingOwner","type":"address","internalType":"address"}]},{"type":"error","name":"InsufficientOwed","inputs":[]},{"type":"error","name":"NoExchangePermissions","inputs":[]},{"type":"error","name":"NotOwner","inputs":[]}],"bytecode":{"object":"0x60803460b957601f610b0d38819003918201601f19168301916001600160401b0383118484101760bd5780849260209460405283398101031260b957516001600160a01b0381169081900360b9575f516020610aed5f395f51905f52546001600160a01b03168060a757505f516020610aed5f395f51905f5280546001600160a01b0319908116331790915560048054909116919091179055604051610a1b90816100d28239f35b631652a8fb60e01b5f5260045260245ffd5b5f80fd5b634e487b7160e01b5f52604160045260245ffdfe6080806040526004361015610012575f80fd5b5f3560e01c9081630ba9d8ca14610480575080632544e379146104585780632912c9ed146104165780632bdb7097146103d8578063506bd3a6146103975780636ef610921461035f57806370c0b64714610334578063a88c2dd71461030c578063b7030985146102e7578063b7dacbf1146102a4578063ca1d209d14610269578063cb4beb2c1461022c578063df18e047146101f4578063e864f2b614610163578063f3fef3a31461013c578063f7b160671461011f5763f89f2a65146100d7575f80fd5b3461011b57602036600319011261011b576100f06104b3565b6100f8610748565b6001600160a01b03165f908152600360205260409020805460ff19166001179055005b5f80fd5b3461011b575f36600319011261011b576020600554604051908152f35b3461011b57604036600319011261011b576101616101586104b3565b602435906106ee565b005b3461011b57610171366104c9565b90335f52600360205260ff60405f205416156101e55761019360409282610622565b909181836101aa575b505082519182526020820152f35b6101c6916101ba85600554610556565b6005553090339061088e565b335f526001602052825f206101dc838254610535565b9055838161019c565b63c35fc6d360e01b5f5260045ffd5b3461011b57602036600319011261011b576001600160a01b036102156104b3565b165f526001602052602060405f2054604051908152f35b3461011b57602036600319011261011b576001600160a01b0361024d6104b3565b165f526003602052602060ff60405f2054166040519015158152f35b3461011b57602036600319011261011b5761016160043561028c81600554610535565b600555600454309033906001600160a01b031661088e565b3461011b57602036600319011261011b576102bd6104b3565b6102c5610748565b600680546001600160a01b0319166001600160a01b0392909216919091179055005b3461011b5760406103006102fa366104c9565b90610622565b82519182526020820152f35b3461011b575f36600319011261011b576004546040516001600160a01b039091168152602090f35b3461011b57602036600319011261011b5760206103576103526104b3565b610563565b604051908152f35b3461011b57602036600319011261011b576001600160a01b036103806104b3565b165f526002602052602060405f2054604051908152f35b3461011b57602036600319011261011b576103b06104b3565b6103b8610748565b6001600160a01b03165f908152600360205260409020805460ff19169055005b3461011b57604036600319011261011b576103f16104b3565b6103f9610748565b6001600160a01b03165f9081526020819052604090206024359055005b3461011b57606036600319011261011b5761042f6104b3565b602435906001600160a01b038216820361011b576101619161044f610748565b604435916107e1565b3461011b575f36600319011261011b576006546040516001600160a01b039091168152602090f35b3461011b57602036600319011261011b576020906001600160a01b036104a46104b3565b165f525f825260405f20548152f35b600435906001600160a01b038216820361011b57565b604090600319011261011b576004356001600160a01b038116810361011b57906024356001600160801b038116810361011b5790565b90601f8019910116810190811067ffffffffffffffff82111761052157604052565b634e487b7160e01b5f52604160045260245ffd5b9190820180921161054257565b634e487b7160e01b5f52601160045260245ffd5b9190820391821161054257565b6001600160a01b039081165f81815260016020526040902054600654909216806105a3575b50906105a0915f52600260205260405f205490610556565b90565b6020602491604051928380926370c0b64760e01b82528660048301525afa908115610617575f916105e3575b506105dd906105a093610535565b91610588565b90506020813d60201161060f575b816105fe602093836104ff565b8101031261011b57516105a06105cf565b3d91506105f1565b6040513d5f823e3d90fd5b6001600160a01b03165f818152602081905260408120549193909290916001600160801b0382165f198183099102908180821091030360801b9060801c0193600554858110610683575b5050836106765750565b6001600160801b03169150565b9150935080935f525f60205260405f205461069e818361094c565b9181156106da57600160801b90096106c1575b6001600160801b03165f8061066c565b5f1981101561011b575f198114610542576001016106b1565b634e487b7160e01b5f52601260045260245ffd5b906106f833610563565b81156107435781116107345761073291335f52600260205260405f2061071f838254610535565b90556004546001600160a01b03166107e1565b565b63fafa828360e01b5f5260045ffd5b505050565b7ffe60050de8c303e9e73c33538bcf1b0b6509d1437c01221e10b4d2281a279267546001600160a01b0316330361077b57565b6330cd747160e01b5f5260045ffd5b3d156107c4573d9067ffffffffffffffff821161052157604051916107b9601f8201601f1916602001846104ff565b82523d5f602084013e565b606090565b9081602091031261011b5751801515810361011b5790565b5f929183809360405190602082019363a9059cbb60e01b855260018060a01b0316602483015260448201526044815261081b6064826104ff565b51925af161082761078a565b8161085f575b501561083557565b60405162461bcd60e51b815260206004820152600260248201526114d560f21b6044820152606490fd5b8051801592508215610874575b50505f61082d565b61088792506020809183010191016107c9565b5f8061086c565b6040516323b872dd60e01b602082019081526001600160a01b0393841660248301529390921660448301526064808301949094529281525f928392909183906108d86084826104ff565b51925af16108e461078a565b8161091d575b50156108f257565b60405162461bcd60e51b815260206004820152600360248201526229aa2360e91b6044820152606490fd5b8051801592508215610932575b50505f6108ea565b61094592506020809183010191016107c9565b5f8061092a565b5f19600160801b8209918160801b918280851094039380850394146109d8578382111561011b578190600160801b9009600160ff1b82146105425781805f03168092046002816003021880820260020302808202600203028082026002030280820260020302808202600203028091026002030293600183805f03040190848311900302920304170290565b508092501561011b57049056fea2646970667358221220f24b9a98dbf764d767fcb528af756d4d49d38b60609b1ba9c662356ff5b1437b64736f6c634300081c0033fe60050de8c303e9e73c33538bcf1b0b6509d1437c01221e10b4d2281a279267","linkReferences":{}},"methodIdentifiers":{"addExchanger(address)":"f89f2a65","backupEx()":"2544e379","bgtBalance()":"f7b16067","bgtToken()":"a88c2dd7","exchange(address,uint128)":"e864f2b6","fund(uint256)":"ca1d209d","getOwed(address)":"70c0b647","isExchanger(address)":"cb4beb2c","owed(address)":"df18e047","rate(address)":"0ba9d8ca","removeExchanger(address)":"506bd3a6","sendBalance(address,address,uint256)":"2912c9ed","setBackup(address)":"b7dacbf1","setRate(address,uint256)":"2bdb7097","viewExchange(address,uint128)":"b7030985","withdraw(address,uint256)":"f3fef3a3","withdrawn(address)":"6ef61092"},"id":62}