{"abi":[{"type":"constructor","inputs":[{"name":"_pool","type":"address","internalType":"address"},{"name":"_island","type":"address","internalType":"address"},{"name":"_stationProxy","type":"address","internalType":"address"},{"name":"_ranges","type":"tuple[]","internalType":"struct TickRange[]","components":[{"name":"lower","type":"int24","internalType":"int24"},{"name":"upper","type":"int24","internalType":"int24"}]},{"name":"_weights","type":"uint128[]","internalType":"uint128[]"}],"stateMutability":"nonpayable"},{"type":"function","name":"allowance","inputs":[{"name":"owner","type":"address","internalType":"address"},{"name":"spender","type":"address","internalType":"address"}],"outputs":[{"name":"","type":"uint256","internalType":"uint256"}],"stateMutability":"view"},{"type":"function","name":"approve","inputs":[{"name":"spender","type":"address","internalType":"address"},{"name":"value","type":"uint256","internalType":"uint256"}],"outputs":[{"name":"","type":"bool","internalType":"bool"}],"stateMutability":"nonpayable"},{"type":"function","name":"balanceOf","inputs":[{"name":"account","type":"address","internalType":"address"}],"outputs":[{"name":"","type":"uint256","internalType":"uint256"}],"stateMutability":"view"},{"type":"function","name":"burn","inputs":[{"name":"shares","type":"uint256","internalType":"uint256"},{"name":"lowerSqrtPriceLimitX96","type":"uint160","internalType":"uint160"},{"name":"upperSqrtPriceLimitX96","type":"uint160","internalType":"uint160"}],"outputs":[],"stateMutability":"nonpayable"},{"type":"function","name":"decimals","inputs":[],"outputs":[{"name":"","type":"uint8","internalType":"uint8"}],"stateMutability":"view"},{"type":"function","name":"distX96","inputs":[{"name":"","type":"uint256","internalType":"uint256"}],"outputs":[{"name":"","type":"uint256","internalType":"uint256"}],"stateMutability":"view"},{"type":"function","name":"getInfo","inputs":[],"outputs":[{"name":"info","type":"tuple","internalType":"struct Info","components":[{"name":"pool","type":"address","internalType":"contract IUniswapV3Pool"},{"name":"token0","type":"address","internalType":"contract IERC20"},{"name":"token1","type":"address","internalType":"contract IERC20"},{"name":"island","type":"address","internalType":"contract IKodiakIsland"},{"name":"stationProxy","type":"address","internalType":"contract IStationProxy"},{"name":"totalNominalLiq","type":"uint128","internalType":"uint128"},{"name":"totalShares","type":"uint256","internalType":"uint256"},{"name":"ranges","type":"tuple[]","internalType":"struct TickRange[]","components":[{"name":"lower","type":"int24","internalType":"int24"},{"name":"upper","type":"int24","internalType":"int24"}]},{"name":"distX96","type":"uint256[]","internalType":"uint256[]"}]}],"stateMutability":"view"},{"type":"function","name":"island","inputs":[],"outputs":[{"name":"","type":"address","internalType":"contract IKodiakIsland"}],"stateMutability":"view"},{"type":"function","name":"islandSharesPerOwner","inputs":[{"name":"owner","type":"address","internalType":"address"}],"outputs":[{"name":"islandShares","type":"uint256","internalType":"uint256"}],"stateMutability":"view"},{"type":"function","name":"migrateStationProxy","inputs":[{"name":"newStationProxy","type":"address","internalType":"contract IStationProxy"}],"outputs":[],"stateMutability":"nonpayable"},{"type":"function","name":"mint","inputs":[{"name":"recipient","type":"address","internalType":"address"},{"name":"mintNominalLiq","type":"uint128","internalType":"uint128"},{"name":"lowerSqrtPriceLimitX96","type":"uint160","internalType":"uint160"},{"name":"upperSqrtPriceLimitX96","type":"uint160","internalType":"uint160"}],"outputs":[{"name":"shares","type":"uint256","internalType":"uint256"}],"stateMutability":"nonpayable"},{"type":"function","name":"name","inputs":[],"outputs":[{"name":"","type":"string","internalType":"string"}],"stateMutability":"view"},{"type":"function","name":"pool","inputs":[],"outputs":[{"name":"","type":"address","internalType":"contract IUniswapV3Pool"}],"stateMutability":"view"},{"type":"function","name":"queryTVL","inputs":[],"outputs":[{"name":"query0","type":"uint256","internalType":"uint256"},{"name":"query1","type":"uint256","internalType":"uint256"}],"stateMutability":"view"},{"type":"function","name":"queryValue","inputs":[{"name":"owner","type":"address","internalType":"address"}],"outputs":[{"name":"query0","type":"uint256","internalType":"uint256"},{"name":"query1","type":"uint256","internalType":"uint256"}],"stateMutability":"view"},{"type":"function","name":"queryValueIsland","inputs":[{"name":"islandShares","type":"uint256","internalType":"uint256"}],"outputs":[{"name":"query0","type":"uint256","internalType":"uint256"},{"name":"query1","type":"uint256","internalType":"uint256"}],"stateMutability":"view"},{"type":"function","name":"queryValueV3Ranges","inputs":[{"name":"shares","type":"uint256","internalType":"uint256"}],"outputs":[{"name":"query0","type":"uint256","internalType":"uint256"},{"name":"query1","type":"uint256","internalType":"uint256"}],"stateMutability":"view"},{"type":"function","name":"ranges","inputs":[{"name":"","type":"uint256","internalType":"uint256"}],"outputs":[{"name":"lower","type":"int24","internalType":"int24"},{"name":"upper","type":"int24","internalType":"int24"}],"stateMutability":"view"},{"type":"function","name":"stationProxy","inputs":[],"outputs":[{"name":"","type":"address","internalType":"contract IStationProxy"}],"stateMutability":"view"},{"type":"function","name":"symbol","inputs":[],"outputs":[{"name":"","type":"string","internalType":"string"}],"stateMutability":"view"},{"type":"function","name":"token0","inputs":[],"outputs":[{"name":"","type":"address","internalType":"contract IERC20"}],"stateMutability":"view"},{"type":"function","name":"token1","inputs":[],"outputs":[{"name":"","type":"address","internalType":"contract IERC20"}],"stateMutability":"view"},{"type":"function","name":"totalIslandShares","inputs":[],"outputs":[{"name":"","type":"uint256","internalType":"uint256"}],"stateMutability":"view"},{"type":"function","name":"totalNominalLiq","inputs":[],"outputs":[{"name":"","type":"uint128","internalType":"uint128"}],"stateMutability":"view"},{"type":"function","name":"totalShares","inputs":[],"outputs":[{"name":"","type":"uint256","internalType":"uint256"}],"stateMutability":"view"},{"type":"function","name":"totalSupply","inputs":[],"outputs":[{"name":"","type":"uint256","internalType":"uint256"}],"stateMutability":"view"},{"type":"function","name":"transfer","inputs":[{"name":"to","type":"address","internalType":"address"},{"name":"value","type":"uint256","internalType":"uint256"}],"outputs":[{"name":"","type":"bool","internalType":"bool"}],"stateMutability":"nonpayable"},{"type":"function","name":"transferFrom","inputs":[{"name":"from","type":"address","internalType":"address"},{"name":"to","type":"address","internalType":"address"},{"name":"value","type":"uint256","internalType":"uint256"}],"outputs":[{"name":"","type":"bool","internalType":"bool"}],"stateMutability":"nonpayable"},{"type":"function","name":"uniswapV3MintCallback","inputs":[{"name":"amount0Owed","type":"uint256","internalType":"uint256"},{"name":"amount1Owed","type":"uint256","internalType":"uint256"},{"name":"data","type":"bytes","internalType":"bytes"}],"outputs":[],"stateMutability":"nonpayable"},{"type":"event","name":"Approval","inputs":[{"name":"owner","type":"address","indexed":true,"internalType":"address"},{"name":"spender","type":"address","indexed":true,"internalType":"address"},{"name":"value","type":"uint256","indexed":false,"internalType":"uint256"}],"anonymous":false},{"type":"event","name":"Burn","inputs":[{"name":"owner","type":"address","indexed":true,"internalType":"address"},{"name":"shares","type":"uint256","indexed":false,"internalType":"uint256"},{"name":"islandShares","type":"uint256","indexed":false,"internalType":"uint256"}],"anonymous":false},{"type":"event","name":"MalformedPool","inputs":[],"anonymous":false},{"type":"event","name":"MigrateStationProxy","inputs":[{"name":"from","type":"address","indexed":true,"internalType":"contract IStationProxy"},{"name":"to","type":"address","indexed":true,"internalType":"contract IStationProxy"}],"anonymous":false},{"type":"event","name":"Mint","inputs":[{"name":"sender","type":"address","indexed":true,"internalType":"address"},{"name":"recipient","type":"address","indexed":true,"internalType":"address"},{"name":"shares","type":"uint256","indexed":false,"internalType":"uint256"},{"name":"islandShares","type":"uint256","indexed":false,"internalType":"uint256"}],"anonymous":false},{"type":"event","name":"Transfer","inputs":[{"name":"from","type":"address","indexed":true,"internalType":"address"},{"name":"to","type":"address","indexed":true,"internalType":"address"},{"name":"value","type":"uint256","indexed":false,"internalType":"uint256"}],"anonymous":false},{"type":"error","name":"CannotReinitializeOwner","inputs":[{"name":"existingOwner","type":"address","internalType":"address"}]},{"type":"error","name":"ERC20InsufficientAllowance","inputs":[{"name":"spender","type":"address","internalType":"address"},{"name":"allowance","type":"uint256","internalType":"uint256"},{"name":"needed","type":"uint256","internalType":"uint256"}]},{"type":"error","name":"ERC20InsufficientBalance","inputs":[{"name":"sender","type":"address","internalType":"address"},{"name":"balance","type":"uint256","internalType":"uint256"},{"name":"needed","type":"uint256","internalType":"uint256"}]},{"type":"error","name":"ERC20InvalidApprover","inputs":[{"name":"approver","type":"address","internalType":"address"}]},{"type":"error","name":"ERC20InvalidReceiver","inputs":[{"name":"receiver","type":"address","internalType":"address"}]},{"type":"error","name":"ERC20InvalidSender","inputs":[{"name":"sender","type":"address","internalType":"address"}]},{"type":"error","name":"ERC20InvalidSpender","inputs":[{"name":"spender","type":"address","internalType":"address"}]},{"type":"error","name":"InsecureFirstMintAmount","inputs":[{"name":"shares","type":"uint256","internalType":"uint256"}]},{"type":"error","name":"InsecureFirstMintRecipient","inputs":[{"name":"recipient","type":"address","internalType":"address"}]},{"type":"error","name":"InvalidIslandRange","inputs":[]},{"type":"error","name":"InvalidRange","inputs":[{"name":"lower","type":"int24","internalType":"int24"},{"name":"upper","type":"int24","internalType":"int24"}]},{"type":"error","name":"MigrateToSameStationProxy","inputs":[]},{"type":"error","name":"MismatchedIslandPool","inputs":[{"name":"island","type":"address","internalType":"address"},{"name":"pool","type":"address","internalType":"address"}]},{"type":"error","name":"MismatchedRangeWeightLengths","inputs":[{"name":"rangeLength","type":"uint256","internalType":"uint256"},{"name":"weightLength","type":"uint256","internalType":"uint256"}]},{"type":"error","name":"NoRanges","inputs":[]},{"type":"error","name":"NotOwner","inputs":[]},{"type":"error","name":"SafeERC20FailedOperation","inputs":[{"name":"token","type":"address","internalType":"address"}]},{"type":"error","name":"SqrtPriceX96OverLimit","inputs":[{"name":"sqrtPriceX96","type":"uint160","internalType":"uint160"},{"name":"lowerSqrtPriceLimitX96","type":"uint160","internalType":"uint160"},{"name":"upperSqrtPriceLimitX96","type":"uint160","internalType":"uint160"}]},{"type":"error","name":"TooMuchBurnedAtOnce","inputs":[{"name":"liq","type":"uint128","internalType":"uint128"},{"name":"tokens","type":"uint256","internalType":"uint256"},{"name":"isX","type":"bool","internalType":"bool"}]},{"type":"error","name":"UniswapV3MintCallbackSenderNotPool","inputs":[{"name":"sender","type":"address","internalType":"address"}]}],"bytecode":{"object":"0x6080806040523461073157615044803803809161001c8285610c74565b8339810160a0828203126107315761003382610c97565b9061004060208401610c97565b9261004d60408201610c97565b60608201519094906001600160401b0381116107315782019383601f860112156107315784519261007d84610cab565b9561008b6040519788610c74565b84875260208701906020829660061b8201019087821161073157602001915b818310610c22575050506080810151906001600160401b03821161073157019380601f86011215610731578451906100e182610cab565b956100ef6040519788610c74565b82875260208088019360051b82010191821161073157602001915b818310610c02575050604051630dfe168160e01b81526001600160a01b039290921692919050602081600481865afa90811561073d575f91610bc8575b5060405163d21220a760e01b815290602082600481875afa91821561073d575f92610b8a575b506040516306fdde0360e01b815291905f90839060049082906001600160a01b03165afa90811561073d576004925f92610b6c575b506040516306fdde0360e01b8152925f9184919082906001600160a01b03165afa801561073d5760016102309260208060109481975f91610b52575b506040519784899551918291018487015e840190602d60f81b83830152805192839101602183015e01016f02d537461626c652d4b6f6469616b4c560841b838201520301600f19810184520182610c74565b604051630dfe168160e01b815290602082600481875afa91821561073d575f92610b16575b5060405163d21220a760e01b815291602083600481885afa92831561073d575f93610ad8575b506040516395d89b4160e01b815292905f90849060049082906001600160a01b03165afa90811561073d576004935f92610aba575b506040516395d89b4160e01b8152935f9185919082906001600160a01b03165afa801561073d5760016103369260208060089481985f91610a98575b5060405198848a9551918291018487015e840190602d60f81b83830152805192839101602183015e0101672d534c502d4b444b60c01b838201520301601719810185520183610c74565b8051906001600160401b0382116106c65760035490600182811c92168015610a8e575b60208310146109915781601f849311610a20575b50602090601f83116001146109ba575f926109af575b50508160011b915f199060031b1c1916176003555b8051906001600160401b0382116106c65760045490600182811c921680156109a5575b60208310146109915781601f849311610923575b50602090601f83116001146108bd575f926108b2575b50508160011b915f199060031b1c1916176004555b5f5160206150245f395f51905f52546001600160a01b0316806108a057505f5160206150245f395f51905f5280546001600160a01b031990811633179091556005805490911683179055604051630dfe168160e01b8152602081600481865afa90811561073d575f91610866575b50600680546001600160a01b0319166001600160a01b039290921691909117905560405163d21220a760e01b8152602081600481865afa90811561073d575f9161082c575b50600780546001600160a01b039283166001600160a01b031991821617909155600880549383169382168417905560098054989092169716969096179095558415159485806107b0575b61079b5750508251825190818103610786575050825115610777575f93610748575b506005546040516334324e9f60e21b8152929190602090849060049082906001600160a01b03165afa92831561073d575f936106fd575b50925b815181101561060d576105668183610cd0565b5161057081610de5565b6105fe5761058284825160020b610d62565b60020b158015906105e2575b6105bf5761059b90610ce4565b5f1981146105ab57600101610553565b634e487b7160e01b5f52601160045260245ffd5b6020815160020b91015160020b9063452d886760e11b5f5260045260245260445ffd5b506105f484602083015160020b610d62565b60020b151561058e565b63cac3114360e01b5f5260045ffd5b5f84815b8151831015610642576001600160801b0361062c8484610cd0565b511681018091116105ab57600190920191610611565b905f5b81518110156106ee576fffffffff0000000000000000000000006106698284610cd0565b5160601b169083156106da57600b5491680100000000000000008310156106c65760018301600b55600b548310156106b25784600193600b5f5260205f20019104905501610645565b634e487b7160e01b5f52603260045260245ffd5b634e487b7160e01b5f52604160045260245ffd5b634e487b7160e01b5f52601260045260245ffd5b6040516142219081610e038239f35b9092506020813d602011610735575b8161071960209383610c74565b810103126107315761072a90610cc2565b915f610550565b5f80fd5b3d915061070c565b6040513d5f823e3d90fd5b9092508151156106b257519061075d82610de5565b156105fe5761076d600492610ce4565b6001929091610519565b636a05e46560e01b5f5260045ffd5b63a71865cb60e01b5f5260045260245260445ffd5b63234a24f960e11b5f5260045260245260445ffd5b506040516316f0115b60e01b8152602081600481855afa801561073d5783915f916107e7575b506001600160a01b031614156104f7565b9150506020813d602011610824575b8161080360209383610c74565b8101031261073157516001600160a01b03811681036107315782905f6107d6565b3d91506107f6565b90506020813d60201161085e575b8161084760209383610c74565b810103126107315761085890610c97565b5f6104ad565b3d915061083a565b90506020813d602011610898575b8161088160209383610c74565b810103126107315761089290610c97565b5f610468565b3d9150610874565b631652a8fb60e01b5f5260045260245ffd5b015190505f806103e5565b60045f9081528281209350601f198516905b81811061090b57509084600195949392106108f3575b505050811b016004556103fa565b01515f1960f88460031b161c191690555f80806108e5565b929360206001819287860151815501950193016108cf565b60045f529091507f8a35acfbc15ff81a39ae7d344fd709f28e8600b4aa8c65c6b64bfe7fe36bd19b601f840160051c81019160208510610987575b90601f859493920160051c01905b81811061097957506103cf565b5f815584935060010161096c565b909150819061095e565b634e487b7160e01b5f52602260045260245ffd5b91607f16916103bb565b015190505f80610383565b60035f9081528281209350601f198516905b818110610a0857509084600195949392106109f0575b505050811b01600355610398565b01515f1960f88460031b161c191690555f80806109e2565b929360206001819287860151815501950193016109cc565b60035f529091507fc2575a0e9e593c00f959f8c92f12db2869c3395a3b0502d05e2516446f71f85b601f840160051c81019160208510610a84575b90601f859493920160051c01905b818110610a76575061036d565b5f8155849350600101610a69565b9091508190610a5b565b91607f1691610359565b610ab491503d805f833e610aac8183610c74565b810190610d74565b5f6102ec565b5f919250610ad1903d8084833e610aac8183610c74565b91906102b0565b92506020833d602011610b0e575b81610af360209383610c74565b81010312610731575f610b07600494610c97565b935061027b565b3d9150610ae6565b9091506020813d602011610b4a575b81610b3260209383610c74565b8101031261073157610b4390610c97565b905f610255565b3d9150610b25565b610b6691503d805f833e610aac8183610c74565b5f6101de565b5f919250610b83903d8084833e610aac8183610c74565b91906101a2565b91506020823d602011610bc0575b81610ba560209383610c74565b81010312610731575f610bb9600493610c97565b925061016d565b3d9150610b98565b90506020813d602011610bfa575b81610be360209383610c74565b8101031261073157610bf490610c97565b5f610147565b3d9150610bd6565b82516001600160801b03811681036107315781526020928301920161010a565b604083890312610731576040805191908201906001600160401b038211838310176106c6576040926020928452610c5886610cc2565b8152610c65838701610cc2565b838201528152019201916100aa565b601f909101601f19168101906001600160401b038211908210176106c657604052565b51906001600160a01b038216820361073157565b6001600160401b0381116106c65760051b60200190565b51908160020b820361073157565b80518210156106b25760209160051b010190565b600a54680100000000000000008110156106c65760018101600a55600a548110156106b257600a5f5281517fc65a7bb8d6351c1cf70c95a316cc6a92839c986682d98bc35f958f4883f9d2a891909101805460209093015160181b65ffffff0000001662ffffff90921665ffffffffffff1990931692909217179055565b9060020b9081156106da5760020b0790565b602081830312610731578051906001600160401b038211610731570181601f82011215610731578051906001600160401b0382116106c65760405192610dc4601f8401601f191660200185610c74565b8284526020838301011161073157815f9260208093018386015e8301015290565b805160020b159081610df5575090565b60209150015160020b159056fe60806040526004361015610011575f80fd5b5f3560e01c806302e3cbfc146118b757806305e024ad1461187f57806306fdde03146117c4578063095ea7b3146117425780630ac44509146117245780630dfe1681146116fc57806316f0115b146116d457806318160ddd146116b757806320cb4dfd14610fbf57806323b872dd14610ee0578063313ce56714610ec55780633a2aabcc14610e8f5780633a98ef3914610e72578063454dc49f14610e4c5780635a9b0b8914610c205780635fdecdfa14610bdf57806370a0823114610ba8578063750690a014610b8b578063805cff2514610b6357806395d89b4114610a57578063a9059cbb14610a26578063b574df5e1461091c578063b9d2251714610334578063c0ef046b146102fc578063d21220a7146102d4578063d3487997146101fe578063db5537e1146101d6578063dd62ed3e146101865763f8f0a4ae14610158575f80fd5b34610182576020366003190112610182576040610176600435611ffb565b82519182526020820152f35b5f80fd5b346101825760403660031901126101825761019f611908565b6101a761191e565b6001600160a01b039182165f908152600160209081526040808320949093168252928352819020549051908152f35b34610182575f366003190112610182576008546040516001600160a01b039091168152602090f35b346101825760603660031901126101825760443567ffffffffffffffff8111610182573660238201121561018257806004013567ffffffffffffffff811161018257810190366024830111610182576005546001600160a01b031691338390036102c15760209082900312610182576024013560018060a01b038116809103610182576006546102bf926102a191600435919084906001600160a01b0316613203565b600754600554602435926001600160a01b0391821692909116613203565b005b63ce35e9eb60e01b5f523360045260245ffd5b34610182575f366003190112610182576007546040516001600160a01b039091168152602090f35b34610182576020366003190112610182576001600160a01b0361031d611908565b165f52600f602052602060405f2054604051908152f35b346101825760603660031901126101825760043561035061191e565b600461035a61199c565b600554604051633850c7bd60e01b81529193919260e09184919082906001600160a01b03165afa9182156105f4575f926108e5575b506001600160a01b03908116911681811080156108d3575b6108b357836103b4612938565b6024600c546001600160801b038116906001600160801b036103e5816103dd600d548689612653565b168094611fdb565b6fffffffffffffffffffffffffffffffff19909216911617600c556006546040516370a0823160e01b81523060048201529260209184919082906001600160a01b03165afa9182156105f4575f9261087f575b506007546040516370a0823160e01b815230600482015290602090829060249082906001600160a01b03165afa9081156105f4575f9161084d575b505f90815b600b5483101561066c5761049461048e84611960565b50611aa8565b61049d81612691565b156104b857505060016104af86612fde565b925b0191610478565b90926001600160801b036104db6104ce83611934565b90549060031b1c87611b29565b60601c16806104ef575b50600191506104b1565b60018060a01b036005541692805160020b90604060208201926064845160020b915f8451998a94859363a34123a760e01b8552600485015260248401528860448401525af19283156105f4575f955f94610636575b506001600160801b03861161061a576001600160801b0384116105ff5750604092915f60a4926001600160801b0360018060a01b0360055416915160020b935160020b958188519a8b9889976309e3d67b60e31b89523060048a0152602489015260448801521660648601521660848401525af19182156105f457600192156104e5576105e79060403d81116105ed575b6105df81836119d3565b810190612fc4565b506104e5565b503d6105d5565b6040513d5f823e3d90fd5b839063553ceae960e01b5f526004526024525f60445260645ffd5b859063553ceae960e01b5f52600452602452600160445260645ffd5b90935061065b91955060403d8111610665575b61065381836119d3565b810190611eda565b949094928b610544565b503d610649565b85918561067b84600d54611b3c565b600d55331561083a57335f525f6020528360405f205481811061082157335f525f6020520360405f205583600254036002555f6040518581527fddf252ad1be2c89b69c2b068fc378daa952ba7f163c4a11628f55a4df523b3ef60203392a36006546040516370a0823160e01b81523060048201526001600160a01b03909116929091602083602481875afa80156105f4575f906107ee575b6007546040516370a0823160e01b81523060048201529450602090859060249082906001600160a01b03165afa9384156105f4575f946107b2575b5061077f94610765610765949361076d93611b3c565b90339061314a565b6007546001600160a01b031692611b3c565b60405191825260208201527f49995e5dd6158cf69ad3e9777c46755a1a826a446c6416992167462dad033b2a60403392a2005b92919093506020833d6020116107e6575b816107d0602093836119d3565b810103126101825791519290919061077f61074f565b3d91506107c3565b506020833d602011610819575b81610808602093836119d3565b810103126101825760249251610714565b3d91506107fb565b63391434e360e21b5f523360045260245260445260645ffd5b634b637e8f60e11b5f525f60045260245ffd5b90506020813d602011610877575b81610868602093836119d3565b81010312610182575184610473565b3d915061085b565b9091506020813d6020116108ab575b8161089b602093836119d3565b8101031261018257519083610438565b3d915061088e565b632aa2f33960e11b5f5260045260245260018060a01b031660445260645ffd5b506001600160a01b03831681116103a7565b61090891925060e03d60e011610915575b61090081836119d3565b810190611a44565b505050505050908461038f565b503d6108f6565b34610182576020366003190112610182576004356001600160a01b03811690819003610182577ffe60050de8c303e9e73c33538bcf1b0b6509d1437c01221e10b4d2281a279267546001600160a01b03163303610a17576009546001600160a01b0316818114610a08576040519082817f6435b1e0186fc9e77331c16a179be1c7438774bbeb82ab0a735cadb512e5d3bf5f80a3803b1561018257816024815f809463ce5494bb60e01b83528760048401525af180156105f4576109f8575b506bffffffffffffffffffffffff60a01b60095416176009555f80f35b5f610a02916119d3565b816109db565b6379efcc4360e01b5f5260045ffd5b6330cd747160e01b5f5260045ffd5b3461018257604036600319011261018257610a4c610a42611908565b6024359033612da0565b602060405160018152f35b34610182575f366003190112610182576040515f6004548060011c90600181168015610b59575b602083108114610b4557828552908115610b215750600114610ac3575b610abf83610aab818503826119d3565b604051918291602083526020830190611978565b0390f35b91905060045f527f8a35acfbc15ff81a39ae7d344fd709f28e8600b4aa8c65c6b64bfe7fe36bd19b915f905b808210610b0757509091508101602001610aab610a9b565b919260018160209254838588010152019101909291610aef565b60ff191660208086019190915291151560051b84019091019150610aab9050610a9b565b634e487b7160e01b5f52602260045260245ffd5b91607f1691610a7e565b34610182575f366003190112610182576009546040516001600160a01b039091168152602090f35b34610182575f366003190112610182576020600e54604051908152f35b34610182576020366003190112610182576001600160a01b03610bc9611908565b165f525f602052602060405f2054604051908152f35b3461018257602036600319011261018257600435600a5481101561018257610c08604091611960565b50548151908060020b825260181c60020b6020820152f35b34610182575f36600319011261018257604051610120810181811067ffffffffffffffff821117610e3857604052602081016040820191606081016080820160a0830160c084019060e0850192606084526101008601946060865260018060a01b0360055416875260018060a01b0360065416885260018060a01b0360075416895260018060a01b0360085416815260018060a01b036009541682526001600160801b03600c54168352600d548452610cd7611f67565b8552604051806020600b54918281520190600b5f527f0175b7a638427703f0dbe7bb9bbf987a2551717b34e79f33b5b1008d1fa01db9905f5b818110610e225750505090610d32816001600160801b039695949303826119d3565b875260408051602080825299516001600160a01b039081168b8301529a518b16918101919091529951891660608b015251881660808a01525190961660a0880152945190941660c0860152925160e08501529151610120610100850152805161014085018190528493610160850193909201905f5b818110610df6575050505190601f1983820301610120840152602080835192838152019201905f5b818110610ddd575050500390f35b8251845285945060209384019390920191600101610dcf565b82518051600290810b8752602091820151900b8187015287965060409095019490920191600101610da7565b8254845260209093019260019283019201610d10565b634e487b7160e01b5f52604160045260245ffd5b34610182575f3660031901126101825760206001600160801b03600c5416604051908152f35b34610182575f366003190112610182576020600d54604051908152f35b34610182575f366003190112610182576040610176610eaf600d54611b49565b9190610ebf610ebf600e54611ffb565b926119b2565b34610182575f36600319011261018257602060405160128152f35b3461018257606036600319011261018257610ef9611908565b610f0161191e565b6001600160a01b0382165f818152600160209081526040808320338452909152902054909260443592915f198110610f3f575b50610a4c9350612da0565b838110610fa4578415610f91573315610f7e57610a4c945f52600160205260405f2060018060a01b0333165f526020528360405f209103905584610f34565b634a1406b160e11b5f525f60045260245ffd5b63e602df0560e01b5f525f60045260245ffd5b8390637dc7a0d960e11b5f523360045260245260445260645ffd5b3461018257608036600319011261018257610fd8611908565b6024356001600160801b03811680820361018257610ff461199c565b6064356001600160a01b038116919082900361018257600554604051633850c7bd60e01b8152919060e090839060049082906001600160a01b03165afa9182156105f4575f92611690575b506001600160a01b0390811691168181108015611687575b61166f57505050611066612938565b5f5f5b600b5481101561151c576001600160801b0361109c61109761108a84611934565b90549060031b1c86611b29565b6128fb565b168015611513576110af61048e83611960565b6110b881612691565b156114885750600554604051633850c7bd60e01b815292935060e090839060049082906001600160a01b03165afa9182156105f4575f92611462575b506008546040516326c4d12b60e21b81526001600160a01b039091169190602081600481865afa9081156105f4575f91611429575b50604051630e4fba4560e31b815290602082600481875afa9182156105f4575f926113d7575b50916044946111739261116d6111676060979661336c565b9161336c565b91613945565b92909160405194858092634c4a790d60e11b82528560048301528660248301525afa9283156105f4575f5f915f95611390575b5091611211611229926111fc611241969560018060a01b038d165f52600f60205260405f206111d68a82546119b2565b90556111e489600e546119b2565b600e55600654309033906001600160a01b0316613203565b600754309033906001600160a01b0316613203565b6006546008546001600160a01b039081169116613e71565b6007546008546001600160a01b039081169116613e71565b6008546040516394bf804d60e01b81526004810183905230602482015290606090829060449082905f906001600160a01b03165af180156105f457611362575b5060065460085461129e916001600160a01b039182169116613dba565b6007546008546112ba916001600160a01b039182169116613dba565b6008546009546112d89183916001600160a01b039081169116613e71565b6009546008546001600160a01b03908116929116803b1561018257865f91838361131996604051978895869485936346dafa2f60e01b855260048501612d7d565b03925af19182156105f457600192611352575b5061134a828060a01b0360085416838060a01b036009541690613dba565b915b01611069565b5f61135c916119d3565b8661132c565b6113829060603d8111611389575b61137a81836119d3565b810190612d5e565b5050611281565b503d611370565b94505050906060833d82116113cf575b816113ad606093836119d3565b81010312610182578251602084015160409094015193919291906112116111a6565b3d91506113a0565b915092916020823d8211611421575b816113f3602093836119d3565b810103126101825760449460609461116d61116761141361117396611a09565b95505050919394509461114f565b3d91506113e6565b90506020813d821161145a575b81611443602093836119d3565b810103126101825761145490611a09565b88611129565b3d9150611436565b61147b91925060e03d81116109155761090081836119d3565b50505050505090866110f4565b919060409060018060a01b03600554166020855160020b95015160020b5f845196336020890152602088526114bd86896119d3565b6114dd865198899687958694633c8a7d8d60e01b86523060048701611ef0565b03925af19182156105f4576001926114f6575b5061134c565b61150d9060403d81116106655761065381836119d3565b506114f0565b5060019061134c565b509091600d549081155f1461164c57836064811061163a57506001600160a01b038516308103611628575061157a9184915b6001600160801b03611565600c5492828416611f2f565b16906001600160801b03191617600c556119b2565b600d556001600160a01b038316908115611615576020935061159e836002546119b2565b600255815f525f845260405f20838154019055815f7fddf252ad1be2c89b69c2b068fc378daa952ba7f163c4a11628f55a4df523b3ef86604051878152a360405190838252848201527f2f00e3cdd69a77be7ed215ec7b2a36784dd158f921fca79ac29deffa353fe6ee60403392a3604051908152f35b63ec442f0560e01b5f525f60045260245ffd5b63b259c97d60e01b5f5260045260245ffd5b630147515f60e41b5f5260045260245ffd5b611667829461157a936001600160801b03600c541691612653565b93849161154e565b632aa2f33960e11b5f5260045260245260445260645ffd5b50828111611057565b6116aa91925060e03d60e0116109155761090081836119d3565b505050505050908661103f565b34610182575f366003190112610182576020600254604051908152f35b34610182575f366003190112610182576005546040516001600160a01b039091168152602090f35b34610182575f366003190112610182576006546040516001600160a01b039091168152602090f35b34610182576020366003190112610182576040610176600435611b49565b346101825760403660031901126101825761175b611908565b602435903315610f91576001600160a01b0316908115610f7e57335f52600160205260405f20825f526020528060405f20556040519081527f8c5be1e5ebec7d5bd14f71427d1e84f3dd0314c0f7b2291e5b200ac8c7c3b92560203392a3602060405160018152f35b34610182575f366003190112610182576040515f6003548060011c90600181168015611875575b602083108114610b4557828552908115610b21575060011461181757610abf83610aab818503826119d3565b91905060035f527fc2575a0e9e593c00f959f8c92f12db2869c3395a3b0502d05e2516446f71f85b915f905b80821061185b57509091508101602001610aab610a9b565b919260018160209254838588010152019101909291611843565b91607f16916117eb565b3461018257602036600319011261018257600435600b54811015610182576118a8602091611934565b90549060031b1c604051908152f35b346101825760203660031901126101825760406001600160a01b036118da611908565b16805f525f6020526101766118f1835f2054611b49565b925f52600f602052610ebf610ebf855f2054611ffb565b600435906001600160a01b038216820361018257565b602435906001600160a01b038216820361018257565b600b5481101561194c57600b5f5260205f2001905f90565b634e487b7160e01b5f52603260045260245ffd5b600a5481101561194c57600a5f5260205f2001905f90565b805180835260209291819084018484015e5f828201840152601f01601f1916010190565b604435906001600160a01b038216820361018257565b919082018092116119bf57565b634e487b7160e01b5f52601160045260245ffd5b90601f8019910116810190811067ffffffffffffffff821117610e3857604052565b51906001600160a01b038216820361018257565b51908160020b820361018257565b519061ffff8216820361018257565b519063ffffffff8216820361018257565b5190811515820361018257565b908160e091031261018257611a58816119f5565b91611a6560208301611a09565b91611a7260408201611a17565b91611a7f60608301611a17565b91611a8c60808201611a17565b91611aa560c0611a9e60a08501611a26565b9301611a37565b90565b906040516040810181811067ffffffffffffffff821117610e385760405260208193548060020b835260181c60020b910152565b51906001600160801b038216820361018257565b908160a091031261018257611b0481611adc565b91602082015191604081015191611aa56080611b2260608501611adc565b9301611adc565b818102929181159184041417156119bf57565b919082039182116119bf57565b5f915f918015611ed157600554604051633850c7bd60e01b81526001600160a01b03909116919060e081600481865afa80156105f4575f915f91611eab575b5092905f5f916001600160801b03600c5416956001600160801b03611bb1600d54809989612653565b16915f92600b54965b878510611c3e575050505050828082115f14611c3557611bd991611b3c565b915b80821115611c2c57611bec91611b3c565b905b80611c15575b5080611bff57505050565b91611c0f91611aa5949593612653565b906119b2565b95611c0f8484611c259499612653565b945f611bf4565b50505f90611bee565b50505f91611bdb565b909192939a611c4f61048e8d611960565b611c5881612691565b611ea1578051602080830180516040513060601b6001600160601b03191693810193845260e894851b6034820152931b603784015291611ca581603a81015b03601f1981018352826119d3565b519020986040519963514ea4bf60e01b8b5260048b015260a08a602481885afa998a156105f4578f9a611cef915f5f915f93611e6d575b508b875160020b875160020b908b6126ae565b845160020b91611d136111676001600160801b0380885160020b941694169461336c565b9081816001600160a01b0380831690821611611e62575b50506001600160a01b038b811694908c9083168611611e00575050611d4f9350613f97565b835160020b90835160020b91611d649061336c565b91611d6e9061336c565b611d78928a6139ce565b9990611d83916119b2565b98611d8d916119b2565b98611d9790611934565b9054611da79160031b1c86611b29565b60601c915160020b905160020b90611dbe9061336c565b916001600160801b031690611dd29061336c565b611ddc92876139ce565b9d90611de7916119b2565b9c611df1916119b2565b9a6001905b0193929190611bba565b919490939192906001600160a01b0382161115611e56578291611e2791611e2d9594613f97565b93613f49565b6001600160801b0381166001600160801b038316105f14611e4f57505b611d4f565b9050611d4f565b915050611e4a92613f49565b925090505f80611d2a565b915050611e91915060a03d8111611e9a575b611e8981836119d3565b810190611af0565b5050915f611cdc565b503d611e7f565b509a600190611df6565b9050611ec6915060e03d60e0116109155761090081836119d3565b50505050505f611b88565b505f9250829150565b9190826040910312610182576020825192015190565b919360a093611aa596956001600160801b0393600180881b0316855260020b602085015260020b60408401521660608201528160808201520190611978565b906001600160801b03809116911601906001600160801b0382116119bf57565b67ffffffffffffffff8111610e385760051b60200190565b600a5490611f7482611f4f565b91611f8260405193846119d3565b808352600a5f9081527fc65a7bb8d6351c1cf70c95a316cc6a92839c986682d98bc35f958f4883f9d2a8602085015b838310611fbe5750505050565b600160208192611fcd85611aa8565b815201920192019190611fb1565b906001600160801b03809116911603906001600160801b0382116119bf57565b90811561253e576008546040516326c4d12b60e21b8152906001600160a01b0316602082600481845afa9182156105f4575f92612502575b50604051630e4fba4560e31b815293602085600481855afa9485156105f4575f956124c6575b506040516318160ddd60e01b815292602084600481865afa9384156105f4575f94612492575b50600554604051633850c7bd60e01b81526001600160a01b039091169160e082600481865afa9788156105f4575f925f99612466575b50604051606087901b6001600160601b0319166020820190815260e884811b603484015283901b6037830152906120ef81603a8101611c97565b5190206040519063514ea4bf60e01b8252600482015260a081602481885afa9485156105f4575f9a5f905f925f945f99612421575b5061215b946001600160801b038f819682966121479284978c8e612152996126ae565b9690921691166119b2565b971691166119b2565b60405163666fbd0160e11b81526020816004818b5afa9182156105f45787928a925f916123de575b5061ffff16966121938882611b29565b61271090046121a191611b3c565b966121ac9082611b29565b61271090046121ba91611b3c565b9a6001600160801b0316916121ce92612653565b6001600160801b0316916121e19061336c565b906121eb9061336c565b906121f5936139ce565b6006546040516370a0823160e01b8152600481018790529195929390829081906001600160a01b03165a92602491602094fa9081156105f4575f916123a8575b61223f92506119b2565b9160405163065756db60e01b8152602081600481865afa9081156105f457879186915f9161236c575b5091611c0f9161227e6122839594602498611b3c565b612653565b96602060018060a01b0360075416604051948580926370a0823160e01b82528660048301525afa9283156105f4575f93612336575b506122c76004936020926119b2565b91604051938480926310bee75160e21b82525afa9182156105f4575f926122fc575b509161227e611aa59592611c0f94611b3c565b949150916020853d60201161232e575b81612319602093836119d3565b8101031261018257935190939161227e6122e9565b3d915061230c565b92506020833d602011612364575b81612351602093836119d3565b81010312610182579151916122c76122b8565b3d9150612344565b93925050506020823d6020116123a0575b8161238a602093836119d3565b8101031261018257905186908590611c0f612268565b3d915061237d565b90506020823d6020116123d6575b816123c3602093836119d3565b810103126101825761223f915190612235565b3d91506123b6565b92505091506020813d602011612419575b816123fc602093836119d3565b8101031261018257869161ffff6124138b93611a17565b90612183565b3d91506123ef565b925097509250849b5083915060a03d60a01161245f575b61244281836119d3565b810161244d91611af0565b939e509298929490935090918d612124565b503d612438565b90985061248391925060e03d60e0116109155761090081836119d3565b5050505050919091975f6120b5565b9093506020813d6020116124be575b816124ae602093836119d3565b810103126101825751925f61207f565b3d91506124a1565b9094506020813d6020116124fa575b816124e2602093836119d3565b81010312610182576124f390611a09565b935f612059565b3d91506124d5565b9091506020813d602011612536575b8161251e602093836119d3565b810103126101825761252f90611a09565b905f612033565b3d9150612511565b5f91508190565b600160ff1b81146119bf575f0390565b5f19600160601b8209918160601b918280851094039380850394146125dc5783821115610182578190600160601b90098161258f81612545565b168092046002816003021880820260020302808202600203028082026002030280820260020302808202600203028091026002030293600183805f03040190848311900302920304170290565b5080925015610182570490565b5f91905f19828209908281029283808410930392808403931461264857600160601b83101561264457600160601b9109600160601b818403819004939091119091036001600160601b03199390930104600101919091021790565b8480fd5b505050905060601c90565b915f1982840992828102928380861095039480860395146126835784831115610182578291098161258f81612545565b505080925015610182570490565b805160020b1590816126a1575090565b60209150015160020b1590565b60405163f305839960e01b8152929796949593926001600160a01b0390911690602081600481855afa9081156105f4575f916128c9575b50604051634614131960e01b815291602083600481845afa9283156105f4575f93612895575b506040519363f30dba9360e01b855260020b80600486015261010085602481855afa9a8b156105f4575f955f9c61285a575b5090610100602496959493926040519788809263f30dba9360e01b825260020b958660048301525afa9687156105f4575f965f9861281c575b5060020b908112156127c157505050506127b06127aa6001600160801b0397956127b7956127bd98958a95039b039a611b3c565b85613348565b1696611b3c565b90613348565b1690565b929a94939212156127f4576001600160801b0397956127b7956127bd98958a956127b0956127aa9503039c03039a611b3c565b506127b79398506127aa6001600160801b0397956127bd97946127b0938a95039b039a611b3c565b9097506128429196506101003d8111612853575b61283a81836119d3565b8101906132e7565b50505050979250905095965f612776565b503d612830565b61010095949392919c506024965061287e90863d81116128535761283a81836119d3565b505050509792509050959c9192939495965061273d565b9092506020813d6020116128c1575b816128b1602093836119d3565b810103126101825751915f61270b565b3d91506128a4565b90506020813d6020116128f3575b816128e4602093836119d3565b8101031261018257515f6126e5565b3d91506128d7565b906bffffffffffffffffffffffff8260601c921661291557565b90600181018091116119bf5790565b805182101561194c5760209160051b010190565b5f5b600b54811015612a8c5761295061048e82611960565b906001600160801b0361297a61109782600c541661296d85611934565b90549060031b1c90611b29565b1615612a835761298982612691565b612a835760018060a01b0360055416825160020b604060208501916064835160020b915f8451968794859363a34123a760e01b8552600485015260248401528160448401525af19182156105f457604092612a67575b506005549351905182516309e3d67b60e31b8152306004820152600292830b6024820152910b60448201526001600160801b0360648201819052608482015292839060a49082905f906001600160a01b03165af19182156105f457600192612a4a575b505b0161293a565b612a619060403d81116105ed576105df81836119d3565b50612a42565b612a7d90833d81116106655761065381836119d3565b506129df565b60019150612a44565b50600554604051633850c7bd60e01b8152919060e090839060049082906001600160a01b03165afa9182156105f4575f92612d37575b50612acb613a53565b916001600160801b038316928315612d31576001600160801b03612af7600c9593955492828416611f2f565b16906001600160801b03191617600c555f5f612b11611f67565b92600b54612b1e81611f4f565b96612b2c60405198896119d3565b818852601f19612b3b83611f4f565b013660208a01375f925b828410612c91575050600654612b7f94612b6c9350915030906001600160a01b0316613e71565b60075430906001600160a01b0316613e71565b5f5b600b54811015612c5c57612b958183612924565b5190612ba082612691565b612c53576001600160801b03612bb68287612924565b51168015612c495760409060018060a01b03600554166020855160020b95015160020b5f84519630602089015260208852612bf186896119d3565b612c11865198899687958694633c8a7d8d60e01b86523060048701611ef0565b03925af19182156105f457600192612c2c575b505b01612b81565b612c439060403d81116106655761065381836119d3565b50612c24565b5060019150612c26565b60019150612c26565b5050600654909150612c789030906001600160a01b0316613dba565b600754612c8f9030906001600160a01b0316613dba565b565b90919294612c9f8688612924565b51612ca981612691565b612d26576001600160801b03612cc461109761108a8a611934565b169081612cd1898d612924565b528115612d1a5791612d06610ebf612d0c9385612cff61116760206001995160020b93015160020b9261336c565b9089613945565b966119b2565b955b01929190949394612b45565b50509394600190612d0e565b509394600190612d0e565b50509050565b612d5191925060e03d60e0116109155761090081836119d3565b505050505050905f612ac2565b9081606091031261018257805191611aa5604060208401519301611adc565b6001600160a01b0391821681526020810192909252909116604082015260600190565b916001600160a01b038316915f90831561083a576001600160a01b038116948515611615576008546001600160a01b0316612e4f575b5050828152806020526040812054828110612e355791604082827fddf252ad1be2c89b69c2b068fc378daa952ba7f163c4a11628f55a4df523b3ef958760209652828652038282205586815280845220818154019055604051908152a3565b916064928463391434e360e21b8452600452602452604452fd5b845f52600f602052612e7260405f2054865f525f6020528560405f205491612653565b90855f52600f60205260405f20612e8a838254611b3c565b9055865f52600f60205260405f20612ea38382546119b2565b90556009546008546001600160a01b0391821692911690823b1561018257612ee692845f80946040519687958694859363e50e637160e01b855260048501612d7d565b03925af180156105f457612faf575b50600854600954612f149183916001600160a01b039081169116613e71565b6009546008546001600160a01b03918216929116823b156126445791612f559391858094604051968795869485936346dafa2f60e01b855260048501612d7d565b03925af18015612fa457908291612f8c575b5050600854600954612f85916001600160a01b039182169116613dba565b5f80612dd6565b81612f96916119d3565b612fa157805f612f67565b80fd5b6040513d84823e3d90fd5b612fbc9193505f906119d3565b5f915f612ef5565b919082604091031261018257611aa56020611b2284611adc565b906130045f92335f52600f60205260405f205490335f525f60205260405f205491612653565b91821561310557335f52600f60205260405f20613022848254611b3c565b905561303083600e54611b3c565b600e556009546008546001600160a01b039081169116803b15610182576130745f9291839260405194858094819363e50e637160e01b83528b339160048501612d7d565b03925af180156105f4576130f2575b50600854604051633f34d4cf60e21b81526004810185905230602482015291906060908390604490829085906001600160a01b03165af19081156130e657506130c95750565b6130e19060603d6060116113895761137a81836119d3565b505050565b604051903d90823e3d90fd5b6130fe91505f906119d3565b5f5f613083565b505f9150565b3d15613145573d9067ffffffffffffffff8211610e38576040519161313a601f8201601f1916602001846119d3565b82523d5f602084013e565b606090565b60405163a9059cbb60e01b602082019081526001600160a01b03909316602482015260448101939093525f9283929083906131888160648101611c97565b51925af161319461310b565b816131cc575b50156131a257565b60405162461bcd60e51b815260206004820152600260248201526114d560f21b6044820152606490fd5b80518015925082156131e1575b50505f61319a565b81925090602091810103126101825760206131fc9101611a37565b5f806131d9565b6040516323b872dd60e01b602082019081526001600160a01b0393841660248301529390921660448301526064808301949094529281525f9283929091839061324d6084826119d3565b51925af161325961310b565b81613292575b501561326757565b60405162461bcd60e51b815260206004820152600360248201526229aa2360e91b6044820152606490fd5b80518015925082156132a7575b50505f61325f565b81925090602091810103126101825760206132c29101611a37565b5f8061329f565b81156132d3570490565b634e487b7160e01b5f52601260045260245ffd5b919082610100910312610182576132fd82611adc565b91602081015180600f0b8103610182579160408201519160608101519160808201518060060b8103610182579161333660a082016119f5565b91611aa560e0611a9e60c08501611a26565b6001600160801b0316905f198183099102908180821091030360801b9060801c0190565b60020b5f81121561393f5761338081612545565b905b620d89e88211613916576001821615613904576001600160881b036ffffcb933bd6fad37aa2d162d1a5940015b1691600281166138c9575b6004811661388e575b60088116613853575b60108116613818575b602081166137dd575b604081166137a2575b60808116613767575b610100811661372c575b61020081166136f1575b61040081166136b6575b610800811661367b575b6110008116613640575b6120008116613605575b61400081166135ca575b618000811661358f575b620100008116613554575b62020000811661351b575b6204000081166134e4575b62080000166134b1575b5f126134a3575b63ffffffff8116613498576127bd5f915b6001600160a01b039260ff169060201c6119b2565b6127bd600191613483565b80156132d3575f1904613472565b906b048a170391f7dc42444e8fa28102908082046b048a170391f7dc42444e8fa214901517156119bf5760801c9061346b565b916d2216e584f5fa1ea926041bedfe988102908082046d2216e584f5fa1ea926041bedfe9814901517156119bf5760801c91613461565b916e5d6af8dedb81196699c329225ee6048102908082046e5d6af8dedb81196699c329225ee60414901517156119bf5760801c91613456565b916f09aa508b5b7a84e1c677de54f3e99bc98102908082046f09aa508b5b7a84e1c677de54f3e99bc914901517156119bf5760801c9161344b565b916f31be135f97d08fd981231505542fcfa68102908082046f31be135f97d08fd981231505542fcfa614901517156119bf5760801c91613440565b916f70d869a156d2a1b890bb3df62baf32f78102908082046f70d869a156d2a1b890bb3df62baf32f714901517156119bf5760801c91613436565b916fa9f746462d870fdf8a65dc1f90e061e58102908082046fa9f746462d870fdf8a65dc1f90e061e514901517156119bf5760801c9161342c565b916fd097f3bdfd2022b8845ad8f792aa58258102908082046fd097f3bdfd2022b8845ad8f792aa582514901517156119bf5760801c91613422565b916fe7159475a2c29b7443b29c7fa6e889d98102908082046fe7159475a2c29b7443b29c7fa6e889d914901517156119bf5760801c91613418565b916ff3392b0822b70005940c7a398e4b70f38102908082046ff3392b0822b70005940c7a398e4b70f314901517156119bf5760801c9161340e565b916ff987a7253ac413176f2b074cf7815e548102908082046ff987a7253ac413176f2b074cf7815e5414901517156119bf5760801c91613404565b916ffcbe86c7900a88aedcffc83b479aa3a48102908082046ffcbe86c7900a88aedcffc83b479aa3a414901517156119bf5760801c916133fa565b916ffe5dee046a99a2a811c461f1969c30538102908082046ffe5dee046a99a2a811c461f1969c305314901517156119bf5760801c916133f0565b916fff2ea16466c96a3843ec78b326b528618102908082046fff2ea16466c96a3843ec78b326b5286114901517156119bf5760801c916133e7565b916fff973b41fa98c081472e6896dfb254c08102908082046fff973b41fa98c081472e6896dfb254c014901517156119bf5760801c916133de565b916fffcb9843d60f6159c9db58835c9266448102908082046fffcb9843d60f6159c9db58835c92664414901517156119bf5760801c916133d5565b916fffe5caca7e10e4e61c3624eaa0941cd08102908082046fffe5caca7e10e4e61c3624eaa0941cd014901517156119bf5760801c916133cc565b916ffff2e50f5f656932ef12357cf3c7fdcc8102908082046ffff2e50f5f656932ef12357cf3c7fdcc14901517156119bf5760801c916133c3565b916ffff97272373d413259a46990580e213a8102908082046ffff97272373d413259a46990580e213a14901517156119bf5760801c916133ba565b6001600160881b03600160801b6133af565b60405162461bcd60e51b81526020600482015260016024820152601560fa1b6044820152606490fd5b80613382565b5f94939291908583836001600160a01b03808316908216116139c3575b50506001600160a01b03828116908416811161398a575050509061398692916140a9565b9190565b9296509092916001600160a01b03831611156139b75750906139b183611aa59493836140a9565b9461403d565b94611aa593925061403d565b945092505f80613962565b5f94939291908583836001600160a01b0380831690821611613a48575b50506001600160a01b038281169084168111613a0f57505050906139869291614180565b9296509092916001600160a01b0383161115613a3c575090613a3683611aa5949383614180565b9461413d565b94611aa593925061413d565b945092505f806139eb565b6006546040516370a0823160e01b815230600482015290602090829060249082906001600160a01b03165afa9081156105f4575f91613d88575b506007546040516370a0823160e01b81523060048201528291602090829060249082906001600160a01b03165afa9081156105f4575f91613d56575b509081906001600160c01b0310613d47575b6001600160c01b0310613d39575b600b54918280821115613d3057613aff91611b3c565b905b8280821115613d2857613b1391611b3c565b811580613d20575b613d1957600554604051633850c7bd60e01b81525f939184919060e090829060049082906001600160a01b03165afa9081156105f4575f91613cf4575b505f905b868210613c585750508015613c4857613b779160401b6132c9565b915b8015613c3957613b8b9160401b6132c9565b80821015613c3257505b6001600160801b038114613c09575b6001600160801b03811115613bfb57506001600160801b035b600182901b916001600160ff1b038116036119bf576001600160801b0381168210613be85750505f90565b6001600160801b03611aa5921690611fdb565b6001600160801b0316613bbd565b7f2395fc98b0d6c5cf7d07e618bb8aaf9228978666b290679282575a9a6bde93ef5f80a1613ba4565b9050613b95565b50506001600160801b03613b8b565b50506001600160801b0391613b79565b909491613c6761048e87611960565b90613c7182612691565b613ce957613c7e87611934565b905460039190911b1c906001600160c01b03821682036119bf57613cda610ebf6001946001600160801b03613cb8613ce09660401b6128fb565b1690613cd36111676020835160020b93015160020b9261336c565b9088613945565b946119b2565b955b0190613b5c565b929560019150613ce2565b613d0d915060e03d60e0116109155761090081836119d3565b5050505050505f613b58565b5050505f90565b508015613b1b565b50505f613b13565b50505f90613b01565b506001600160c01b03613ae9565b6001600160c01b039250613adb565b90506020813d602011613d80575b81613d71602093836119d3565b8101031261018257515f613ac9565b3d9150613d64565b90506020813d602011613db2575b81613da3602093836119d3565b8101031261018257515f613a8d565b3d9150613d96565b6040519060205f8184019463095ea7b360e01b865260018060a01b03169485602486015281604486015260448552613df36064866119d3565b84519082855af15f513d82613e4c575b505015613e0f57505050565b613e47612c8f936040519063095ea7b360e01b602083015260248201525f604482015260448152613e416064826119d3565b82613fe5565b613fe5565b909150613e6957506001600160a01b0381163b15155b5f80613e03565b600114613e62565b60405163095ea7b360e01b60208083019182526001600160a01b0385166024840152604480840196909652948252929390925f90613eb06064866119d3565b84519082855af15f513d82613f0b575b505015613ecc57505050565b60405163095ea7b360e01b60208201526001600160a01b0390931660248401525f6044808501919091528352612c8f92613e4790613e416064826119d3565b909150613f2857506001600160a01b0381163b15155b5f80613ec0565b600114613f21565b6001600160a01b0391821690821603919082116119bf57565b613f7d9291906001600160a01b0380831690821611613f91575b6001600160a01b0391613f769190613f30565b1690612555565b6001600160801b0381169081036101825790565b90613f63565b613f7d92916001600160a01b0380821690831611613fdf575b613fd8613fc96001600160a01b038381169085166125e9565b926001600160a01b0392613f30565b1691612653565b90613fb0565b905f602091828151910182855af1156105f4575f513d61403457506001600160a01b0381163b155b6140145750565b635274afe760e01b5f9081526001600160a01b0391909116600452602490fd5b6001141561400d565b6001600160801b039161406391906001600160a01b03808216908316116140a357613f30565b6001600160a01b0316911661407d600160601b8383612653565b91600160601b910961408c5790565b5f19811015610182575f1981146119bf5760010190565b90613f30565b90916001600160a01b0380841690831611614135575b60601b600160601b600160e01b0316916001600160a01b036140e18383613f30565b6001600160a01b0390921691166140f9828286612653565b9382156132d3570961411a575b6001600160a01b0316808204910615150190565b905f19811015610182575f1981146119bf5760010190614106565b9091906140bf565b611aa592916001600160801b03916001600160a01b038083169082161161417a575b6001600160a01b03916141729190613f30565b1691166125e9565b9061415f565b611aa59290916141d491906001600160a01b03808216908516116141e5575b6001600160a01b036141b18583613f30565b6001600160a01b039092169291169060601b600160601b600160e01b0316612653565b6001600160a01b03909116906132c9565b9261419f56fea264697066735822122057b5b129fb9459c1201e682f5d3b58191697305ec5cf373fba7026d31194680064736f6c634300081c0033fe60050de8c303e9e73c33538bcf1b0b6509d1437c01221e10b4d2281a279267","linkReferences":{}},"methodIdentifiers":{"allowance(address,address)":"dd62ed3e","approve(address,uint256)":"095ea7b3","balanceOf(address)":"70a08231","burn(uint256,uint160,uint160)":"b9d22517","decimals()":"313ce567","distX96(uint256)":"05e024ad","getInfo()":"5a9b0b89","island()":"db5537e1","islandSharesPerOwner(address)":"c0ef046b","migrateStationProxy(address)":"b574df5e","mint(address,uint128,uint160,uint160)":"20cb4dfd","name()":"06fdde03","pool()":"16f0115b","queryTVL()":"3a2aabcc","queryValue(address)":"02e3cbfc","queryValueIsland(uint256)":"f8f0a4ae","queryValueV3Ranges(uint256)":"0ac44509","ranges(uint256)":"5fdecdfa","stationProxy()":"805cff25","symbol()":"95d89b41","token0()":"0dfe1681","token1()":"d21220a7","totalIslandShares()":"750690a0","totalNominalLiq()":"454dc49f","totalShares()":"3a98ef39","totalSupply()":"18160ddd","transfer(address,uint256)":"a9059cbb","transferFrom(address,address,uint256)":"23b872dd","uniswapV3MintCallback(uint256,uint256,bytes)":"d3487997"},"id":98}