{"abi":[{"type":"function","name":"AUTO165_STORAGE_POSITION","inputs":[],"outputs":[{"name":"","type":"bytes32","internalType":"bytes32"}],"stateMutability":"view"}],"bytecode":{"object":"0x60808060405234601757608f9081601c823930815050f35b5f80fdfe60808060405260043610156011575f80fd5b5f3560e01c6334a3d316146023575f80fd5b5f366003190112605557807f11c14117fec7040f1693694275e2558772b2dabfbec99d7919100395a5425e8560209252f35b5f80fdfea264697066735822122001a63cd5c24bacc75ea4dc7ca3493acec8eb1dc41e61e9e9a84d9bcf8df8493864736f6c634300081c0033","linkReferences":{}},"methodIdentifiers":{"AUTO165_STORAGE_POSITION()":"34a3d316"},"id":6}