{"abi":[{"type":"constructor","inputs":[],"stateMutability":"nonpayable"},{"type":"function","name":"adjsX128","inputs":[{"name":"","type":"address","internalType":"address"}],"outputs":[{"name":"","type":"uint256","internalType":"uint256"}],"stateMutability":"view"},{"type":"function","name":"cacheAdjustment","inputs":[{"name":"token","type":"address","internalType":"address"}],"outputs":[],"stateMutability":"nonpayable"},{"type":"function","name":"invAdjsX128","inputs":[{"name":"","type":"address","internalType":"address"}],"outputs":[{"name":"","type":"uint256","internalType":"uint256"}],"stateMutability":"view"},{"type":"function","name":"setAdjustment","inputs":[{"name":"token","type":"address","internalType":"address"},{"name":"_adjX128","type":"uint256","internalType":"uint256"}],"outputs":[],"stateMutability":"nonpayable"},{"type":"function","name":"toNominal","inputs":[{"name":"token","type":"address","internalType":"address"},{"name":"value","type":"int256","internalType":"int256"},{"name":"roundUp","type":"bool","internalType":"bool"}],"outputs":[{"name":"normalized","type":"int256","internalType":"int256"}],"stateMutability":"view"},{"type":"function","name":"toNominal","inputs":[{"name":"token","type":"address","internalType":"address"},{"name":"value","type":"uint256","internalType":"uint256"},{"name":"roundUp","type":"bool","internalType":"bool"}],"outputs":[{"name":"normalized","type":"uint256","internalType":"uint256"}],"stateMutability":"view"},{"type":"function","name":"toReal","inputs":[{"name":"token","type":"address","internalType":"address"},{"name":"value","type":"uint256","internalType":"uint256"},{"name":"roundUp","type":"bool","internalType":"bool"}],"outputs":[{"name":"denormalized","type":"uint256","internalType":"uint256"}],"stateMutability":"view"},{"type":"function","name":"toReal","inputs":[{"name":"token","type":"address","internalType":"address"},{"name":"value","type":"int256","internalType":"int256"},{"name":"roundUp","type":"bool","internalType":"bool"}],"outputs":[{"name":"denormalized","type":"int256","internalType":"int256"}],"stateMutability":"view"},{"type":"error","name":"CannotReinitializeOwner","inputs":[{"name":"existingOwner","type":"address","internalType":"address"}]},{"type":"error","name":"NotOwner","inputs":[]},{"type":"error","name":"UnsafeICast","inputs":[{"name":"val","type":"uint256","internalType":"uint256"},{"name":"max","type":"int256","internalType":"int256"}]}],"bytecode":{"object":"0x608080604052346060575f5160206104d15f395f51905f52546001600160a01b03811680604e57506001600160a01b03191633175f5160206104d15f395f51905f525561046c90816100658239f35b631652a8fb60e01b5f5260045260245ffd5b5f80fdfe60806040526004361015610011575f80fd5b5f3560e01c806307215aac1461026e5780633a78a040146102365780636216c0391461021d578063814eaa8c14610204578063882d90be146101cd578063e85179cc146101ac578063ecac2c9c146101915763f77b3a1714610071575f80fd5b3461018d57604036600319011261018d5761008a610287565b7ffe60050de8c303e9e73c33538bcf1b0b6509d1437c01221e10b4d2281a2792675460243591906001600160a01b0316330361017e576001600160a01b03165f8181526020819052604090208290559060018111156101555780600160801b818160010909816100f981610302565b168092046002816003021880820260020302808202600203028082026002030280820260020302808202600203028091026002030291600181805f03040182151560010302915f03041702905f52600160205260405f20555f80f35b60405162461bcd60e51b81526020600482015260016024820152600360fc1b6044820152606490fd5b6330cd747160e01b5f5260045ffd5b5f80fd5b3461018d57602036600319011261018d576101aa610287565b005b3461018d5760206101c56101bf3661029d565b916103b4565b604051908152f35b3461018d57602036600319011261018d576001600160a01b036101ee610287565b165f525f602052602060405f2054604051908152f35b3461018d5760206101c56102173661029d565b91610382565b3461018d5760206101c56102303661029d565b91610326565b3461018d57602036600319011261018d576001600160a01b03610257610287565b165f526001602052602060405f2054604051908152f35b3461018d5760206101c56102813661029d565b916102d0565b600435906001600160a01b038216820361018d57565b606090600319011261018d576004356001600160a01b038116810361018d579060243590604435801515810361018d5790565b6001600160a01b03165f9081526001602052604090205490919080156102fd57916102fa926103da565b90565b505090565b600160ff1b8114610312575f0390565b634e487b7160e01b5f52601160045260245ffd5b6001600160a01b03165f90815260016020526040902054801561037c575f821261035d5791610358916102fa936103da565b610403565b6102fa926103589161037161037794610302565b906103da565b610302565b50905090565b6001600160a01b03165f90815260208190526040902054801561037c575f821261035d5791610358916102fa936103da565b6001600160a01b03165f9081526020819052604090205490919080156102fd57916102fa925b915f198284099282810292600160801b9109151516918180821091030360801b9060801c010190565b6001600160ff1b0381116104145790565b63632a768b60e01b5f9081526004919091526001600160ff1b03602452604490fdfea26469706673582212200b8472b579f88554db27b9724b850c16bdce51d3d82797247d83ea66c7f76d6a64736f6c634300081c0033fe60050de8c303e9e73c33538bcf1b0b6509d1437c01221e10b4d2281a279267","linkReferences":{}},"methodIdentifiers":{"adjsX128(address)":"882d90be","cacheAdjustment(address)":"ecac2c9c","invAdjsX128(address)":"3a78a040","setAdjustment(address,uint256)":"f77b3a17","toNominal(address,int256,bool)":"814eaa8c","toNominal(address,uint256,bool)":"e85179cc","toReal(address,int256,bool)":"6216c039","toReal(address,uint256,bool)":"07215aac"},"id":66}