{"abi":[{"type":"function","name":"adjustments","inputs":[{"name":"","type":"address","internalType":"address"}],"outputs":[{"name":"","type":"int256","internalType":"int256"}],"stateMutability":"view"},{"type":"function","name":"cacheAdjustment","inputs":[{"name":"token","type":"address","internalType":"address"}],"outputs":[],"stateMutability":"nonpayable"},{"type":"function","name":"cacheRatio","inputs":[{"name":"numToken","type":"address","internalType":"address"},{"name":"denomToken","type":"address","internalType":"address"}],"outputs":[],"stateMutability":"nonpayable"},{"type":"function","name":"nominalSqrtRatioX128","inputs":[{"name":"numToken","type":"address","internalType":"address"},{"name":"denomToken","type":"address","internalType":"address"},{"name":"roundUp","type":"bool","internalType":"bool"}],"outputs":[{"name":"ratioX128","type":"uint256","internalType":"uint256"}],"stateMutability":"view"},{"type":"function","name":"ratioRounding","inputs":[{"name":"num","type":"address","internalType":"address"},{"name":"denom","type":"address","internalType":"address"}],"outputs":[{"name":"","type":"bool","internalType":"bool"}],"stateMutability":"view"},{"type":"function","name":"ratiosX128","inputs":[{"name":"num","type":"address","internalType":"address"},{"name":"denom","type":"address","internalType":"address"}],"outputs":[{"name":"","type":"uint256","internalType":"uint256"}],"stateMutability":"view"},{"type":"function","name":"realSqrtRatioX128","inputs":[{"name":"numToken","type":"address","internalType":"address"},{"name":"denomToken","type":"address","internalType":"address"},{"name":"roundUp","type":"bool","internalType":"bool"}],"outputs":[{"name":"ratioX128","type":"uint256","internalType":"uint256"}],"stateMutability":"view"},{"type":"function","name":"toNominal","inputs":[{"name":"token","type":"address","internalType":"address"},{"name":"value","type":"int256","internalType":"int256"},{"name":"roundUp","type":"bool","internalType":"bool"}],"outputs":[{"name":"normalized","type":"int256","internalType":"int256"}],"stateMutability":"view"},{"type":"function","name":"toNominal","inputs":[{"name":"token","type":"address","internalType":"address"},{"name":"value","type":"uint256","internalType":"uint256"},{"name":"roundUp","type":"bool","internalType":"bool"}],"outputs":[{"name":"normalized","type":"uint256","internalType":"uint256"}],"stateMutability":"view"},{"type":"function","name":"toReal","inputs":[{"name":"token","type":"address","internalType":"address"},{"name":"value","type":"uint256","internalType":"uint256"},{"name":"roundUp","type":"bool","internalType":"bool"}],"outputs":[{"name":"denormalized","type":"uint256","internalType":"uint256"}],"stateMutability":"view"},{"type":"function","name":"toReal","inputs":[{"name":"token","type":"address","internalType":"address"},{"name":"value","type":"int256","internalType":"int256"},{"name":"roundUp","type":"bool","internalType":"bool"}],"outputs":[{"name":"denormalized","type":"int256","internalType":"int256"}],"stateMutability":"view"},{"type":"error","name":"TooManyDecimals","inputs":[{"name":"","type":"uint8","internalType":"uint8"}]}],"bytecode":{"object":"0x608080604052346015576109c1908161001a8239f35b5f80fdfe60806040526004361015610011575f80fd5b5f3560e01c806307215aac146102eb5780634b84b044146102945780635a0c9b23146102655780636216c0391461024c578063726e0e78146101c8578063746bb7f414610194578063814eaa8c1461017b578063d34a64801461012b578063df38af0e146100f4578063e85179cc146100d35763ecac2c9c14610092575f80fd5b346100cf5760203660031901126100cf576100ab610304565b6100b481610829565b6001600160a01b039091165f90815260208190526040902055005b5f80fd5b346100cf5760206100ec6100e63661033f565b9161062e565b604051908152f35b346100cf5760203660031901126100cf576001600160a01b03610115610304565b165f525f602052602060405f2054604051908152f35b346100cf5760403660031901126100cf57610144610304565b61014c61031a565b6001600160a01b039182165f908152600160209081526040808320949093168252928352819020549051908152f35b346100cf5760206100ec61018e3661033f565b916105f9565b346100cf5760603660031901126100cf5760206100ec6101b2610304565b6101ba61031a565b6101c2610330565b91610555565b346100cf5760403660031901126100cf576101e1610304565b6101e961031a565b6101f381836106a5565b9260018060a01b031690815f52600160205260405f2060018060a01b0384165f5260205260405f20555f52600260205260405f209060018060a01b03165f5260205260405f209060ff8019835416911515161790555f80f35b346100cf5760206100ec61025f3661033f565b916104ba565b346100cf5760603660031901126100cf5760206100ec610283610304565b61028b61031a565b906101c2610330565b346100cf5760403660031901126100cf576102ad610304565b6102b561031a565b9060018060a01b03165f52600260205260405f209060018060a01b03165f52602052602060ff60405f2054166040519015158152f35b346100cf5760206100ec6102fe3661033f565b916103de565b600435906001600160a01b03821682036100cf57565b602435906001600160a01b03821682036100cf57565b6044359081151582036100cf57565b60609060031901126100cf576004356001600160a01b03811681036100cf57906024359060443580151581036100cf5790565b600160ff1b8114610382575f0390565b634e487b7160e01b5f52601160045260245ffd5b8181029291811591840414171561038257565b81156103b3570490565b634e487b7160e01b5f52601260045260245ffd5b81156103b3570690565b9190820180921161038257565b6103eb9093929193610663565b5f81131561042e576103fd81856103a9565b938261041b575b505061040c57565b90600181018091116103825790565b61042592506103c7565b15155f80610404565b6104449293915061043e90610372565b90610396565b90565b81810292915f8212600160ff1b82141661038257818405149015171561038257565b81156103b357600160ff1b81145f19831416610382570590565b81156103b3570790565b905f19820191821360011661038257565b9060018201915f60018412911290801582169115161761038257565b6104c79093929193610663565b5f81131561053f576104d98185610469565b935f81131561050f57826104fa575b50506104f057565b906104449061049e565b5f92509061050791610483565b135f806104e8565b9115918261052a575b505061052057565b906104449061048d565b5f92509061053791610483565b125f80610518565b6104449293915061054f90610372565b90610447565b6001600160a01b038082165f8181526001602090815260408083209487168352939052919091205493949390816105bc57505090610592916106a5565b928193816105b4575b506105a35750565b909150600181018091116103825790565b90505f61059b565b9094929150826105ce57505061040c57565b9091505f52600260205260405f209060018060a01b03165f5260205260ff60405f2054165f80610404565b6106069093929193610663565b905f82131561061a57506104449192610447565b9061062490610372565b6104d98185610469565b61063b9093929193610663565b905f82131561064f57506104449192610396565b9061065990610372565b6103fd81856103a9565b6001600160a01b0381165f90815260208190526040902054919082156106865750565b610444919250610829565b9060ff8091169116039060ff821161038257565b906106b96106b35f93610889565b91610889565b9060ff80821690831680821115610745575050906106d691610691565b9160016106e7607f85831c1661093e565b60801b93166106f257565b91905060038102818104600314821517156103825761073f917f298b075b4b6a5240945790619b37fd4ab4e0abaf86001c5757f5084b172715005f198183099102808210910303906103d1565b90600190565b111561081e5761075491610691565b6001610764607f83831c1661093e565b60801b91166107a2575b80156103b3575f198181049190810190808211610382575f19060361079b57600181018091116103825791565b9160019150565b90506003810281810460031482151715610382577f298b075b4b6a5240945790619b37fd4ab4e0abaf86001c5757f5084b172715005f1981840992029182808210910303916107fe575b906107f6916103d1565b60019061076e565b60018201809211156107ec57634e487b7160e01b5f52601160045260245ffd5b50600160801b929050565b61083460ff91610889565b1660248111610877576012811115610863576011190160ff81116103825761085e6104449161093e565b610372565b60120360ff8111610382576104449061093e565b631de6e59160e31b5f5260045260245ffd5b60405163313ce56760e01b81529190602090839060049082906001600160a01b03165afa918215610933575f926108cb575b5060ff8216602481116108775750565b90915060203d60201161092c575b601f8101601f1916820167ffffffffffffffff811183821017610918576020918391604052810103126100cf575160ff811681036100cf57905f6108bb565b634e487b7160e01b5f52604160045260245ffd5b503d6108d9565b6040513d5f823e3d90fd5b90600191600a905b60ff8116610952575050565b60018116610972575b607f61096c9160011c169180610396565b90610946565b92607f6109828361096c93610396565b9491505061095b56fea2646970667358221220cf141172aae8fb7dcfd05a89b327086a06e52bd3f580a9d54386335ccb6381a264736f6c634300081c0033","linkReferences":{}},"methodIdentifiers":{"adjustments(address)":"df38af0e","cacheAdjustment(address)":"ecac2c9c","cacheRatio(address,address)":"726e0e78","nominalSqrtRatioX128(address,address,bool)":"746bb7f4","ratioRounding(address,address)":"4b84b044","ratiosX128(address,address)":"d34a6480","realSqrtRatioX128(address,address,bool)":"5a0c9b23","toNominal(address,int256,bool)":"814eaa8c","toNominal(address,uint256,bool)":"e85179cc","toReal(address,int256,bool)":"6216c039","toReal(address,uint256,bool)":"07215aac"},"id":64}