{"abi":[{"type":"function","name":"cacheAdjustment","inputs":[{"name":"","type":"address","internalType":"address"}],"outputs":[],"stateMutability":"pure"},{"type":"function","name":"toNominal","inputs":[{"name":"","type":"address","internalType":"address"},{"name":"real","type":"int256","internalType":"int256"},{"name":"","type":"bool","internalType":"bool"}],"outputs":[{"name":"nominal","type":"int256","internalType":"int256"}],"stateMutability":"pure"},{"type":"function","name":"toNominal","inputs":[{"name":"","type":"address","internalType":"address"},{"name":"real","type":"uint256","internalType":"uint256"},{"name":"","type":"bool","internalType":"bool"}],"outputs":[{"name":"nominal","type":"uint256","internalType":"uint256"}],"stateMutability":"pure"},{"type":"function","name":"toReal","inputs":[{"name":"","type":"address","internalType":"address"},{"name":"nominal","type":"uint256","internalType":"uint256"},{"name":"","type":"bool","internalType":"bool"}],"outputs":[{"name":"real","type":"uint256","internalType":"uint256"}],"stateMutability":"pure"},{"type":"function","name":"toReal","inputs":[{"name":"","type":"address","internalType":"address"},{"name":"nominal","type":"int256","internalType":"int256"},{"name":"","type":"bool","internalType":"bool"}],"outputs":[{"name":"real","type":"int256","internalType":"int256"}],"stateMutability":"pure"}],"bytecode":{"object":"0x6080806040523460145760fc90816100198239f35b5f80fdfe608060405260043610156010575f80fd5b5f3560e01c806307215aac1460655780636216c039146065578063814eaa8c146065578063e85179cc1460655763ecac2c9c14604a575f80fd5b346061576020366003190112606157605f6069565b005b5f80fd5b60ae565b600435906001600160a01b0382168203606157565b60609060031901126061576004356001600160a01b03811681036061579060243590604435801515810360615790565b34606157602060bb36607e565b509050604051908152f3fea2646970667358221220ec6664462ff30c0c16e7d5729e49eb16bf03f9a218437fa2400b0611a28f938964736f6c634300081c0033","linkReferences":{}},"methodIdentifiers":{"cacheAdjustment(address)":"ecac2c9c","toNominal(address,int256,bool)":"814eaa8c","toNominal(address,uint256,bool)":"e85179cc","toReal(address,int256,bool)":"6216c039","toReal(address,uint256,bool)":"07215aac"},"id":69}