{"abi":[{"type":"function","name":"SHIFT1","inputs":[],"outputs":[{"name":"","type":"uint256","internalType":"uint256"}],"stateMutability":"view"},{"type":"function","name":"SHIFT128","inputs":[],"outputs":[{"name":"","type":"uint256","internalType":"uint256"}],"stateMutability":"view"},{"type":"function","name":"SHIFT16","inputs":[],"outputs":[{"name":"","type":"uint256","internalType":"uint256"}],"stateMutability":"view"},{"type":"function","name":"SHIFT2","inputs":[],"outputs":[{"name":"","type":"uint256","internalType":"uint256"}],"stateMutability":"view"},{"type":"function","name":"SHIFT32","inputs":[],"outputs":[{"name":"","type":"uint256","internalType":"uint256"}],"stateMutability":"view"},{"type":"function","name":"SHIFT4","inputs":[],"outputs":[{"name":"","type":"uint256","internalType":"uint256"}],"stateMutability":"view"},{"type":"function","name":"SHIFT64","inputs":[],"outputs":[{"name":"","type":"uint256","internalType":"uint256"}],"stateMutability":"view"},{"type":"function","name":"SHIFT8","inputs":[],"outputs":[{"name":"","type":"uint256","internalType":"uint256"}],"stateMutability":"view"}],"bytecode":{"object":"0x60808060405234601957610186908161001e823930815050f35b5f80fdfe6080806040526004361015610012575f80fd5b5f3560e01c90816308c208d41461013c5750806360d078421461011757806373054835146100fa5780637b112d48146100e457806389755778146100ce5780638afed7e8146100b5578063de9bd4541461009e5763f3c8bc1f14610074575f80fd5b5f36600319011261009a5760206040516fffffffffffffffffffffffffffffffff198152f35b5f80fd5b5f36600319011261009a57602060405161ff008152f35b5f36600319011261009a57602060405163ffff00008152f35b5f36600319011261009a57602060405160f08152f35b5f36600319011261009a576020604051600c8152f35b5f36600319011261009a57602060405167ffffffff000000008152f35b5f36600319011261009a5760206040516fffffffffffffffff00000000000000008152f35b5f36600319011261009a5780600260209252f3fea26469706673582212201def2e5ab3625d978baec8803f9ba35dcff9a2c8204d59529ee95edc85996f3a64736f6c634300081c0033","linkReferences":{}},"methodIdentifiers":{"SHIFT1()":"08c208d4","SHIFT128()":"f3c8bc1f","SHIFT16()":"8afed7e8","SHIFT2()":"7b112d48","SHIFT32()":"73054835","SHIFT4()":"89755778","SHIFT64()":"60d07842","SHIFT8()":"de9bd454"},"id":14}