{"abi":[{"type":"function","name":"addSingleForValue","inputs":[{"name":"recipient","type":"address","internalType":"address"},{"name":"_closureId","type":"uint16","internalType":"uint16"},{"name":"token","type":"address","internalType":"address"},{"name":"amount","type":"uint128","internalType":"uint128"},{"name":"bgtPercentX256","type":"uint256","internalType":"uint256"},{"name":"minValue","type":"uint128","internalType":"uint128"}],"outputs":[{"name":"valueReceived","type":"uint256","internalType":"uint256"}],"stateMutability":"nonpayable"},{"type":"function","name":"addValue","inputs":[{"name":"recipient","type":"address","internalType":"address"},{"name":"_closureId","type":"uint16","internalType":"uint16"},{"name":"value","type":"uint128","internalType":"uint128"},{"name":"bgtValue","type":"uint128","internalType":"uint128"}],"outputs":[{"name":"requiredBalances","type":"uint256[16]","internalType":"uint256[16]"}],"stateMutability":"nonpayable"},{"type":"function","name":"addValueSingle","inputs":[{"name":"recipient","type":"address","internalType":"address"},{"name":"_closureId","type":"uint16","internalType":"uint16"},{"name":"value","type":"uint128","internalType":"uint128"},{"name":"bgtValue","type":"uint128","internalType":"uint128"},{"name":"token","type":"address","internalType":"address"},{"name":"maxRequired","type":"uint128","internalType":"uint128"}],"outputs":[{"name":"requiredBalance","type":"uint256","internalType":"uint256"}],"stateMutability":"nonpayable"},{"type":"function","name":"collectEarnings","inputs":[{"name":"recipient","type":"address","internalType":"address"},{"name":"closureId","type":"uint16","internalType":"uint16"}],"outputs":[{"name":"collectedBalances","type":"uint256[16]","internalType":"uint256[16]"},{"name":"collectedBgt","type":"uint256","internalType":"uint256"}],"stateMutability":"nonpayable"},{"type":"function","name":"queryValue","inputs":[{"name":"owner","type":"address","internalType":"address"},{"name":"closureId","type":"uint16","internalType":"uint16"}],"outputs":[{"name":"value","type":"uint256","internalType":"uint256"},{"name":"bgtValue","type":"uint256","internalType":"uint256"},{"name":"earnings","type":"uint256[16]","internalType":"uint256[16]"},{"name":"bgtEarnings","type":"uint256","internalType":"uint256"}],"stateMutability":"view"},{"type":"function","name":"removeSingleForValue","inputs":[{"name":"recipient","type":"address","internalType":"address"},{"name":"_closureId","type":"uint16","internalType":"uint16"},{"name":"token","type":"address","internalType":"address"},{"name":"amount","type":"uint128","internalType":"uint128"},{"name":"bgtPercentX256","type":"uint256","internalType":"uint256"},{"name":"maxValue","type":"uint128","internalType":"uint128"}],"outputs":[{"name":"valueGiven","type":"uint256","internalType":"uint256"}],"stateMutability":"nonpayable"},{"type":"function","name":"removeValue","inputs":[{"name":"recipient","type":"address","internalType":"address"},{"name":"_closureId","type":"uint16","internalType":"uint16"},{"name":"value","type":"uint128","internalType":"uint128"},{"name":"bgtValue","type":"uint128","internalType":"uint128"}],"outputs":[{"name":"receivedBalances","type":"uint256[16]","internalType":"uint256[16]"}],"stateMutability":"nonpayable"},{"type":"function","name":"removeValueSingle","inputs":[{"name":"recipient","type":"address","internalType":"address"},{"name":"_closureId","type":"uint16","internalType":"uint16"},{"name":"value","type":"uint128","internalType":"uint128"},{"name":"bgtValue","type":"uint128","internalType":"uint128"},{"name":"token","type":"address","internalType":"address"},{"name":"minReceive","type":"uint128","internalType":"uint128"}],"outputs":[{"name":"removedBalance","type":"uint256","internalType":"uint256"}],"stateMutability":"nonpayable"},{"type":"event","name":"AddValue","inputs":[{"name":"recipient","type":"address","indexed":true,"internalType":"address"},{"name":"closureId","type":"uint16","indexed":true,"internalType":"uint16"},{"name":"amounts","type":"uint128[]","indexed":false,"internalType":"uint128[]"},{"name":"value","type":"uint256","indexed":false,"internalType":"uint256"}],"anonymous":false},{"type":"event","name":"InsufficientBalance","inputs":[{"name":"vid","type":"uint24","indexed":false,"internalType":"VertexId"},{"name":"cid","type":"uint16","indexed":false,"internalType":"ClosureId"},{"name":"targetReal","type":"uint256","indexed":false,"internalType":"uint256"},{"name":"realBalance","type":"uint256","indexed":false,"internalType":"uint256"}],"anonymous":false},{"type":"event","name":"RemoveValue","inputs":[{"name":"recipient","type":"address","indexed":true,"internalType":"address"},{"name":"closureId","type":"uint16","indexed":true,"internalType":"uint16"},{"name":"amounts","type":"uint256[]","indexed":false,"internalType":"uint256[]"},{"name":"value","type":"uint256","indexed":false,"internalType":"uint256"}],"anonymous":false},{"type":"error","name":"CannotRemoveWithLockedVertex","inputs":[{"name":"cid","type":"uint16","internalType":"ClosureId"}]},{"type":"error","name":"DeMinimisDeposit","inputs":[]},{"type":"error","name":"EmptyClosure","inputs":[{"name":"","type":"uint16","internalType":"ClosureId"}]},{"type":"error","name":"InsufficientBgtValue","inputs":[{"name":"actual","type":"uint256","internalType":"uint256"},{"name":"required","type":"uint256","internalType":"uint256"}]},{"type":"error","name":"InsufficientNonBgtValue","inputs":[{"name":"value","type":"uint256","internalType":"uint256"},{"name":"bgtValue","type":"uint256","internalType":"uint256"}]},{"type":"error","name":"InsufficientValue","inputs":[{"name":"actual","type":"uint256","internalType":"uint256"},{"name":"required","type":"uint256","internalType":"uint256"}]},{"type":"error","name":"InsufficientValueForBgt","inputs":[{"name":"value","type":"uint256","internalType":"uint256"},{"name":"bgtValue","type":"uint256","internalType":"uint256"}]},{"type":"error","name":"IrrelevantVertex","inputs":[{"name":"cid","type":"uint16","internalType":"ClosureId"},{"name":"vid","type":"uint24","internalType":"VertexId"}]},{"type":"error","name":"PastSlippageBounds","inputs":[]},{"type":"error","name":"ReentrancyGuardReentrantCall","inputs":[]},{"type":"error","name":"SafeERC20FailedOperation","inputs":[{"name":"token","type":"address","internalType":"address"}]},{"type":"error","name":"TSolutionNotFound","inputs":[{"name":"tX128","type":"uint256","internalType":"uint256"},{"name":"ftX128","type":"int256","internalType":"int256"},{"name":"esX128","type":"uint256[]","internalType":"uint256[]"},{"name":"xs","type":"uint256[]","internalType":"uint256[]"}]},{"type":"error","name":"TokenBalanceOutOfBounds","inputs":[{"name":"cid","type":"uint16","internalType":"ClosureId"},{"name":"idx","type":"uint8","internalType":"uint8"},{"name":"attemptedBalance","type":"uint256","internalType":"uint256"},{"name":"minBalance","type":"uint256","internalType":"uint256"},{"name":"maxBalance","type":"uint256","internalType":"uint256"}]},{"type":"error","name":"TokenNotFound","inputs":[{"name":"token","type":"address","internalType":"address"}]},{"type":"error","name":"UninitializedClosure","inputs":[{"name":"","type":"uint16","internalType":"ClosureId"}]},{"type":"error","name":"UninitializedVertex","inputs":[{"name":"","type":"uint24","internalType":"VertexId"}]},{"type":"error","name":"VaultNotFound","inputs":[{"name":"","type":"address","internalType":"address"}]},{"type":"error","name":"VaultTypeUnrecognized","inputs":[{"name":"","type":"uint8","internalType":"enum VaultType"}]},{"type":"error","name":"VertexLocked","inputs":[{"name":"vid","type":"uint24","internalType":"VertexId"}]},{"type":"error","name":"XTooSmall","inputs":[{"name":"requestedX","type":"uint256","internalType":"uint256"},{"name":"minimumX","type":"uint256","internalType":"uint256"}]}],"bytecode":{"object":"0x6080806040523460155761452f908161001a8239f35b5f80fdfe60806040526004361015610011575f80fd5b5f3560e01c806317793e391461009457806326ac7eb31461008f578063393613311461008a578063837b41501461008557806399cb9828146100805780639bbcbc921461007b578063a7f62e10146100765763a98da14214610071575f80fd5b610ee8565b610cd9565b610bc7565b610a23565b6108d1565b6105f2565b6102df565b346101d65760403660031901126101d6576100e06100b06101da565b61ffff6100bb610204565b6100c36111ca565b50166100d66100d18261138b565b611457565b94919290936115b6565b94919590936100ef8785611221565b935f5b60ff81168960108210156101ac57918160ff93828b8b8a8a61011660019985611242565b5161012a575b5050505050505001166100f2565b61019f9561017888809461018e61017e610188986101788561016c998d6101989f8361016c61015b61017293611719565b6101658386611242565b5190611783565b92611242565b52611242565b516117e4565b610188848b611242565b51611288565b610172838a611242565b918b611242565b528b8b828b8b8a8a61011c565b836101d28a6101c58d6101bf868d6117e4565b90611288565b906040519485948561023c565b0390f35b5f80fd5b600435906001600160a01b03821682036101d657565b35906001600160a01b03821682036101d657565b6024359061ffff821682036101d657565b905f905b6010821061022657505050565b6020806001928551815201930191019091610219565b9094939261025f9061024093610260840197845260208401526040830190610215565b0152565b35906001600160801b03821682036101d657565b60c09060031901126101d6576004356001600160a01b03811681036101d6579060243561ffff811681036101d657906044356001600160a01b03811681036101d657906064356001600160801b03811681036101d65790608435906102dc60a4610263565b90565b346101d65761ffff61046a6102f336610277565b9196909493610300611845565b169061030b8261138b565b80976001610318866118c5565b9361045c6001600160801b0361032c611295565b9416996103398b8a6119d5565b9c8d916103788961035061034c85612a66565b1590565b61036661035f865461ffff1690565b8092611aaf565b600882901c811661ffff161515611ace565b610381826121eb565b61046261039462ffffff8b165b60ff1690565b948461045661044f6104486103cf6103c86103b08c9b60801b90565b6103bd60028c015461120a565b808206151591040190565b9485611221565b9c61041f5f5160206144ba5f395f51905f52956104096103f360048d019d8e611425565b9190926104048385549060031b1c90565b611221565b82545f1960039390931b92831b1916911b179055565b6104398a6104328b5460ff9060101c1690565b9687612b69565b9d9099019c8d54998a92612cbf565b8097611221565b9160ff1690565b90611770565b60801c90565b9d8e60801b90565b61055b575b6105319c9b9a9997956101d29f938f90610527976104ca886104c361052c9f9d9861050c9b6001600160801b03966104b9926104ae6105069c8b612a52565b809c91505055611425565b90549060031b1c90565b908c612e1a565b60148a016104d9848254611221565b905560158a016104ea858254611221565b90556104f7831515611319565b1680610549575b508933611b15565b8a611d0b565b9361051684611d4f565b90610521868b611288565b91611dc2565b611de5565b611f8a565b6105396118a0565b6040519081529081906020820190565b61055590821115611320565b5f6104fe565b9d919297959061057289959d9c9b9a98969e611258565b9d9597999a9b9c945090959792919d61046f565b60c09060031901126101d6576004356001600160a01b03811681036101d6579060243561ffff811681036101d657906044356001600160801b03811681036101d657906064356001600160801b03811681036101d657906105e760846101f0565b906102dc60a4610263565b346101d65761060036610586565b92909361060b611845565b6001600160801b038216918215610856576001600160801b038416936106349184861115611336565b61ffff16916106428361138b565b9061064c866118c5565b9261065982828733611b15565b61066283612a66565b15835461ffff16908161067491611aaf565b84600881901c821661ffff1615159161068c92611ace565b610695836121eb565b825460101c60ff16916001840180548060ff8616906106b391611770565b6106bd9085613221565b6106c69061120a565b946106d18560801b90565b9060ff166106de91611448565b6106e791611221565b815560ff8616936106f66111bb565b908152602081019461070b90869060ff169052565b60408101905f825261071d90876132c0565b9081865161072b9060ff1690565b6107389060048a01611425565b9054610748929160031b1c611221565b9286516107559060ff1690565b61075e906134be565b90549161076c8483856134da565b905161077791611221565b9061078192613622565b908161078c91611221565b945160ff169061079c9187612e1a565b60028501546107ab90856117f9565b93846107b691611221565b6107bf91611288565b9160148501908154906107d191611221565b905560158401908154906107e491611221565b90556107f08188612045565b94856107fb86611d4f565b9161080592611dc2565b61080e91611be9565b809261081992611de5565b61082291611221565b926001600160801b0384921682101561083a90611320565b61084392611f8a565b61084b6118a0565b604051908152602090f35b631d7ceb4b60e01b5f5260045ffd5b60809060031901126101d6576004356001600160a01b03811681036101d6579060243561ffff811681036101d657906044356001600160801b03811681036101d657906064356001600160801b03811681036101d65790565b610200810192916108cf9190610215565b565b346101d6576108df36610865565b9290916108ea6111e0565b926108f3611845565b6001600160801b0381169485156108565761093f92610923826001600160801b0361ffff94169489861115611336565b169461092e8661138b565b61093a83838933611b15565b6120dc565b905f5160206144da5f395f51905f52915f5b60ff811660108110156109f457818460019261097e61034c60ff968c600160ff61ffff93161b1616151590565b6109ed576109e6916109ca916109ac610997868c611361565b905460039190911b1c6001600160a01b031690565b906109c16109ba828b611242565b5183612045565b9384918d611242565b5261052c838d6109e16109dc89611719565b611d4f565b611dc2565b0116610951565b50506109e6565b6101d286610a006118a0565b604051918291826108be565b610200909392919361025f81610220810196610215565b346101d65760403660031901126101d657610a3c6101da565b610a44610204565b90610a7561ffff610a536111ca565b9316610a66610a618261138b565b6121eb565b610a6e6111ca565b5033612317565b92909183610b1d575b5f5160206144da5f395f51905f52935f5b60ff81166010811015610b0e578160ff9282868a898b610ab160019882611242565b51610ac4575b5050505050500116610a8f565b85610afc93610af593610aef8861016c61099796610ae88361016c610b039f611719565b51906123b6565b52611361565b928a611242565b5191611f8a565b805f868a898b610ab7565b604051806101d2858883610a0c565b7f499202b3cbbc90b72fe65bc477c8a608e23616c82a95bd757f890e1b3173e8b754610b5f90610b53906001600160a01b031681565b6001600160a01b031690565b803b156101d65760405163f3fef3a360e01b81526001600160a01b038316600482015260248101869052905f908290604490829084905af18015610bc257610ba8575b50610a7e565b80610bb65f610bbc93611199565b80611376565b5f610ba2565b611380565b346101d657610bd536610865565b9192610bdf6111e0565b92610be8611845565b6001600160801b03831694851561085657610c14826001600160801b0361ffff94169588871115611336565b1690610c298386610c248561138b565b6124b2565b5f5160206144da5f395f51905f52935f5b60ff81166010811015610cc15760ff91600191818961ffff82871686901b8b161615610cb957610cb292610c77610997610c9694610ca094611361565b8d610c8c610c85848d611242565b5183612090565b9485938492611242565b52309033906125b9565b88610cad6109dc85611719565b612677565b0116610c3a565b505050610cb2565b6101d288610cd1858c8a8a6126a8565b610a006118a0565b346101d657610ce736610277565b94939091610cf3611845565b610d0061ffff831661138b565b610d09856118c5565b908190610d216001600160801b03851630338a6125b9565b610d29611295565b966001600160801b038516610d3d91611a64565b988154610d4b9061ffff1690565b83600881901c821661ffff16151591610d6392611ace565b610d6c826121eb565b600282015460ff84169a90610d8190826117f9565b91610d8c8383611221565b5f5160206144ba5f395f51905f5290610da88e60048801611425565b815491929091600383901b1c90610dbe91611288565b82545f1960039390931b92831b1916911b179055845460101c60ff169060048601610de99183612b69565b9b60018701549c610dfb928e92612cbf565b9a610e06908c611221565b9060ff16610e1391611770565b60801c9b8c99610e23908b612a52565b600187019c909c5550610e398160048701611425565b905460039190911b1c610e4c9186612e1a565b6014840189815490610e5d91611288565b9055601584018a815490610e7091611288565b9055610e7d891515611319565b6001600160801b0316881015610e9290611320565b610ea5916001600160801b038716611d0b565b8093610eb092611de5565b610eb990611d4f565b916001600160801b031690610ecd91611221565b61ffff8316610edb92612677565b61ffff16610843936126a8565b346101d657610ef636610586565b9291610f03949194611845565b6001600160801b03831691821561085657610f2f826001600160801b0361ffff94169585871115611336565b16610f398161138b565b95610f43866118c5565b968795610f5687610366845461ffff1690565b610f5f826121eb565b8154849060101c60ff16988960ff610f91610f8c610f866001890194855494859116611770565b8b613221565b611266565b9b610fb9610fa9610fa28c60801b90565b9260ff1690565b610fb38184611448565b926124a8565b1561115c5760ff60015b16610fcd91611288565b610fd691611288565b815560ff8a169a610fe56111bb565b908152602081019b610ffa908d9060ff169052565b60408101905f825261100c90876133c9565b908c516110199060ff1690565b6110269060048901611425565b90546110369160031b1c83611221565b928d516110439060ff1690565b61104c906134be565b90549161105a8483856134da565b905161106591611288565b9061106f92613622565b9061107a9082611221565b9b5160ff169061108a9187612e1a565b6110948b60801b90565b60028601546110a29061120a565b80820491061515019a6110b5908c611221565b9a6110bf91611288565b9060148501888154906110d191611288565b905560158501898154906110e491611288565b90556110f08282612090565b9a8b926110fd9184611d0b565b9b6001600160801b038d95168015159d6105319c6101d29f9861052761113f97611138976109dc966111459d61114a575b50309033906125b9565b928a611221565b91612677565b6126a8565b61115690831115611320565b5f61112e565b60ff5f610fc3565b634e487b7160e01b5f52604160045260245ffd5b6060810190811067ffffffffffffffff82111761119457604052565b611164565b90601f8019910116810190811067ffffffffffffffff82111761119457604052565b604051906108cf606083611199565b604051906102006111db8184611199565b368337565b6040516102006111f08183611199565b36823790565b634e487b7160e01b5f52601160045260245ffd5b600160801b9081039190821161121c57565b6111f6565b9190820391821161121c57565b634e487b7160e01b5f52603260045260245ffd5b9060108110156112535760051b0190565b61122e565b906001820180921161121c57565b600160801b81019190821061121c57565b600160811b81019190821061121c57565b9190820180921161121c57565b604051906112a282611178565b7f499202b3cbbc90b72fe65bc477c8a608e23616c82a95bd757f890e1b3173e8e95460ff1682527f499202b3cbbc90b72fe65bc477c8a608e23616c82a95bd757f890e1b3173e8ea5460208301527f499202b3cbbc90b72fe65bc477c8a608e23616c82a95bd757f890e1b3173e8eb546040830152565b1561085657565b1561132757565b63d5ebabdb60e01b5f5260045ffd5b1561133f575050565b906001600160801b03809263da63a49f60e01b5f52166004521660245260445ffd5b8054821015611253575f5260205f2001905f90565b5f9103126101d657565b6040513d5f823e3d90fd5b61ffff169081156113e257815f527f499202b3cbbc90b72fe65bc477c8a608e23616c82a95bd757f890e1b3173e8fe60205260405f209161ffff835416156113d05750565b6347de056d60e11b5f5260045260245ffd5b5063bf392cf360e01b5f5260045260245ffd5b6010811015611253577f499202b3cbbc90b72fe65bc477c8a608e23616c82a95bd757f890e1b3173e8ee01905f90565b60108210156112535701905f90565b634e487b7160e01b5f52601260045260245ffd5b8115611452570490565b611434565b906114606111ca565b5f9261146a6111ca565b9160148201546015830154906114808282611221565b9061148a5f611719565b601060ff8216146115ac578284836114a4895461ffff1690565b89600886901c821661ffff166114c8575b50505050506114c3906126f4565b61148a565b6115169361151b93600496936114ff6114f96104b961150e966114f061038e8e62ffffff1690565b9b8c9101611425565b8961271c565b906115098a611d4f565b612786565b939060801b90565b611448565b9161152e60ff821693610188858b611242565b611538848a611242565b528661154b575b505084838592896114b5565b6115169b6101bf886115656114c397969561156d956127f4565b9f9060801b90565b9a868161157e575b5082935061153f565b61159261159c916115166115a39460801b90565b610188848d611242565b918a611242565b525f8086611575565b5050505093929050565b601092611600836115ef6115c86111ca565b6001600160a01b039095165f9081525f51602061447a5f395f51905f526020526040902090565b9061ffff165f5260205260405f2090565b92835461162661161460018701549361138b565b60268101549160276016830193920190565b9490966116338585611221565b915f946023830191600284019360128101975b60ff81169d8e10156116c85760018160109f6116c08f918f8f908f8f928f8f928f6104b98b6116af60ff9f806116a961016c9c6101bf6116bb9a6116bb6101bf9e6116b56104b9886116af6116b59f826116a96104b96104b99f6104b994611425565b9a611425565b93611425565b90611221565b6117e4565b520116611646565b50965097509950505050506101bf826116bb6102dc94976022603386015495015490611221565b60ff60089116019060ff821161121c57565b9062ffffff8091169116019062ffffff821161121c57565b61173b62ffffff9160ff83600182611730856116ef565b161b16911690611701565b1690565b600181901b91906001600160ff1b0381160361121c57565b908160801b91808304600160801b149015171561121c57565b8181029291811591840414171561121c57565b9060ff821691611792836113f5565b90549060031b1c156117dd576117cb916001600160801b036117be6117b96117c59461292c565b6129fb565b1690611770565b916113f5565b90549060031b1c908115611452570490565b5050505f90565b906117ee91612a52565b60801b9060801c0190565b9061180391612a52565b906001600160801b03811615156001169160801b9060801c010190565b9061182a91612a52565b916001600160801b0382161515169160801b9060801c010190565b7f9b779b17422d0df92223018b32b4d1fa46e071723d6817e2486d003becc55f005c6118915760017f9b779b17422d0df92223018b32b4d1fa46e071723d6817e2486d003becc55f005d565b633ee5aeb560e01b5f5260045ffd5b5f7f9b779b17422d0df92223018b32b4d1fa46e071723d6817e2486d003becc55f005d565b6001600160a01b0381165f8181527f499202b3cbbc90b72fe65bc477c8a608e23616c82a95bd757f890e1b3173e8ae602052604090205460ff16919082159081611959575b5061193d5750611930816119386119306119266102dc956116ef565b60ff600191161b90565b62ffffff1690565b611701565b63de6137d160e01b5f526001600160a01b031660045260245b5ffd5b5f5160206144da5f395f51905f52541591508115611979575b505f61190a565b90611253575f5160206144da5f395f51905f525f9081527fe1808cd437c343964b1a6c7cb8f4628e5dbe9d0f4ce70dbdd8d743451701e16c546001600160a01b0316919091141590611972565b908160209103126101d6575190565b5f51602061449a5f395f51905f5254604051633a145e7360e21b81526001600160a01b0392831660048201526024810193909352600160448401526020918391168180606481015b03916001600160a01b03165afa908115610bc2575f91611a3b575090565b6102dc915060203d602011611a5d575b611a558183611199565b8101906119c6565b503d611a4b565b5f51602061449a5f395f51905f5254604051633a145e7360e21b81526001600160a01b03928316600482015260248101939093525f6044840152602091839116818060648101611a1d565b15611ab75750565b61ffff9063064ce12f60e41b5f521660045260245ffd5b15611ad7575050565b9061ffff62ffffff926338de495760e11b5f52166004521660245260445ffd5b15611b00575050565b631c102d6360e21b5f5260045260245260445ffd5b90611b6591939293611b3582825f51602061447a5f395f51905f52612f27565b60018060a01b03165f525f51602061447a5f395f51905f5260205260405f209061ffff165f5260205260405f2090565b90611b74818481811015611af7565b8154611b84848280821115611af7565b6001830193845491828411611bbb570380935503809255818110611ba6575050565b632740736f60e01b5f5260045260245260445ffd5b5050637ed0f18d60e01b5f5260045260245260445ffd5b156101d657565b600160ff1b811461121c575f0390565b905f19825f09918215611c5e578190611c03848311611bd2565b5f099080611c1081611bd9565b168091046002816003021880820260020302808202600203028082026002030280820260020302808202600203028091026002030292600182805f03040190831515900302915f0304170290565b50611c6b91501515611bd2565b5f90565b5f19600160801b8209918160801b91828085109403938085039414611cf9578190611c9b858311611bd2565b600160801b900981611cac81611bd9565b168092046002816003021880820260020302808202600203028082026002030280820260020302808202600203028091026002030293600183805f03040190848311900302920304170290565b509150611d07821515611bd2565b0490565b90915f198383099280830292838086109503948086039514611d4057908291611d35868411611bd2565b0981611cac81611bd9565b50509150611d07821515611bd2565b62ffffff1690815f527f499202b3cbbc90b72fe65bc477c8a608e23616c82a95bd757f890e1b3173e8ff60205260405f209162ffffff83541615611d905750565b634f24b97560e01b5f5260045260245ffd5b15611daa5750565b62ffffff9063e8da114960e01b5f521660045260245ffd5b546108cf92611de091611dd99062ffffff1661292c565b928361303d565b6130aa565b90611e7a6108cf936016611e7361040994611e6d611e5f611e28611e0e61038e8562ffffff1690565b96611e1d60038c0154826117e4565b90610404828a6130c1565b5f9060158b0194888c875480611ed6575b505050611e5090611e4a8385611288565b906131d2565b9180611e90575b505060801b90565b916014890154905490611221565b90611448565b9401611425565b919092611e8b8385549060031b1c90565b611288565b8291611e6d82611ea6611eac94611ecf97611770565b92611288565b906104048c610409611e7a8c6027611e73611ec78960801b90565b8d5490611448565b5f80611e57565b611ec7955093611f289291611f216026611f17611f0f611f08611efd611e509a9b88611770565b601487015490611448565b80976130fd565b9a9060801b90565b9201918254611288565b9055611221565b919050888c5f611e39565b3d15611f6d573d9067ffffffffffffffff82116111945760405191611f62601f8201601f191660200184611199565b82523d5f602084013e565b606090565b908160209103126101d6575180151581036101d65790565b60405163a9059cbb60e01b602082019081526001600160a01b03909316602482015260448101939093525f928392908390611fd281606481015b03601f198101835282611199565b51925af1611fde611f33565b81612016575b5015611fec57565b60405162461bcd60e51b815260206004820152600260248201526114d560f21b6044820152606490fd5b805180159250821561202b575b50505f611fe4565b61203e9250602080918301019101611f72565b5f80612023565b5f51602061449a5f395f51905f52546040516301c856ab60e21b81526001600160a01b03928316600482015260248101939093525f6044840152602091839116818060648101611a1d565b5f51602061449a5f395f51905f52546040516301c856ab60e21b81526001600160a01b039283166004820152602481019390935260016044840152602091839116818060648101611a1d565b9291926120e76111ca565b936120f1826121eb565b815460101c60ff16926001830161212a81546116b561211c6121168360ff8b16611770565b8661329e565b97611e6d61044f8760801b90565b905561213b60148401918254611221565b905561214c60158301918254611221565b90555f5b60ff811660108110156121e557818381600193878a61218b61034c60ff9961217a885461ffff1690565b600160ff61ffff93161b1616151590565b6121db576104b96121cd946121c693610198936121c08761016c60046121d49c01946121ba6104b98888611425565b906117e4565b52611425565b5190611221565b8286612e1a565b0116612150565b50505050506121d4565b50505050565b60148101805491601581018054840393841161121c576101005b60ff811660101461231057825461223091908690600883901c811661ffff16612235575b50506126f4565b612205565b61229a61228a6115169361228260049461226261225c6104b98d60ff8c16998a9101611425565b8761271c565b61227661226e8a611d4f565b9261ffff1690565b908d54918c5493613e3a565b959060801b90565b610409611e7a8460168b01611425565b84546122a9575b879150612229565b6122c161150e6122b993836130fd565b865490611448565b6122d060268801918254611288565b905581156122a157610409611e7a6122ff6122f76122f161230996886131d2565b60801b90565b885490611448565b9260278901611425565b5f806122a1565b5050505050565b9061234a610200916040519261232d8185611199565b3684378293611b3582825f51602061447a5f395f51905f52612f27565b60238101925f5b60ff811660108110156123a4578160019161237f61237160ff958a611425565b90549060031b1c9188611242565b5261239d61238d8289611425565b8154905f199060031b1b19169055565b0116612351565b50509392506033915001905f82549255565b919060ff8316926123c6846113f5565b90549060031b1c156124a1576123db9061292c565b906123f76001600160801b036123f0846129fb565b1682611770565b612400856113f5565b90549060031b1c90811561145257049182946001600160801b036124255f84516137e4565b61242f8451613a89565b8282168110612497575b5016908185111561247c57612450825f8551613b2b565b602083015191850394851161121c5761247761040993611de06108cf975f6103f396613b2b565b6113f5565b6103f3915061247783611de06108cf975f6104099751613b2b565b829150165f612439565b505f925050565b8115611452570690565b9291926124bd6111ca565b936124c7826121eb565b815460101c60ff16926001830161251481546101bf6124f26124ec8360ff8b16611770565b86613221565b97612503610fa9610fa28860801b90565b156125b15760ff60015b1690611288565b905561252560148401918254611288565b905561253660158301918254611288565b90555f5b60ff811660108110156121e557818381600193878a61256461034c60ff9961217a885461ffff1690565b6125a7576104b96121cd9461259993610198936121c08761016c60046125a09c01946125936104b98888611425565b906117f9565b5190611288565b011661253a565b50505050506125a0565b60ff5f61250d565b6040516323b872dd60e01b602082019081526001600160a01b0393841660248301529390921660448301526064808301949094529281525f92839290918390612603608482611199565b51925af161260f611f33565b81612648575b501561261d57565b60405162461bcd60e51b815260206004820152600360248201526229aa2360e91b6044820152606490fd5b805180159250821561265d575b50505f612615565b6126709250602080918301019101611f72565b5f80612655565b6108cf926126a060ff61269b611de0945462ffffff811692839160181c1615611da2565b61292c565b928351613f4d565b906126c591611b3582825f51602061447a5f395f51905f52612f27565b6126d3838381811015611af7565b805491820180921161121c57600191815501805491820180921161121c5755565b600160ff8216019062ffffff821161121c5762ffffff9162fffe0061173b9260011b16611701565b5f51602061449a5f395f51905f5254611a1d926020926001926001600160a01b0316919061274990613693565b6040516301c856ab60e21b81526001600160a01b039091166004820152602481019190915291151560448301529092839190829081906064820190565b6001600160801b03916127a562ffffff6127aa9397969597541661292c565b612a35565b16928381116127d457830392831161121c576127c69183611d0b565b9081810390811161121c5791565b505050505f905f90565b91908260409103126101d6576020825192015190565b7f499202b3cbbc90b72fe65bc477c8a608e23616c82a95bd757f890e1b3173e8b7549192916001600160a01b03169081156128d6576128869161284b610b5361283e604094613693565b926001600160a01b031690565b825163b703098560e01b81526001600160a01b0390921660048301526001600160801b03861660248301529092839190829081906044820190565b03915afa8015610bc2576102dc915f905f926128a4575b5093611221565b90506128c8915060403d6040116128cf575b6128c08183611199565b8101906127de565b905f61289d565b503d6128b6565b50505f9190565b604051906128ea82611178565b815f81525f602082015260405190602082019082821067ffffffffffffffff83111761119457604082815291612921608082611199565b608036823783520152565b90604051916040830183811067ffffffffffffffff821117611194576040526129536128dd565b835262ffffff60208401916129666128dd565b83528082165f9081527f499202b3cbbc90b72fe65bc477c8a608e23616c82a95bd757f890e1b3173e8af602052604090205485906129ac906001600160a01b0316613706565b9052165f9081527f499202b3cbbc90b72fe65bc477c8a608e23616c82a95bd757f890e1b3173e8b060205260409020546001600160a01b0316806129ee575050565b6129f790613706565b9052565b6001600160801b0380612a2060015f6020612a188383895161383c565b96015161383c565b169116016001600160801b03811161121c5790565b906001600160801b03612a205f82936020612a188383895161383c565b91905f198184099202918280821091030390565b6101005b601060ff821614612ab0578154600882901c1661ffff16612a94575b612a8f906126f4565b612a6a565b60ff612a9f82611d4f565b5460181c1615612a86575050600190565b50505f90565b67ffffffffffffffff81116111945760051b60200190565b90612ad882612ab6565b612ae56040519182611199565b8281528092612af6601f1991612ab6565b0190602036910137565b80518210156112535760209160051b010190565b60ff1660ff811461121c5760010190565b15612b2c57565b60405162461bcd60e51b8152602060048201526015602482015274086d8dee6eae4ca40e6d2f4ca40dad2e6dac2e8c6d605b1b6044820152606490fd5b9192909160ff16612b7981612ace565b93612b8382612ace565b935f915f5b601060ff821610612ba4575050509060ff6108cf921614612b25565b612bae8183611425565b90549060031b1c612bc5575b60010160ff16612b88565b926001612c0760ff92612bdb6104b98887611425565b84821690612be9828d612b00565b52612c01612bfa6104b98a8a611425565b918d612b00565b52612b14565b94915050612bba565b81810292915f8212600160ff1b82141661121c57818405149015171561121c57565b90602080835192838152019201905f5b818110612c4f5750505090565b8251845260209384019390920191600101612c42565b93919392909215612c765750505050565b90612ca9612cbb92604051958695631442813960e01b875260048701526024860152608060448601526084850190612c32565b83810360031901606485015290612c32565b0390fd5b91905f925f95612cd56020830151855190612c10565b945f975b612ce761038e855160ff1690565b60ff8a161015612de95750612cfd8585896138bb565b9687612d0888611bd9565b131580612ddf575b612d2e576001612d2489888860ff9561391a565b9901169796612cd9565b959196929750506001965b8715612d4e575b5050836102dc949596612c65565b9096945f96925b612d6361038e845160ff1690565b60ff89161015612dcf5750612d798585836138bb565b9081612d848a611bd9565b131580612dc1575b612daa576001612da083888860ff9561391a565b9801169690612d55565b9650919650506102dc93508460015b969594612d40565b506040830151821315612d8c565b929750955050846102dc94612db9565b5086881315612d10565b9290975095949095612d39565b90612e0091612a52565b8091612e0a575090565b90506001810180911161121c5790565b90929190612e4b6104b9857f499202b3cbbc90b72fe65bc477c8a608e23616c82a95bd757f890e1b3173e8c9611425565b612e64612e5d60018401548093612df6565b91607f1c90565b908084108015612f1e575b8015612f11575b612ea55750506108cf92936004612e8d9201611425565b90919082549060031b91821b915f19901b1916179055565b83612cbb91612eb788955461ffff1690565b93600160601b811015612f0557915b604051958695632cb1f37160e01b875260048701919260ff608094979695929761ffff60a0860199168552166020840152604083015260608201520152565b50600160601b91612ec6565b50600160601b8411612e76565b50838210612e6f565b91612f556115ef91612f3b6116148261138b565b94919590969060018060a01b03165f5260205260405f2090565b90815492612f696001840194855490611221565b9160128401916002850190602386015f5b88601060ff831610612fb3575050505050505050612fae6033611f176022840194612fa6865488611221565b9054906117e4565b905555565b81613002612ff5886101bf600195612fa68d8f6104b9898f8f8260ff9f6116b5966116bb6116af956116b56104b9856116af6104b96116a9986104b99b611425565b610409611e7a8488611425565b61301c6130126104b98388611425565b612e8d8389611425565b61303661302c6104b9838a611425565b612e8d838b611425565b0116612f7a565b91906001600160801b036130528285516137e4565b61305c8551613a89565b82821681106130a0575b501692838311156130955780613080858460209451613b2b565b015192820391821161121c576108cf92613b2b565b6108cf935051613b2b565b829150165f613066565b60206108cf916130ba8151613bfd565b0151613bfd565b6010811015611253577f499202b3cbbc90b72fe65bc477c8a608e23616c82a95bd757f890e1b3173e8d90190815490810180911161121c579055565b7f499202b3cbbc90b72fe65bc477c8a608e23616c82a95bd757f890e1b3173e8b7805492939290919084906001600160a01b031680156131c957613171610b53610b535f966131646131ac96613154604099613693565b966001600160a01b038816613d10565b546001600160a01b031690565b8351637432795b60e11b81526001600160a01b0390921660048301526001600160801b03871660248301529093849283919082906044820190565b03925af18015610bc2576102dc915f905f926128a4575093611221565b505050505f9190565b91906131eb6108cf916131e48561292c565b9485613d4d565b926130aa565b156131f857565b60405162461bcd60e51b81526020600482015260016024820152600360fc1b6044820152606490fd5b61322c8183116131f1565b81600160801b8181840909801515928061324581611bd9565b16809104600281600302188082026002030280820260020302808202600203028082026002030280820260020302809102600203029284600183805f030401910302915f03041702906132955790565b6102dc90611258565b906132aa8282116131f1565b80600160801b81818509099080611c1081611bd9565b5f9291905f5160206144ba5f395f51905f5290845b60ff86169060108210156133c1576132f661034c8861217a865461ffff1690565b6133b457845161331160048501916125936104b98b85611425565b9261332361038e602089015160ff1690565b03613339575050600160ff91965b0116946132d5565b9660ff926001929861334e6104b98489611425565b9161335c6104b98584611425565b81101561339757905f916133819361337b6104b987898c015495611425565b92613de1565b61339060408801918251611288565b9052613331565b5f91613381936133ae6104b987898c015494611425565b91613de1565b9560ff9150600190613331565b955050505050565b5f9291905f5160206144ba5f395f51905f5290845b60ff86169060108210156133c1576133ff61034c8861217a865461ffff1690565b6134b157845161341a60048501916125936104b98b85611425565b9261342c61038e602089015160ff1690565b03613442575050600160ff91965b0116946133de565b9660ff92600192986134576104b98489611425565b916134656104b98584611425565b81101561349a579084916134849361337b6104b987868c015495611425565b61349360408801918251611288565b905261343a565b8491613484936133ae6104b987868c015494611425565b9560ff915060019061343a565b6010811015611253575f5160206144ba5f395f51905f52015490565b9291926134e85f8284611820565b906001600160ff1b038116810361121c578060011b82019182811161121c578560801b81810180911161121c5782820180921161121c576135299180611d0b565b9282841161353e5750506102dc929350611221565b906135498692611277565b8015611452576135599104611258565b9063164797ff60e11b5f5260045260245260445ffd5b9392909161357e828685611820565b6001600160ff1b038616860361121c578560011b81019283821161121c578260801b9082820180921161121c5787830180931161121c571561361257816135c492613e06565b925b8284116135da5750506102dc929350611221565b906135e58692611277565b91821561145257611956926135fa9104611258565b63164797ff60e11b5f52600491909152602452604490565b8161361c92611d0b565b926135c6565b9060018261363292959495611820565b928184019182851161121c576001600160ff1b038116810361121c5760011b84019081851161121c57810390811161121c5761366e9180613e06565b91820391821161121c578160801c809260801b6136885750565b6102dc919250611258565b5f5160206144da5f395f51905f5254811015611253575f5160206144da5f395f51905f525f527fe1808cd437c343964b1a6c7cb8f4628e5dbe9d0f4ce70dbdd8d743451701e16c01546001600160a01b031690565b600211156136f257565b634e487b7160e01b5f52602160045260245ffd5b9061370f6128dd565b9160018060a01b0381165f527f499202b3cbbc90b72fe65bc477c8a608e23616c82a95bd757f890e1b3173e8b160205260ff60405f20541660028110156136f257806001916020860152613762816136e8565b61376b816136e8565b036137b7576001600160a01b03165f9081527f499202b3cbbc90b72fe65bc477c8a608e23616c82a95bd757f890e1b3173e8b2602052604090206108cf90808452604084015190613fa0565b63c02219d960e01b5f526001600160a01b031660045260245ffd5b9060249160028110156136f257600452565b805115612ab05760208101805160028110156136f257806138066001926136e8565b0361381f57506102dc918160405f9351910151906140cc565b611956905161382d816136e8565b631dd8be1560e31b5f526137d2565b9291908351156124a1576020840193845160028110156136f257806138626001926136e8565b0361387a576102dc93945060408151910151906140cc565b611956855161382d816136e8565b9190915f838201938412911290801582169115161761121c57565b81810392915f13801582851316918412161761121c57565b905f928051915f915b8383106138e2575050506102dc92916138dc91611770565b906138a3565b90919461391160019161390b6138f88987612b00565b516139038a87612b00565b5190896134da565b90613888565b950191906138c4565b825190925f9283915b8383106139d457505050906138dc61393a92611757565b915f81135f84139080806139cd575b1561395d5750506102dc926116b591611c6f565b80806139c5575b156139815750506101bf9061397b6102dc94611bd9565b90611c6f565b1590816139bd575b50156139a4576102dc9261399f6101bf92611bd9565b611c6f565b6102dc9261397b6139b76116b593611bd9565b91611bd9565b90505f613989565b508115613964565b5081613949565b9091936139e18584612b00565b516139ec8684612b00565b51916139f88883612a52565b608091821c911b0192600160811b830180841161121c57608082901b936f7fffffffffffffffffffffffffffffff60801b8516850361121c578a613a8095613a7b613a7489613a6e6138dc966101bf83613a6860019f613a5e9061390b9e60811b611288565b996101bf8361173f565b926117e4565b93611288565b8093611c6f565b611d0b565b94019190613923565b805115613b265760208101805160028110156136f25780613aab6001926136e8565b0361381f5750516001015460405163ce96cb7760e01b815230600482015290602090829060249082906001600160a01b03165afa908115610bc2576102dc91613afb915f91613b07575b5061445e565b6001600160801b031690565b613b20915060203d602011611a5d57611a558183611199565b5f613af5565b505f90565b908151158015613bf5575b613bf05760208201805160028110156136f25780613b556001926136e8565b0361381f575060408251920151613b77602082510151606083510151906117e4565b9181515192830180931161121c57604082510151830392831161121c57613bbd906003613baa6004870195888754611d0b565b95019061ffff165f5260205260405f2090565b9182549284840393841161121c576129f794613be894613bdf92558254611221565b90555160400190565b918251611288565b505050565b508215613b36565b805115613c365760208101805160028110156136f25780613c1f6001926136e8565b0361381f57508060406108cf925191015190614167565b50565b60405163095ea7b360e01b60208083019182526001600160a01b03851660248401525f604484018190529293929091613c7f85606481015b03601f198101875286611199565b84519082855af15f51903d81613ce4575b501590505b613c9e57505050565b60405163095ea7b360e01b60208201526001600160a01b0390931660248401525f60448401526108cf92613cdf90613cd98160648101611fc4565b8261435d565b61435d565b15159050613d045750613c956001600160a01b0382163b15155b5f613c90565b6001613c959114613cfe565b60405163095ea7b360e01b60208281019182526001600160a01b03851660248401526044830195909552929390925f90613c7f8560648101613c71565b92919060ff6001600160801b03911693613d7183613d6a836129fb565b9251613eff565b1680613dc0575060648102908082046064149015171561121c575b613d9681936113f5565b819291548160031b1c91820180921161121c5782545f1960039290921b91821b191691901b179055565b90613ddb90613dce856113f5565b90549060031b1c90611770565b04613d8c565b9190613df285613dfa95838661356f565b94159261356f565b810390811161121c5790565b929190613e14828286611d0b565b9382156114525709613e2257565b905f198110156101d6575f19811461121c5760010190565b93909492919462ffffff85541692613e518461292c565b966001600160801b03613e64848a612a35565b1694858211613eb15750840393841161121c5762ffffff92613e8a85613e90948a61303d565b84611d0b565b93541683820391821161121c576108cf91613eab9186613d4d565b936130aa565b9493509160809597507f597e13956fe737c1742c99b18e6895b87dbf00726021c3575716b3d18ad0d808965061ffff915060405194855216602084015260408301526060820152a15f905f90565b8051158015613f45575b613f415760208101805160028110156136f25780613f286001926136e8565b0361381f5750905f8260406108cf9451910151906143b5565b5050565b508115613f09565b9291908351158015613f98575b613f92576020840193845160028110156136f25780613f7a6001926136e8565b0361387a576108cf93945060408151910151906143b5565b50509050565b508115613f5a565b90613fe060206002613fbe610b53600187015460018060a01b031690565b9401546040518093819263266d6a8360e11b8352600483019190602083019252565b0381865afa908115610bc2575f916140ad575b5081515260405163ef8b30f760e01b8152600160801b6004820152602081602481865afa8015610bc25761404c936020925f9261408e575b50604051808096819463266d6a8360e11b8352600483019190602083019252565b03915afa918215610bc2575f92614069575b505160600152565b52565b6140669192506140879060203d602011611a5d57611a558183611199565b919061405e565b6140a6919250833d8511611a5d57611a558183611199565b905f61402b565b6140c6915060203d602011611a5d57611a558183611199565b5f613ff3565b9092600482015491821561415e576140f08260208751015160608851015190611820565b9480515195860180961161121c57516102dc9561410f916040016121c6565b911561413c5761413793600361413192019061ffff165f5260205260405f2090565b54613e06565b61445e565b61413793600361415892019061ffff165f5260205260405f2090565b54611d0b565b50505050505f90565b9061417f614176825160200190565b51915160400190565b519181151580614354575b61432a575b811561427e5780545f935060209061420c906001600160a01b0316936141cd8160018601966141c7610b53895460018060a01b031690565b90613d10565b84546141e1906001600160a01b0316610b53565b604051636e553f6560e01b815260048101929092523060248301529095869283919082906044820190565b03925af18015610bc25761424b61425992610b53926108cf965f9161425f575b5061423c60028301918254611288565b9055546001600160a01b031690565b92546001600160a01b031690565b90613c39565b614278915060203d602011611a5d57611a558183611199565b5f61422c565b905081614289575050565b60018101545f926020916142dc91906142aa906001600160a01b0316610b53565b604051632d182be560e21b81526004810192909252306024830181905260448301529094859283919082906064820190565b03925af1918215610bc2575f92614302575b5060026142fe9101918254611221565b9055565b6142fe91925061432260029160203d602011611a5d57611a558183611199565b9291506142ee565b919081811115614345579061433e91611221565b5f9161418f565b811115613f41575f909161418f565b5082151561418a565b905f602091828151910182855af115611380575f513d6143ac57506001600160a01b0381163b155b61438c5750565b635274afe760e01b5f9081526001600160a01b0391909116600452602490fd5b60011415614385565b906129f7926144426004613be89461442c6143f96143ef6143e76020895101516143e08a5160600190565b51906117f9565b885151611288565b87516040016121c6565b61440e614407885160600190565b518b6117e4565b908061444b5750945b600383019061ffff165f5260205260405f2090565b614437858254611288565b905501918254611288565b90555160200190565b6144589185850154611d0b565b94614417565b6001600160801b03811115613afb57506001600160801b039056fe499202b3cbbc90b72fe65bc477c8a608e23616c82a95bd757f890e1b3173e8ac499202b3cbbc90b72fe65bc477c8a608e23616c82a95bd757f890e1b3173e8b6499202b3cbbc90b72fe65bc477c8a608e23616c82a95bd757f890e1b3173e8b9499202b3cbbc90b72fe65bc477c8a608e23616c82a95bd757f890e1b3173e8ada2646970667358221220359de41d50b9a38f755f6d2b460b1e2b972f6865e7586db10fbd50a83a4e285564736f6c634300081c0033","linkReferences":{}},"methodIdentifiers":{"addSingleForValue(address,uint16,address,uint128,uint256,uint128)":"a7f62e10","addValue(address,uint16,uint128,uint128)":"9bbcbc92","addValueSingle(address,uint16,uint128,uint128,address,uint128)":"a98da142","collectEarnings(address,uint16)":"99cb9828","queryValue(address,uint16)":"17793e39","removeSingleForValue(address,uint16,address,uint128,uint256,uint128)":"26ac7eb3","removeValue(address,uint16,uint128,uint128)":"837b4150","removeValueSingle(address,uint16,uint128,uint128,address,uint128)":"39361331"},"id":82}