{"abi":[{"type":"function","name":"addClosure","inputs":[{"name":"_cid","type":"uint16","internalType":"uint16"},{"name":"startingTarget","type":"uint128","internalType":"uint128"},{"name":"baseFeeX128","type":"uint128","internalType":"uint128"},{"name":"protocolTakeX128","type":"uint128","internalType":"uint128"}],"outputs":[],"stateMutability":"nonpayable"},{"type":"function","name":"addVertex","inputs":[{"name":"token","type":"address","internalType":"address"},{"name":"vault","type":"address","internalType":"address"},{"name":"vType","type":"uint8","internalType":"enum VaultType"}],"outputs":[],"stateMutability":"nonpayable"},{"type":"function","name":"getAdjustor","inputs":[],"outputs":[{"name":"","type":"address","internalType":"address"}],"stateMutability":"view"},{"type":"function","name":"getBGTExchanger","inputs":[],"outputs":[{"name":"","type":"address","internalType":"address"}],"stateMutability":"view"},{"type":"function","name":"getClosureFees","inputs":[{"name":"closureId","type":"uint16","internalType":"uint16"}],"outputs":[{"name":"baseFeeX128","type":"uint256","internalType":"uint256"},{"name":"protocolTakeX128","type":"uint256","internalType":"uint256"},{"name":"earningsPerValueX128","type":"uint256[16]","internalType":"uint256[16]"},{"name":"bgtPerBgtValueX128","type":"uint256","internalType":"uint256"},{"name":"unexchangedPerBgtValueX128","type":"uint256[16]","internalType":"uint256[16]"}],"stateMutability":"view"},{"type":"function","name":"getClosureValue","inputs":[{"name":"closureId","type":"uint16","internalType":"uint16"}],"outputs":[{"name":"n","type":"uint8","internalType":"uint8"},{"name":"targetX128","type":"uint256","internalType":"uint256"},{"name":"balances","type":"uint256[16]","internalType":"uint256[16]"},{"name":"valueStaked","type":"uint256","internalType":"uint256"},{"name":"bgtValueStaked","type":"uint256","internalType":"uint256"}],"stateMutability":"view"},{"type":"function","name":"getEX128","inputs":[{"name":"token","type":"address","internalType":"address"}],"outputs":[{"name":"","type":"uint256","internalType":"uint256"}],"stateMutability":"view"},{"type":"function","name":"getEsX128","inputs":[],"outputs":[{"name":"","type":"uint256[16]","internalType":"uint256[16]"}],"stateMutability":"view"},{"type":"function","name":"getIdx","inputs":[{"name":"token","type":"address","internalType":"address"}],"outputs":[{"name":"","type":"uint8","internalType":"uint8"}],"stateMutability":"view"},{"type":"function","name":"getInitTarget","inputs":[],"outputs":[{"name":"","type":"uint256","internalType":"uint256"}],"stateMutability":"view"},{"type":"function","name":"getName","inputs":[],"outputs":[{"name":"name","type":"string","internalType":"string"},{"name":"symbol","type":"string","internalType":"string"}],"stateMutability":"view"},{"type":"function","name":"getNumVertices","inputs":[],"outputs":[{"name":"","type":"uint8","internalType":"uint8"}],"stateMutability":"view"},{"type":"function","name":"getSearchParams","inputs":[],"outputs":[{"name":"params","type":"tuple","internalType":"struct SearchParams","components":[{"name":"maxIter","type":"uint8","internalType":"uint8"},{"name":"deMinimusX128","type":"int256","internalType":"int256"},{"name":"targetSlippageX128","type":"int256","internalType":"int256"}]}],"stateMutability":"view"},{"type":"function","name":"getTokens","inputs":[],"outputs":[{"name":"","type":"address[]","internalType":"address[]"}],"stateMutability":"view"},{"type":"function","name":"getVertexId","inputs":[{"name":"token","type":"address","internalType":"address"}],"outputs":[{"name":"","type":"uint24","internalType":"uint24"}],"stateMutability":"view"},{"type":"function","name":"protocolEarnings","inputs":[],"outputs":[{"name":"","type":"uint256[16]","internalType":"uint256[16]"}],"stateMutability":"view"},{"type":"function","name":"setAdjustor","inputs":[{"name":"adjustor","type":"address","internalType":"address"}],"outputs":[],"stateMutability":"nonpayable"},{"type":"function","name":"setBGTExchanger","inputs":[{"name":"bgtExchanger","type":"address","internalType":"address"}],"outputs":[],"stateMutability":"nonpayable"},{"type":"function","name":"setClosureFees","inputs":[{"name":"closureId","type":"uint16","internalType":"uint16"},{"name":"baseFeeX128","type":"uint128","internalType":"uint128"},{"name":"protocolTakeX128","type":"uint128","internalType":"uint128"}],"outputs":[],"stateMutability":"nonpayable"},{"type":"function","name":"setEX128","inputs":[{"name":"token","type":"address","internalType":"address"},{"name":"eX128","type":"uint256","internalType":"uint256"}],"outputs":[],"stateMutability":"nonpayable"},{"type":"function","name":"setInitTarget","inputs":[{"name":"initTarget","type":"uint256","internalType":"uint256"}],"outputs":[],"stateMutability":"nonpayable"},{"type":"function","name":"setName","inputs":[{"name":"newName","type":"string","internalType":"string"},{"name":"newSymbol","type":"string","internalType":"string"}],"outputs":[],"stateMutability":"nonpayable"},{"type":"function","name":"setSearchParams","inputs":[{"name":"params","type":"tuple","internalType":"struct SearchParams","components":[{"name":"maxIter","type":"uint8","internalType":"uint8"},{"name":"deMinimusX128","type":"int256","internalType":"int256"},{"name":"targetSlippageX128","type":"int256","internalType":"int256"}]}],"outputs":[],"stateMutability":"nonpayable"},{"type":"function","name":"withdraw","inputs":[{"name":"token","type":"address","internalType":"address"}],"outputs":[],"stateMutability":"nonpayable"},{"type":"event","name":"AdjustorChanged","inputs":[{"name":"admin","type":"address","indexed":true,"internalType":"address"},{"name":"fromAdjustor","type":"address","indexed":false,"internalType":"address"},{"name":"toAdjustor","type":"address","indexed":false,"internalType":"address"}],"anonymous":false},{"type":"event","name":"BGTExchangerChanged","inputs":[{"name":"admin","type":"address","indexed":true,"internalType":"address"},{"name":"fromExchanger","type":"address","indexed":true,"internalType":"address"},{"name":"toExchanger","type":"address","indexed":true,"internalType":"address"}],"anonymous":false},{"type":"event","name":"DefaultEdgeSet","inputs":[{"name":"amplitude","type":"uint128","indexed":false,"internalType":"uint128"},{"name":"lowTick","type":"int24","indexed":false,"internalType":"int24"},{"name":"highTick","type":"int24","indexed":false,"internalType":"int24"},{"name":"fee","type":"uint24","indexed":false,"internalType":"uint24"},{"name":"feeProtocol","type":"uint8","indexed":false,"internalType":"uint8"}],"anonymous":false},{"type":"event","name":"EfficiencyFactorChanged","inputs":[{"name":"admin","type":"address","indexed":true,"internalType":"address"},{"name":"token","type":"address","indexed":true,"internalType":"address"},{"name":"fromEsX128","type":"uint256","indexed":false,"internalType":"uint256"},{"name":"toEsX128","type":"uint256","indexed":false,"internalType":"uint256"}],"anonymous":false},{"type":"event","name":"FeesWithdrawn","inputs":[{"name":"token","type":"address","indexed":true,"internalType":"address"},{"name":"amount","type":"uint256","indexed":false,"internalType":"uint256"},{"name":"earned","type":"uint256","indexed":false,"internalType":"uint256"}],"anonymous":false},{"type":"event","name":"InitTargetChanged","inputs":[{"name":"admin","type":"address","indexed":true,"internalType":"address"},{"name":"fromInitTarget","type":"uint256","indexed":false,"internalType":"uint256"},{"name":"toInitTarget","type":"uint256","indexed":false,"internalType":"uint256"}],"anonymous":false},{"type":"event","name":"NewFees","inputs":[{"name":"closure","type":"uint16","indexed":false,"internalType":"uint16"},{"name":"baseFeeX128","type":"uint128","indexed":false,"internalType":"uint128"},{"name":"protocolTakeX128","type":"uint128","indexed":false,"internalType":"uint128"}],"anonymous":false},{"type":"event","name":"NewName","inputs":[{"name":"newName","type":"string","indexed":false,"internalType":"string"},{"name":"symbol","type":"string","indexed":false,"internalType":"string"}],"anonymous":false},{"type":"event","name":"SearchParamsChanged","inputs":[{"name":"admin","type":"address","indexed":true,"internalType":"address"},{"name":"maxIter","type":"uint8","indexed":false,"internalType":"uint8"},{"name":"deMinimusX128","type":"int256","indexed":false,"internalType":"int256"},{"name":"targetSlippageX128","type":"int256","indexed":false,"internalType":"int256"}],"anonymous":false},{"type":"event","name":"TokenRegistered","inputs":[{"name":"token","type":"address","indexed":false,"internalType":"address"}],"anonymous":false},{"type":"event","name":"VertexAdded","inputs":[{"name":"token","type":"address","indexed":true,"internalType":"address"},{"name":"vault","type":"address","indexed":true,"internalType":"address"},{"name":"vid","type":"uint24","indexed":false,"internalType":"VertexId"},{"name":"vaultType","type":"uint8","indexed":false,"internalType":"enum VaultType"}],"anonymous":false},{"type":"error","name":"AtTokenCapacity","inputs":[]},{"type":"error","name":"BGTExchangerIsZeroAddress","inputs":[]},{"type":"error","name":"EmptyClosure","inputs":[{"name":"","type":"uint16","internalType":"ClosureId"}]},{"type":"error","name":"InsufficientStartingTarget","inputs":[{"name":"startingTarget","type":"uint128","internalType":"uint128"},{"name":"initTarget","type":"uint256","internalType":"uint256"}]},{"type":"error","name":"NonPositiveDeMinimusX128","inputs":[{"name":"deMinimusX128","type":"int256","internalType":"int256"}]},{"type":"error","name":"NotOwner","inputs":[]},{"type":"error","name":"SafeERC20FailedOperation","inputs":[{"name":"token","type":"address","internalType":"address"}]},{"type":"error","name":"TokenAlreadyRegistered","inputs":[{"name":"token","type":"address","internalType":"address"}]},{"type":"error","name":"TokenNotFound","inputs":[{"name":"token","type":"address","internalType":"address"}]},{"type":"error","name":"UninitializedClosure","inputs":[{"name":"","type":"uint16","internalType":"ClosureId"}]},{"type":"error","name":"UninitializedVertex","inputs":[{"name":"","type":"uint24","internalType":"VertexId"}]},{"type":"error","name":"VaultExists","inputs":[{"name":"","type":"address","internalType":"address"}]},{"type":"error","name":"VaultNotFound","inputs":[{"name":"","type":"address","internalType":"address"}]},{"type":"error","name":"VaultTypeNotRecognized","inputs":[{"name":"","type":"uint8","internalType":"enum VaultType"}]},{"type":"error","name":"VaultTypeUnrecognized","inputs":[{"name":"","type":"uint8","internalType":"enum VaultType"}]},{"type":"error","name":"VertexLocked","inputs":[{"name":"vid","type":"uint24","internalType":"VertexId"}]},{"type":"error","name":"VertexVaultsOccupied","inputs":[{"name":"","type":"uint24","internalType":"VertexId"}]}],"bytecode":{"object":"0x60808060405234601557612fa4908161001a8239f35b5f80fdfe60806040526004361015610011575f80fd5b5f3560e01c806303966fec146101945780630427fc5a1461018f5780630a5dd1ff1461018a57806317d7de7c1461018557806320fd72b51461018057806326f9bd041461017b5780633bb9ebd81461017657806351cff8d91461017157806359055b9b1461016c5780635c707f07146101675780636097af89146101625780636ed7a2c31461015d5780637be53e4e1461015857806385cf067b146101535780639d5d78071461014e578063a597404e14610149578063aa6ca80814610144578063ab4d0c331461013f578063abea37b91461013a578063bce5b6e914610135578063cfbabc7914610130578063d723365a1461012b578063e23b21be146101265763f80e073a14610121575f80fd5b6113bf565b6112db565b61124a565b61121a565b6111f1565b61116c565b6110d6565b611071565b611035565b611009565b610f59565b610ddd565b610da9565b610c1d565b6109f3565b610931565b6107f9565b610737565b6105e7565b6105b3565b6104a0565b610350565b610316565b6101c9565b600435906001600160a01b03821682036101af57565b5f80fd5b602435906001600160a01b03821682036101af57565b346101af5760203660031901126101af576101e2610199565b6101ea611a54565b5f516020612ecf5f395f51905f5254604080516001600160a01b039283168152918316602083015233917f2b8090800a05694c2027630a0eb059a06518355179a23dabf54b6100d487c4e69190a25f516020612ecf5f395f51905f5280546001600160a01b0319166001600160a01b0383161790556102755f516020612f4f5f395f51905f5261151d565b6001600160a01b03909116905f5b815160ff8216908110156103145761029e6102ab91846115a7565b516001600160a01b031690565b90833b156101af57604051633b2b0b2760e21b81526001600160a01b039290921660048301525f8260248183885af191821561030f576102f0926102f5575b50611582565b610283565b806103035f61030993611492565b80610472565b5f6102ea565b6115c0565b005b346101af5760203660031901126101af57602061034161033c610337610199565b611a96565b6119a4565b90549060031b1c604051908152f35b346101af5760603660031901126101af57610369611a54565b6024355f8113156104605760ff61037e6115cb565b1660ff197f499202b3cbbc90b72fe65bc477c8a608e23616c82a95bd757f890e1b3173e8e95416177f499202b3cbbc90b72fe65bc477c8a608e23616c82a95bd757f890e1b3173e8e955807f499202b3cbbc90b72fe65bc477c8a608e23616c82a95bd757f890e1b3173e8ea557fbf997061cd95400935a2f0ca0ade32136d0298ffa3805ebc75f116e464a9ac7e61041560443590565b807f499202b3cbbc90b72fe65bc477c8a608e23616c82a95bd757f890e1b3173e8eb556104406115cb565b6040805160ff9290921682526020820194909452928301523391606090a2005b63039283ad60e01b5f5260045260245ffd5b5f9103126101af57565b805180835260209291819084018484015e5f828201840152601f01601f1916010190565b346101af575f3660031901126101af576040515f5f516020612f0f5f395f51905f52546104cc816115db565b808452906001811690811561058f5750600114610525575b610513836104f481850382611492565b6105216104ff611613565b60405193849360408552604085019061047c565b90838203602085015261047c565b0390f35b5f516020612f0f5f395f51905f525f9081527f82c1836e43255d17fd13ea8c81623b852ea777ea8956c6eb7dc855b6a73a1e83939250905b808210610575575090915081016020016104f46104e4565b91926001816020925483858801015201910190929161055d565b60ff191660208086019190915291151560051b840190910191506104f490506104e4565b346101af575f3660031901126101af575f516020612eef5f395f51905f52546040516001600160a01b039091168152602090f35b346101af5760603660031901126101af57610600610199565b6106086101b3565b60443560028110156101af5761061c611a54565b61062583611bb3565b505f516020612ecf5f395f51905f525461064f906001600160a01b03165b6001600160a01b031690565b90813b156101af57604051633b2b0b2760e21b81526001600160a01b0385166004820152915f908390602490829084905af191821561030f577fbbc44953cdaf587863fc3624e2e6bd4cb769c711f6744e0b0e41e7213f61fe8892610723575b506106b984611d1b565b926106fc828287876106f78162ffffff165f527f499202b3cbbc90b72fe65bc477c8a608e23616c82a95bd757f890e1b3173e8ff60205260405f2090565b611d49565b6040516001600160a01b0391821695909116939091829161071e91908361170b565b0390a3005b806103035f61073193611492565b5f6106af565b346101af575f3660031901126101af5761074f611727565b50610758611727565b50606060405161076781611476565b60ff7f499202b3cbbc90b72fe65bc477c8a608e23616c82a95bd757f890e1b3173e8e9541681527f499202b3cbbc90b72fe65bc477c8a608e23616c82a95bd757f890e1b3173e8ea54602082019081527f499202b3cbbc90b72fe65bc477c8a608e23616c82a95bd757f890e1b3173e8eb54906040830191825260ff6040519351168352516020830152516040820152f35b346101af5760203660031901126101af57610812610199565b61081a611a54565b6040516370a0823160e01b81523060048201526001600160a01b038216602082602481845afa91821561030f575f926108c6575b5061085883611f66565b610870575b508061086557005b610314913390612092565b7fdeb5099d7943aa2b4c1142e5d53d2f7636aa8f7bd130ec79816f151572bcdf456108bd6108a56108a086611a96565b612011565b60408051868152602081019290925290918291820190565b0390a25f61085d565b6108e991925060203d6020116108f0575b6108e18183611492565b810190611745565b905f61084e565b503d6108d7565b905f905b6010821061090857505050565b60208060019285518152019301910190916108fb565b6102008101929161092f91906108f7565b565b346101af575f3660031901126101af57610200806040516109528282611492565b369037806040516109638282611492565b3690376040517f499202b3cbbc90b72fe65bc477c8a608e23616c82a95bd757f890e1b3173e8d95f825b601082106109af57610521846109a38782611492565b6040519182918261091e565b600160208192855481520193019101909161098d565b9181601f840112156101af5782359167ffffffffffffffff83116101af57602083818601950101116101af57565b346101af5760403660031901126101af5760043567ffffffffffffffff81116101af57610a249036906004016109c5565b60243567ffffffffffffffff81116101af57610a449036906004016109c5565b610a4f939193611a54565b67ffffffffffffffff8311610bc557610a7e83610a795f516020612f0f5f395f51905f52546115db565b61176a565b5f93601f8411600114610b075790610af791610ad185807f1be2d150ed559c350b05f7dfa5a74669ec8d2ce63bb14c134730ffa02d2d111c985f91610afc575b508160011b915f199060031b1c19161790565b5f516020612f0f5f395f51905f52555b610aeb8282611815565b60405194859485611953565b0390a1005b90508601355f610abe565b5f516020612f0f5f395f51905f525f52601f1984167f82c1836e43255d17fd13ea8c81623b852ea777ea8956c6eb7dc855b6a73a1e83905f5b818110610bad5750907f1be2d150ed559c350b05f7dfa5a74669ec8d2ce63bb14c134730ffa02d2d111c9686610af795949310610b94575b5050600185811b015f516020612f0f5f395f51905f5255610ae1565b8501355f19600388901b60f8161c191690555f80610b78565b85880135835560209788019760019093019201610b40565b611462565b6004359061ffff821682036101af57565b602435906001600160801b03821682036101af57565b604435906001600160801b03821682036101af57565b606435906001600160801b03821682036101af57565b346101af5760803660031901126101af57610c36610bca565b610c3e610bdb565b610c46610bf1565b61ffff610c51610c07565b93610c5a611a54565b1691610c918361ffff165f527f499202b3cbbc90b72fe65bc477c8a608e23616c82a95bd757f890e1b3173e8fe60205260405f2090565b9060045f516020612f0f5f395f51905f5201546001600160801b03821691818310610d8a575050836001600160801b0380610cd09697169416926121ba565b905f516020612f4f5f395f51905f525f5b601060ff821610610cee57005b600181610d10610d0c60ff9487600160ff61ffff93161b1616151590565b1590565b610d8557610d7e610d39610d24838761198f565b905460039190911b1c6001600160a01b031690565b610d67610d5c610d56610d4c868c611a34565b90549060031b1c90565b836122e0565b809230903390612352565b86610d79610d7485612410565b612427565b612486565b0116610ce1565b610d7e565b6305e0208760e11b5f526001600160801b031660045260245260445b5ffd5b346101af575f3660031901126101af575f516020612ecf5f395f51905f52546040516001600160a01b039091168152602090f35b346101af5760403660031901126101af57610df6610199565b602435610e01611a54565b610e0a82611a96565b91610e1483611b64565b60408051918252602082018490526001600160a01b03929092169133917fc41e64811fb9b00086e948c13c4855b0f2890a69cf87246718a5f3d79596c9af9190a3610e7a81610e62846119a4565b90919082549060031b91821b915f19901b1916179055565b600160811b8101908110610f205761031491610e9860018311612859565b81600160801b818160010909918215159281610eb381612889565b168092046002816003021880820260020302808202600203028082026002030280820260020302808202600203028091026002030291600181805f0304018560010302915f0304170291610f0b575b610e62906119d4565b90610f18610e629161214d565b919050610f02565b61156e565b9095949293610f4c61092f95610260946104608501998552602085015260408401906108f7565b61024082015201906108f7565b346101af5760203660031901126101af57610f72610bca565b610f7a611754565b610f8f61ffff610f88611754565b9316612594565b9160028301549160038401546026850154915f916027601688019701925b60ff81166010811015610ff75781600191610fcd610d4c60ff958d611a34565b610fd78288611a43565b52610fef610fe8610d4c848a611a34565b918a611a43565b520116610fad565b60405180610521898988888e86610f25565b346101af575f3660031901126101af57602060ff5f516020612f4f5f395f51905f525416604051908152f35b346101af575f3660031901126101af5760207f499202b3cbbc90b72fe65bc477c8a608e23616c82a95bd757f890e1b3173e8b854604051908152f35b346101af575f3660031901126101af576110896114b4565b6040518091602082016020835281518091526020604084019201905f5b8181106110b4575050500390f35b82516001600160a01b03168452859450602093840193909201916001016110a6565b346101af5760203660031901126101af576004356110f2611a54565b7f499202b3cbbc90b72fe65bc477c8a608e23616c82a95bd757f890e1b3173e8b854604080519182526020820183905233917f9c542bc3427a14a1cee69c339bc7358ef6bdd53651a55d3ff153241d4efbe6119190a27f499202b3cbbc90b72fe65bc477c8a608e23616c82a95bd757f890e1b3173e8b855005b346101af575f3660031901126101af576102008060405161118d8282611492565b3690376040517f499202b3cbbc90b72fe65bc477c8a608e23616c82a95bd757f890e1b3173e8b95f825b601082106111db575050506111cc8282611492565b6111d960405180926108f7565bf35b60016020819285548152019301910190916111b7565b346101af5760203660031901126101af57602061120f610337610199565b60ff60405191168152f35b346101af5760203660031901126101af57602062ffffff61124161123c610199565b611d1b565b16604051908152f35b346101af5760603660031901126101af577f6f46d2ace2b8b11e52eec159e3c11048fe4e0ad797091b0cd8733462cb7b7d906060611286610bca565b6003611290610bdb565b9161ffff61129c610bf1565b916112a5611a54565b16926001600160801b03806112b986612594565b92169283600284015516928391015560405192835260208301526040820152a1005b346101af5760203660031901126101af576112f4610199565b6112fc611a54565b6001600160a01b0316801561137e575f516020612eef5f395f51905f525481906001600160a01b0316337f373511c27c167294bd847c037a78d2915aa641a49ced2f708beab5220ae10d3f5f80a46bffffffffffffffffffffffff60a01b5f516020612eef5f395f51905f525416175f516020612eef5f395f51905f52555f80f35b63c127a23160e01b5f5260045ffd5b91610260936113b591979695929760ff610280860199168552602085015260408401906108f7565b6102408201520152565b346101af5760203660031901126101af576113d8610bca565b6113f961ffff61020092604051936113f08186611492565b36853716612594565b90611409825460ff9060101c1690565b9160018101549060148101549160158201549460045f9301925b60ff8116601081101561144e5781600191611446610fe8610d4c60ff968a611a34565b520116611423565b50506105218685876040519586958661138d565b634e487b7160e01b5f52604160045260245ffd5b6060810190811067ffffffffffffffff821117610bc557604052565b90601f8019910116810190811067ffffffffffffffff821117610bc557604052565b604051905f516020612f4f5f395f51905f525480835282602081015f516020612f4f5f395f51905f525f5260205f20925f5b8181106114fb57505061092f92500383611492565b84546001600160a01b03168352600194850194879450602090930192016114e6565b90604051918281549182825260208201905f5260205f20925f5b81811061154c57505061092f92500383611492565b84546001600160a01b0316835260019485019487945060209093019201611537565b634e487b7160e01b5f52601160045260245ffd5b60ff1660ff8114610f205760010190565b634e487b7160e01b5f52603260045260245ffd5b80518210156115bb5760209160051b010190565b611593565b6040513d5f823e3d90fd5b60043560ff811681036101af5790565b90600182811c92168015611609575b60208310146115f557565b634e487b7160e01b5f52602260045260245ffd5b91607f16916115ea565b604051905f825f516020612f2f5f395f51905f525491611632836115db565b80835292600181169081156116c15750600114611656575b61092f92500383611492565b505f516020612f2f5f395f51905f525f90815290917fdbef1a009119e92aeb2aa4b23071ccb1232fceef66b61cf07b465231f349329f5b8183106116a557505090602061092f9282010161164a565b602091935080600191548385890101520191019091849261168d565b6020925061092f94915060ff191682840152151560051b82010161164a565b600211156116ea57565b634e487b7160e01b5f52602160045260245ffd5b9060028210156116ea5752565b91602061092f92949362ffffff604082019616815201906116fe565b6040519061173482611476565b5f6040838281528260208201520152565b908160209103126101af575190565b604051906102006117658184611492565b368337565b601f8111611776575050565b5f516020612f0f5f395f51905f525f5260205f20906020601f840160051c830193106117bc575b601f0160051c01905b8181106117b1575050565b5f81556001016117a6565b909150819061179d565b601f82116117d357505050565b5f5260205f20906020601f840160051c8301931061180b575b601f0160051c01905b818110611800575050565b5f81556001016117f5565b90915081906117ec565b919067ffffffffffffffff8111610bc557611854816118415f516020612f2f5f395f51905f52546115db565b5f516020612f2f5f395f51905f526117c6565b5f601f821160011461189e57819061188293945f92611893575b50508160011b915f199060031b1c19161790565b5f516020612f2f5f395f51905f5255565b013590505f8061186e565b5f516020612f2f5f395f51905f525f52601f198216937fdbef1a009119e92aeb2aa4b23071ccb1232fceef66b61cf07b465231f349329f915f5b86811061191b5750836001959610611902575b505050811b015f516020612f2f5f395f51905f5255565b01355f19600384901b60f8161c191690555f80806118eb565b909260206001819286860135815501940191016118d8565b908060209392818452848401375f828201840152601f01601f1916010190565b929061196c9061197a9593604086526040860191611933565b926020818503910152611933565b90565b8054156115bb575f5260205f20905f90565b80548210156115bb575f5260205f2001905f90565b60108110156115bb577f499202b3cbbc90b72fe65bc477c8a608e23616c82a95bd757f890e1b3173e8b901905f90565b60108110156115bb577f499202b3cbbc90b72fe65bc477c8a608e23616c82a95bd757f890e1b3173e8c901905f90565b60108110156115bb577f499202b3cbbc90b72fe65bc477c8a608e23616c82a95bd757f890e1b3173e8d901905f90565b60108210156115bb5701905f90565b9060108110156115bb5760051b0190565b7ffe60050de8c303e9e73c33538bcf1b0b6509d1437c01221e10b4d2281a279267546001600160a01b03163303611a8757565b6330cd747160e01b5f5260045ffd5b9060ff611ad28360018060a01b03165f527f499202b3cbbc90b72fe65bc477c8a608e23616c82a95bd757f890e1b3173e8ae60205260405f2090565b541691821580611b04575b611ae45750565b63de6137d160e01b5f9081526001600160a01b0391909116600452602490fd5b505f516020612f4f5f395f51905f52541580611add576115bb575f516020612f4f5f395f51905f525f527fe1808cd437c343964b1a6c7cb8f4628e5dbe9d0f4ce70dbdd8d743451701e16c546001600160a01b0382811691161415611add565b610d4c906119a4565b805468010000000000000000811015610bc557611b8f9160018201815561198f565b81546001600160a01b0393841660039290921b91821b9390911b1916919091179055565b905f516020612f4f5f395f51905f529182546010811015611cd05780151580611c7f575b611c635781611c447f158412daecdc1456d01568828bcdb18464cc7f1ce0215ddbc3f3cfede9d1e63d93611c0e611c5e9460ff1690565b96611c3f88611c3084600185019060018060a01b03165f5260205260405f2090565b9060ff1660ff19825416179055565b611b6d565b6040516001600160a01b0390911681529081906020820190565b0390a1565b6327a5b1a760e11b5f526001600160a01b03821660045260245ffd5b506001600160a01b0382165f908152600185016020526040902060ff90611ca8905b5460ff1690565b16151580611bd75750611cbd610d248561197d565b6001600160a01b03838116911614611bd7565b631e70f0fb60e01b5f5260045ffd5b60ff60089116019060ff8211610f2057565b60ff60019116019060ff8211610f2057565b9062ffffff8091169116019062ffffff8211610f2057565b611d45611d2b62ffffff92611a96565b60ff83600182611d3a85611cdf565b161b16911690611d03565b1690565b805462ffffff191662ffffff9290921691821790555f8181527f499202b3cbbc90b72fe65bc477c8a608e23616c82a95bd757f890e1b3173e8af6020819052604090912091949092916001600160a01b0390611dad905b546001600160a01b031690565b16611f0957611dec84611dcd87869062ffffff165f5260205260405f2090565b80546001600160a01b0319166001600160a01b03909216919091179055565b6001600160a01b0384165f9081526002840160208190526040909120611e1190611ca1565b611e1a816116e0565b611eed5781611e3c86611e41939060018060a01b03165f5260205260405f2090565b61260a565b611e4a816116e0565b60018103611eda575091600482611eb18361092f9796611e80826003611ec799019060018060a01b03165f5260205260405f2090565b80546001600160a01b03199081166001600160a01b0393841617825560019091018054939092169216919091179055565b019060018060a01b03165f5260205260405f2090565b9062ffffff1662ffffff19825416179055565b633658451360e21b5f52610da690612622565b630e0e876760e31b5f526001600160a01b03851660045260245ffd5b60018301611f2a610643611da088849062ffffff165f5260205260405f2090565b611f4e5784611dcd87611f49939062ffffff165f5260205260405f2090565b611dec565b639103aec960e01b5f5262ffffff861660045260245ffd5b6001600160a01b0381165f9081527f499202b3cbbc90b72fe65bc477c8a608e23616c82a95bd757f890e1b3173e8ae602052604090205460ff16159081611fac57501590565b5f516020612f4f5f395f51905f52541591508115611fc957501590565b906115bb575f516020612f4f5f395f51905f525f527fe1808cd437c343964b1a6c7cb8f4628e5dbe9d0f4ce70dbdd8d743451701e16c546001600160a01b0390811691161490565b9061202b61201e83611a04565b90549060031b1c92611a04565b8154905f199060031b1b19169055565b3d15612075573d9067ffffffffffffffff8211610bc5576040519161206a601f8201601f191660200184611492565b82523d5f602084013e565b606090565b908160209103126101af575180151581036101af5790565b60405163a9059cbb60e01b602082019081526001600160a01b03909316602482015260448101939093525f9283929083906120da81606481015b03601f198101835282611492565b51925af16120e661203b565b8161211e575b50156120f457565b60405162461bcd60e51b815260206004820152600260248201526114d560f21b6044820152606490fd5b8051801592508215612133575b50505f6120ec565b612146925060208091830101910161207a565b5f8061212b565b9060018201809211610f2057565b91908201809211610f2057565b1561216f57565b60405162461bcd60e51b815260206004820152601060248201526f496e6974456d707479436c6f7375726560801b6044820152606490fd5b81810292918115918404141715610f2057565b805461ffff191661ffff831617815590949390926121d88360801b90565b6001850155600284015560038301556121f05f612410565b601060ff82161461229b5761221390600881901c861661ffff1661221857612630565b6121f0565b61224a61223261222d865460ff9060101c1690565b611cf1565b855462ff0000191660109190911b62ff000016178555565b61229661226961226062ffffff84165b60ff1690565b60048701611a34565b6122808661227b8385549060031b1c90565b61215b565b82545f1960039390931b92831b1916911b179055565b612630565b5060049293506122cb906122c56122b7845460ff9060101c1690565b61225a60ff82161515612168565b906121a7565b6122da6014830191825461215b565b90550190565b5f516020612ecf5f395f51905f52546040516301c856ab60e21b81526001600160a01b03928316600482015260248101939093526001604484015260209183916064918391165afa90811561030f575f91612339575090565b61197a915060203d6020116108f0576108e18183611492565b6040516323b872dd60e01b602082019081526001600160a01b0393841660248301529390921660448301526064808301949094529281525f9283929091839061239c608482611492565b51925af16123a861203b565b816123e1575b50156123b657565b60405162461bcd60e51b815260206004820152600360248201526229aa2360e91b6044820152606490fd5b80518015925082156123f6575b50505f6123ae565b612409925060208091830101910161207a565b5f806123ee565b611d4562ffffff9160ff83600182611d3a85611cdf565b9061245e8262ffffff165f527f499202b3cbbc90b72fe65bc477c8a608e23616c82a95bd757f890e1b3173e8ff60205260405f2090565b9162ffffff8354161561246e5750565b62ffffff90634f24b97560e01b5f521660045260245ffd5b5462ffffff811692919060181c60ff166125815760405191604083019183831067ffffffffffffffff841117610bc55761092f9461256a936040526124c9612658565b855260208501906124d8612658565b825262ffffff81165f9081527f499202b3cbbc90b72fe65bc477c8a608e23616c82a95bd757f890e1b3173e8af602052604090205461251f906001600160a01b03166126ca565b865262ffffff165f9081527f499202b3cbbc90b72fe65bc477c8a608e23616c82a95bd757f890e1b3173e8b060205260409020546001600160a01b03168061256f575b5050836126a7565b6126b3565b612578906126ca565b90525f80612562565b8263e8da114960e01b5f5260045260245ffd5b9061ffff82169182156125f7576125d69061ffff165f527f499202b3cbbc90b72fe65bc477c8a608e23616c82a95bd757f890e1b3173e8fe60205260405f2090565b9161ffff835416156125e55750565b6347de056d60e11b5f5260045260245ffd5b8263bf392cf360e01b5f5260045260245ffd5b9060028110156116ea5760ff80198354169116179055565b9061092f60046024936116fe565b600160ff8216019062ffffff8211610f205762ffffff9162fffe00611d459260011b16611d03565b6040519061266582611476565b815f81525f602082015260405190602082019082821067ffffffffffffffff831117610bc55760408281529161269c608082611492565b608036823783520152565b9061092f929151612796565b602061092f916126c3815161280d565b015161280d565b906126d3612658565b9160018060a01b0381165f527f499202b3cbbc90b72fe65bc477c8a608e23616c82a95bd757f890e1b3173e8b160205260ff60405f20541660028110156116ea57806001916020860152612726816116e0565b61272f816116e0565b0361277b576001600160a01b03165f9081527f499202b3cbbc90b72fe65bc477c8a608e23616c82a95bd757f890e1b3173e8b26020526040902061092f90808452604084015190612899565b63c02219d960e01b5f526001600160a01b031660045260245ffd5b9291908351158015612805575b6127ff576020840193845160028110156116ea57806127c36001926116e0565b036127db5761092f93945060408151910151906129d2565b6127fa600486516127eb816116e0565b631dd8be1560e31b5f526116fe565b60245ffd5b50509050565b5081156127a3565b8051156128565760208101805160028110156116ea578061282f6001926116e0565b03612846575080604061092f925191015190612a89565b60046127fa91516127eb816116e0565b50565b1561286057565b60405162461bcd60e51b81526020600482015260016024820152600360fc1b6044820152606490fd5b600160ff1b8114610f20575f0390565b906128d9602060026128b7610643600187015460018060a01b031690565b9401546040518093819263266d6a8360e11b8352600483019190602083019252565b0381865afa90811561030f575f916129a6575b5081515260405163ef8b30f760e01b8152600160801b6004820152602081602481865afa801561030f57612945936020925f92612987575b50604051808096819463266d6a8360e11b8352600483019190602083019252565b03915afa91821561030f575f92612962575b505160600152565b52565b61295f9192506129809060203d6020116108f0576108e18183611492565b9190612957565b61299f919250833d85116108f0576108e18183611492565b905f612924565b6129bf915060203d6020116108f0576108e18183611492565b5f6128ec565b91908203918211610f2057565b90612a7292612a616004612a6a94612a4b612a18612a0c612a046020895101516129fd8a5160600190565b5190612c80565b88515161215b565b875160400151906129c5565b612a2d612a26885160600190565b518b612cab565b9080612a765750945b600383019061ffff165f5260205260405f2090565b612a5685825461215b565b90550191825461215b565b90555160200190565b91825161215b565b9052565b612a839185850154612ccd565b94612a36565b90612aa1612a98825160200190565b51915160400190565b519181151580612c77575b612c4d575b8115612ba05780545f9350602090612b2e906001600160a01b031693612aef816001860196612ae9610643895460018060a01b031690565b90612e39565b8454612b03906001600160a01b0316610643565b604051636e553f6560e01b815260048101929092523060248301529095869283919082906044820190565b03925af1801561030f57612b6d612b7b926106439261092f965f91612b81575b50612b5e6002830191825461215b565b9055546001600160a01b031690565b92546001600160a01b031690565b90612d62565b612b9a915060203d6020116108f0576108e18183611492565b5f612b4e565b905081612bac575b5050565b60018101545f92602091612bff9190612bcd906001600160a01b0316610643565b604051632d182be560e21b81526004810192909252306024830181905260448301529094859283919082906064820190565b03925af191821561030f575f92612c25575b506002612c2191019182546129c5565b9055565b612c21919250612c4560029160203d6020116108f0576108e18183611492565b929150612c11565b919081811115612c685790612c61916129c5565b5f91612ab1565b811115612ba8575f9091612ab1565b50821515612aac565b905f198183099181810291600160801b91091515600116918180821091030360801b9060801c010190565b905f198183099102908180821091030360801b9060801c0190565b156101af57565b90915f198383099280830292838086109503948086039514612d4f57908291612cf7868411612cc6565b0981612d0281612889565b168092046002816003021880820260020302808202600203028082026002030280820260020302808202600203028091026002030293600183805f03040190848311900302920304170290565b50509150612d5e821515612cc6565b0490565b60405163095ea7b360e01b60208083019182526001600160a01b03851660248401525f604484018190529293929091612da885606481015b03601f198101875286611492565b84519082855af15f51903d81612e0d575b501590505b612dc757505050565b60405163095ea7b360e01b60208201526001600160a01b0390931660248401525f604484015261092f92612e0890612e0281606481016120cc565b82612e76565b612e76565b15159050612e2d5750612dbe6001600160a01b0382163b15155b5f612db9565b6001612dbe9114612e27565b60405163095ea7b360e01b60208281019182526001600160a01b03851660248401526044830195909552929390925f90612da88560648101612d9a565b905f602091828151910182855af1156115c0575f513d612ec557506001600160a01b0381163b155b612ea55750565b635274afe760e01b5f9081526001600160a01b0391909116600452602490fd5b60011415612e9e56fe499202b3cbbc90b72fe65bc477c8a608e23616c82a95bd757f890e1b3173e8b6499202b3cbbc90b72fe65bc477c8a608e23616c82a95bd757f890e1b3173e8b7499202b3cbbc90b72fe65bc477c8a608e23616c82a95bd757f890e1b3173e8b4499202b3cbbc90b72fe65bc477c8a608e23616c82a95bd757f890e1b3173e8b5499202b3cbbc90b72fe65bc477c8a608e23616c82a95bd757f890e1b3173e8ada26469706673582212208d0bb5088379a8da0d5f90a54742753211a02ac43ecd3c3d3cc77b67399a485b64736f6c634300081c0033","linkReferences":{}},"methodIdentifiers":{"addClosure(uint16,uint128,uint128,uint128)":"6097af89","addVertex(address,address,uint8)":"26f9bd04","getAdjustor()":"6ed7a2c3","getBGTExchanger()":"20fd72b5","getClosureFees(uint16)":"85cf067b","getClosureValue(uint16)":"f80e073a","getEX128(address)":"0427fc5a","getEsX128()":"abea37b9","getIdx(address)":"bce5b6e9","getInitTarget()":"a597404e","getName()":"17d7de7c","getNumVertices()":"9d5d7807","getSearchParams()":"3bb9ebd8","getTokens()":"aa6ca808","getVertexId(address)":"cfbabc79","protocolEarnings()":"59055b9b","setAdjustor(address)":"03966fec","setBGTExchanger(address)":"e23b21be","setClosureFees(uint16,uint128,uint128)":"d723365a","setEX128(address,uint256)":"7be53e4e","setInitTarget(uint256)":"ab4d0c33","setName(string,string)":"5c707f07","setSearchParams((uint8,int256,int256))":"0a5dd1ff","withdraw(address)":"51cff8d9"},"id":80}