{"abi":[{"type":"function","name":"add","inputs":[{"name":"self","type":"uint128","internalType":"uint128"},{"name":"other","type":"int128","internalType":"int128"}],"outputs":[{"name":"","type":"uint128","internalType":"uint128"}],"stateMutability":"pure"},{"type":"function","name":"sub","inputs":[{"name":"self","type":"uint128","internalType":"uint128"},{"name":"other","type":"int128","internalType":"int128"}],"outputs":[{"name":"","type":"uint128","internalType":"uint128"}],"stateMutability":"pure"}],"bytecode":{"object":"0x608080604052346019576101bb908161001e823930815050f35b5f80fdfe60806040526004361015610011575f80fd5b5f3560e01c80633d2efc2d146100545763ad44a3531461002f575f80fd5b602061004361003d36610068565b9061014c565b6001600160801b0360405191168152f35b602061004361006236610068565b90610110565b6040906003190112610098576004356001600160801b0381168103610098579060243580600f0b81036100985790565b5f80fd5b600f0b6f7fffffffffffffffffffffffffffffff1981146100bc575f0390565b634e487b7160e01b5f52601160045260245ffd5b906001600160801b03809116911601906001600160801b0382116100bc57565b906001600160801b03809116911603906001600160801b0382116100bc57565b5f600f83900b126101315761012e916001600160801b0316906100f0565b90565b61013d61012e9261009c565b6001600160801b0316906100d0565b5f600f83900b1261016a5761012e916001600160801b0316906100d0565b61017661012e9261009c565b6001600160801b0316906100f056fea26469706673582212203d2c12ad8c70276b85a8e8d53787ee485dd2e2b0bde51ec771d501cd8bddab3164736f6c634300081c0033","linkReferences":{}},"methodIdentifiers":{"add(uint128,int128)":"ad44a353","sub(uint128,int128)":"3d2efc2d"},"id":12}