{"abi":[{"type":"function","name":"add","inputs":[{"name":"self","type":"uint256","internalType":"uint256"},{"name":"other","type":"int256","internalType":"int256"}],"outputs":[{"name":"","type":"uint256","internalType":"uint256"}],"stateMutability":"pure"},{"type":"function","name":"sub","inputs":[{"name":"self","type":"uint256","internalType":"uint256"},{"name":"other","type":"uint256","internalType":"uint256"}],"outputs":[{"name":"","type":"int256","internalType":"int256"}],"stateMutability":"pure"}],"bytecode":{"object":"0x6080806040523460195761012d908161001e823930815050f35b5f80fdfe608060405260043610156010575f80fd5b5f3560e01c80632835a36d1460515763b67d77c514602c575f80fd5b6040366003190112604d576020604560243560043560bd565b604051908152f35b5f80fd5b6040366003190112604d57602060456024356004356099565b600160ff1b81146079575f0390565b634e487b7160e01b5f52601160045260245ffd5b91908203918211607957565b905f811260ab57810180911160795790565b9060b560ba92606a565b90608d565b90565b9081811060e0579060cc91608d565b6001600160ff1b038111604d5760ba90606a565b60e791608d565b6001600160ff1b038111604d579056fea2646970667358221220c527acea535d87cced3ad87144c70b624f25ec32f9b8b846dff5efa8595f59f164736f6c634300081c0033","linkReferences":{}},"methodIdentifiers":{"add(uint256,int256)":"2835a36d","sub(uint256,uint256)":"b67d77c5"},"id":12}