{"abi":[{"type":"function","name":"SHIFT","inputs":[],"outputs":[{"name":"","type":"uint256","internalType":"uint256"}],"stateMutability":"view"},{"type":"error","name":"OversizedX64","inputs":[{"name":"a","type":"uint256","internalType":"uint256"},{"name":"b","type":"uint256","internalType":"uint256"}]}],"bytecode":{"object":"0x6080806040523460175760789081601c823930815050f35b5f80fdfe60808060405260043610156011575f80fd5b5f3560e01c6395a27ee9146023575f80fd5b5f366003190112603e57806801000000000000000060209252f35b5f80fdfea2646970667358221220410897df4936176ee1b840ca645c513bf8164958599b894e284469ddd7d8c1a164736f6c634300081c0033","linkReferences":{}},"methodIdentifiers":{"SHIFT()":"95a27ee9"},"id":12}