{"abi":[{"type":"function","name":"NULL","inputs":[],"outputs":[{"name":"","type":"uint256","internalType":"uint256"}],"stateMutability":"view"},{"type":"function","name":"OWNER","inputs":[],"outputs":[{"name":"","type":"uint256","internalType":"uint256"}],"stateMutability":"view"},{"type":"function","name":"VETO","inputs":[],"outputs":[{"name":"","type":"uint256","internalType":"uint256"}],"stateMutability":"view"}],"bytecode":{"object":"0x6080806040523460175760b69081601c823930815050f35b5f80fdfe60808060405260043610156011575f80fd5b5f3560e01c908163117803e314606a57508063153ad4031460515763f26be3fc146039575f80fd5b5f366003190112604d5760206040515f8152f35b5f80fd5b5f366003190112604d57604051600160fe1b8152602090f35b5f366003190112604d57600160ff1b8152602090f3fea2646970667358221220131636443fe35b05533016fac586c443efec12a10fed83ff79f898c2a1fc810264736f6c634300081c0033","linkReferences":{}},"methodIdentifiers":{"NULL()":"f26be3fc","OWNER()":"117803e3","VETO()":"153ad403"},"id":15}