{"abi":[{"type":"function","name":"getAdminRights","inputs":[{"name":"addr","type":"address","internalType":"address"}],"outputs":[{"name":"rights","type":"uint256","internalType":"uint256"}],"stateMutability":"view"},{"type":"function","name":"getOwner","inputs":[],"outputs":[{"name":"","type":"address","internalType":"address"}],"stateMutability":"view"},{"type":"event","name":"AdminAdded","inputs":[{"name":"admin","type":"address","indexed":false,"internalType":"address"},{"name":"newRight","type":"uint256","indexed":false,"internalType":"uint256"},{"name":"existing","type":"uint256","indexed":false,"internalType":"uint256"}],"anonymous":false},{"type":"event","name":"AdminRemoved","inputs":[{"name":"admin","type":"address","indexed":false,"internalType":"address"},{"name":"removedRight","type":"uint256","indexed":false,"internalType":"uint256"},{"name":"existing","type":"uint256","indexed":false,"internalType":"uint256"}],"anonymous":false},{"type":"error","name":"CannotReinitializeOwner","inputs":[{"name":"existingOwner","type":"address","internalType":"address"}]},{"type":"error","name":"ImproperOwnershipAcceptance","inputs":[]},{"type":"error","name":"InsufficientCredentials","inputs":[{"name":"caller","type":"address","internalType":"address"},{"name":"expectedRights","type":"uint256","internalType":"uint256"},{"name":"actualRights","type":"uint256","internalType":"uint256"}]},{"type":"error","name":"NotOwner","inputs":[]}],"bytecode":{"object":"0x6080806040523460185760fb908161001d823930815050f35b5f80fdfe60808060405260043610156011575f80fd5b5f3560e01c90816368480f86146074575063893d20e814602f575f80fd5b5f3660031901126070577ffe60050de8c303e9e73c33538bcf1b0b6509d1437c01221e10b4d2281a279267546040516001600160a01b039091168152602090f35b5f80fd5b60203660031901126070576004356001600160a01b03811691908290036070576020915f527ffe60050de8c303e9e73c33538bcf1b0b6509d1437c01221e10b4d2281a279269825260405f20548152f3fea264697066735822122098ac7e7a1f2ddf56d818a17a720ea54ff3d370a7228891b738c5d21b85eb340664736f6c634300081c0033","linkReferences":{}},"methodIdentifiers":{"getAdminRights(address)":"68480f86","getOwner()":"893d20e8"},"id":15}