{"abi":[{"type":"constructor","inputs":[],"stateMutability":"nonpayable"},{"type":"function","name":"acceptOwnership","inputs":[],"outputs":[],"stateMutability":"nonpayable"},{"type":"function","name":"adminRights","inputs":[{"name":"addr","type":"address","internalType":"address"}],"outputs":[{"name":"rights","type":"uint256","internalType":"uint256"}],"stateMutability":"view"},{"type":"function","name":"owner","inputs":[],"outputs":[{"name":"owner_","type":"address","internalType":"address"}],"stateMutability":"view"},{"type":"function","name":"transferOwnership","inputs":[{"name":"_newOwner","type":"address","internalType":"address"}],"outputs":[],"stateMutability":"nonpayable"},{"type":"event","name":"OwnershipTransferred","inputs":[{"name":"previousOwner","type":"address","indexed":true,"internalType":"address"},{"name":"newOwner","type":"address","indexed":true,"internalType":"address"}],"anonymous":false},{"type":"error","name":"ImproperOwnershipAcceptance","inputs":[]},{"type":"error","name":"NotOwner","inputs":[]}],"bytecode":{"object":"0x60808060405234606f576307f5828d60e41b5f527f11c14117fec7040f1693694275e2558772b2dabfbec99d7919100395a5425e856020527f69cad4bd180de9f35edbef8175383531c6dafb0f4a9ae7698b84b1b9995c7094805460ff1916600117905561040490816100748239f35b5f80fdfe6080806040526004361015610012575f80fd5b5f3560e01c9081633036a39f146102bc5750806379ba5097146101765780638da5cb5b146100e15763f2fde38b14610048575f80fd5b346100dd5760203660031901126100dd576004356001600160a01b038116908190036100dd577ffe60050de8c303e9e73c33538bcf1b0b6509d1437c01221e10b4d2281a279267546001600160a01b031633036100ce576001600160601b0360a01b5f5160206103af5f395f51905f525416175f5160206103af5f395f51905f52555f80f35b6330cd747160e01b5f5260045ffd5b5f80fd5b346100dd575f3660031901126100dd57604051631127a41d60e31b815260208160048173__$b59d2f94b10c1f58c89bdb140cda03e416$__5af4801561016b576020915f9161013e575b506040516001600160a01b039091168152f35b61015e9150823d8411610164575b6101568183610359565b81019061038f565b8261012b565b503d61014c565b6040513d5f823e3d90fd5b346100dd575f3660031901126100dd57604051631127a41d60e31b815260208160048173__$b59d2f94b10c1f58c89bdb140cda03e416$__5af490811561016b575f9161029d575b5033906001600160a01b03167f8be0079c531659141344cd1fd0a4f28419497f9722a3daafe3b4186f6b6457e05f80a35f5160206103af5f395f51905f5254336001600160a01b039091160361028e57336001600160601b0360a01b7ffe60050de8c303e9e73c33538bcf1b0b6509d1437c01221e10b4d2281a2792675416177ffe60050de8c303e9e73c33538bcf1b0b6509d1437c01221e10b4d2281a279267556001600160601b0360a01b5f5160206103af5f395f51905f5254165f5160206103af5f395f51905f52555f80f35b6385526aa360e01b5f5260045ffd5b6102b6915060203d602011610164576101568183610359565b816101be565b346100dd5760203660031901126100dd576004356001600160a01b038116908190036100dd5763342407c360e11b8252600482015260208160248173__$b59d2f94b10c1f58c89bdb140cda03e416$__5af4801561016b575f90610326575b602090604051908152f35b506020813d602011610351575b8161034060209383610359565b810103126100dd576020905161031b565b3d9150610333565b90601f8019910116810190811067ffffffffffffffff82111761037b57604052565b634e487b7160e01b5f52604160045260245ffd5b908160209103126100dd57516001600160a01b03811681036100dd579056fefe60050de8c303e9e73c33538bcf1b0b6509d1437c01221e10b4d2281a279268a2646970667358221220989027130ef3ad8e36836e0347dc9884b3c70b3eaa5352539beddb1b6ac153ae64736f6c634300081c0033","linkReferences":{"lib/Commons/src/Util/Admin.sol":{"AdminLib":[{"start":378,"length":20},{"start":527,"length":20},{"start":877,"length":20}]}}},"methodIdentifiers":{"acceptOwnership()":"79ba5097","adminRights(address)":"3036a39f","owner()":"8da5cb5b","transferOwnership(address)":"f2fde38b"},"id":15}