{"abi":[{"type":"function","name":"DEFAULT_INIT_TARGET","inputs":[],"outputs":[{"name":"","type":"uint128","internalType":"uint128"}],"stateMutability":"view"},{"type":"function","name":"MAX_E_X128","inputs":[],"outputs":[{"name":"","type":"uint256","internalType":"uint256"}],"stateMutability":"view"},{"type":"error","name":"OversizedEfficiencyAssignment","inputs":[{"name":"","type":"uint256","internalType":"uint256"}]}],"bytecode":{"object":"0x6080806040523460175760999081601c823930815050f35b5f80fdfe60808060405260043610156011575f80fd5b5f3560e01c9081632d5878f714604c57506382cd3bc714602f575f80fd5b5f3660031901126048576040516001608c1b8152602090f35b5f80fd5b5f3660031901126048578064e8d4a5100060209252f3fea26469706673582212201a0e58384c199a3ca98f5e9cc8a419b1b9ed40806b662432ac4e48e47c48996f64736f6c634300081c0033","linkReferences":{}},"methodIdentifiers":{"DEFAULT_INIT_TARGET()":"2d5878f7","MAX_E_X128()":"82cd3bc7"},"id":70}