{"abi":[{"type":"constructor","inputs":[],"stateMutability":"nonpayable"},{"type":"function","name":"allowance","inputs":[{"name":"owner","type":"address","internalType":"address"},{"name":"spender","type":"address","internalType":"address"}],"outputs":[{"name":"","type":"uint256","internalType":"uint256"}],"stateMutability":"view"},{"type":"function","name":"approve","inputs":[{"name":"spender","type":"address","internalType":"address"},{"name":"value","type":"uint256","internalType":"uint256"}],"outputs":[{"name":"","type":"bool","internalType":"bool"}],"stateMutability":"nonpayable"},{"type":"function","name":"balanceOf","inputs":[{"name":"account","type":"address","internalType":"address"}],"outputs":[{"name":"","type":"uint256","internalType":"uint256"}],"stateMutability":"view"},{"type":"function","name":"burn","inputs":[{"name":"value","type":"uint256","internalType":"uint256"},{"name":"bgtValue","type":"uint256","internalType":"uint256"},{"name":"_cid","type":"uint16","internalType":"uint16"}],"outputs":[],"stateMutability":"nonpayable"},{"type":"function","name":"decimals","inputs":[],"outputs":[{"name":"","type":"uint8","internalType":"uint8"}],"stateMutability":"view"},{"type":"function","name":"mint","inputs":[{"name":"value","type":"uint256","internalType":"uint256"},{"name":"bgtValue","type":"uint256","internalType":"uint256"},{"name":"_cid","type":"uint16","internalType":"uint16"}],"outputs":[],"stateMutability":"nonpayable"},{"type":"function","name":"name","inputs":[],"outputs":[{"name":"","type":"string","internalType":"string"}],"stateMutability":"view"},{"type":"function","name":"symbol","inputs":[],"outputs":[{"name":"","type":"string","internalType":"string"}],"stateMutability":"view"},{"type":"function","name":"totalSupply","inputs":[],"outputs":[{"name":"","type":"uint256","internalType":"uint256"}],"stateMutability":"view"},{"type":"function","name":"transfer","inputs":[{"name":"to","type":"address","internalType":"address"},{"name":"value","type":"uint256","internalType":"uint256"}],"outputs":[{"name":"","type":"bool","internalType":"bool"}],"stateMutability":"nonpayable"},{"type":"function","name":"transferFrom","inputs":[{"name":"from","type":"address","internalType":"address"},{"name":"to","type":"address","internalType":"address"},{"name":"value","type":"uint256","internalType":"uint256"}],"outputs":[{"name":"","type":"bool","internalType":"bool"}],"stateMutability":"nonpayable"},{"type":"event","name":"Approval","inputs":[{"name":"owner","type":"address","indexed":true,"internalType":"address"},{"name":"spender","type":"address","indexed":true,"internalType":"address"},{"name":"value","type":"uint256","indexed":false,"internalType":"uint256"}],"anonymous":false},{"type":"event","name":"InsufficientBalance","inputs":[{"name":"vid","type":"uint24","indexed":false,"internalType":"VertexId"},{"name":"cid","type":"uint16","indexed":false,"internalType":"ClosureId"},{"name":"targetReal","type":"uint256","indexed":false,"internalType":"uint256"},{"name":"realBalance","type":"uint256","indexed":false,"internalType":"uint256"}],"anonymous":false},{"type":"event","name":"Transfer","inputs":[{"name":"from","type":"address","indexed":true,"internalType":"address"},{"name":"to","type":"address","indexed":true,"internalType":"address"},{"name":"value","type":"uint256","indexed":false,"internalType":"uint256"}],"anonymous":false},{"type":"event","name":"WarningExcessValueDetected","inputs":[{"name":"cid","type":"uint16","indexed":false,"internalType":"ClosureId"},{"name":"maxValue","type":"uint256","indexed":false,"internalType":"uint256"},{"name":"actualValue","type":"uint256","indexed":false,"internalType":"uint256"}],"anonymous":false},{"type":"error","name":"CannotRemoveWithLockedVertex","inputs":[{"name":"cid","type":"uint16","internalType":"ClosureId"}]},{"type":"error","name":"ERC20InsufficientAllowance","inputs":[{"name":"spender","type":"address","internalType":"address"},{"name":"allowance","type":"uint256","internalType":"uint256"},{"name":"needed","type":"uint256","internalType":"uint256"}]},{"type":"error","name":"ERC20InsufficientBalance","inputs":[{"name":"sender","type":"address","internalType":"address"},{"name":"balance","type":"uint256","internalType":"uint256"},{"name":"needed","type":"uint256","internalType":"uint256"}]},{"type":"error","name":"ERC20InvalidApprover","inputs":[{"name":"approver","type":"address","internalType":"address"}]},{"type":"error","name":"ERC20InvalidReceiver","inputs":[{"name":"receiver","type":"address","internalType":"address"}]},{"type":"error","name":"ERC20InvalidSender","inputs":[{"name":"sender","type":"address","internalType":"address"}]},{"type":"error","name":"ERC20InvalidSpender","inputs":[{"name":"spender","type":"address","internalType":"address"}]},{"type":"error","name":"EmptyClosure","inputs":[{"name":"","type":"uint16","internalType":"ClosureId"}]},{"type":"error","name":"InsufficientBgtValue","inputs":[{"name":"actual","type":"uint256","internalType":"uint256"},{"name":"required","type":"uint256","internalType":"uint256"}]},{"type":"error","name":"InsufficientNonBgtValue","inputs":[{"name":"value","type":"uint256","internalType":"uint256"},{"name":"bgtValue","type":"uint256","internalType":"uint256"}]},{"type":"error","name":"InsufficientStakeCapacity","inputs":[{"name":"cid","type":"uint16","internalType":"ClosureId"},{"name":"maxValue","type":"uint256","internalType":"uint256"},{"name":"actualValue","type":"uint256","internalType":"uint256"},{"name":"attemptedStake","type":"uint256","internalType":"uint256"}]},{"type":"error","name":"InsufficientUnstakeAvailable","inputs":[{"name":"cid","type":"uint16","internalType":"ClosureId"},{"name":"stakeValue","type":"uint256","internalType":"uint256"},{"name":"attemptedUnstake","type":"uint256","internalType":"uint256"}]},{"type":"error","name":"InsufficientValue","inputs":[{"name":"actual","type":"uint256","internalType":"uint256"},{"name":"required","type":"uint256","internalType":"uint256"}]},{"type":"error","name":"InsufficientValueForBgt","inputs":[{"name":"value","type":"uint256","internalType":"uint256"},{"name":"bgtValue","type":"uint256","internalType":"uint256"}]},{"type":"error","name":"SafeERC20FailedOperation","inputs":[{"name":"token","type":"address","internalType":"address"}]},{"type":"error","name":"UninitializedClosure","inputs":[{"name":"","type":"uint16","internalType":"ClosureId"}]},{"type":"error","name":"UninitializedVertex","inputs":[{"name":"","type":"uint24","internalType":"VertexId"}]},{"type":"error","name":"VaultNotFound","inputs":[{"name":"","type":"address","internalType":"address"}]},{"type":"error","name":"VaultTypeUnrecognized","inputs":[{"name":"","type":"uint8","internalType":"enum VaultType"}]}],"bytecode":{"object":"0x6080604052346102c4576100116102c8565b6100196102c8565b81516001600160401b0381116101d757600354600181811c911680156102ba575b60208210146101b957601f8111610257575b50602092601f82116001146101f657928192935f926101eb575b50508160011b915f199060031b1c1916176003555b80516001600160401b0381116101d757600454600181811c911680156101cd575b60208210146101b957601f8111610156575b50602091601f82116001146100f6579181925f926100eb575b50508160011b915f199060031b1c1916176004555b60405161225b90816102eb8239f35b015190505f806100c7565b601f1982169260045f52805f20915f5b85811061013e57508360019510610126575b505050811b016004556100dc565b01515f1960f88460031b161c191690555f8080610118565b91926020600181928685015181550194019201610106565b60045f527f8a35acfbc15ff81a39ae7d344fd709f28e8600b4aa8c65c6b64bfe7fe36bd19b601f830160051c810191602084106101af575b601f0160051c01905b8181106101a457506100ae565b5f8155600101610197565b909150819061018e565b634e487b7160e01b5f52602260045260245ffd5b90607f169061009c565b634e487b7160e01b5f52604160045260245ffd5b015190505f80610066565b601f1982169360035f52805f20915f5b86811061023f5750836001959610610227575b505050811b0160035561007b565b01515f1960f88460031b161c191690555f8080610219565b91926020600181928685015181550194019201610206565b60035f527fc2575a0e9e593c00f959f8c92f12db2869c3395a3b0502d05e2516446f71f85b601f830160051c810191602084106102b0575b601f0160051c01905b8181106102a5575061004c565b5f8155600101610298565b909150819061028f565b90607f169061003a565b5f80fd5b60405190602082016001600160401b038111838210176101d7576040525f825256fe60806040526004361015610011575f80fd5b5f3560e01c806306fdde03146100c4578063095ea7b3146100bf57806318160ddd146100ba57806323b872dd146100b55780632f175a6f146100b0578063313ce567146100ab5780635aaa777b146100a657806370a08231146100a157806395d89b411461009c578063a9059cbb146100975763dd62ed3e14610092575f80fd5b6107c6565b610795565b61069f565b610668565b610583565b610568565b6103f7565b610332565b610315565b61025c565b6100f3565b602060409281835280519182918282860152018484015e5f828201840152601f01601f1916010190565b3461022c575f36600319011261022c576040515f7f499202b3cbbc90b72fe65bc477c8a608e23616c82a95bd757f890e1b3173e8b4548060011c9060018116908115610222575b60208310821461020e5782855260208501919081156101f55750600114610184575b6101806101748561016f81870382610831565b610858565b604051918291826100c9565b0390f35b7f499202b3cbbc90b72fe65bc477c8a608e23616c82a95bd757f890e1b3173e8b45f9081529250907f82c1836e43255d17fd13ea8c81623b852ea777ea8956c6eb7dc855b6a73a1e835b8184106101e1575050018161016f61015c565b8054848401526020909301926001016101ce565b60ff191682525090151560051b0190508161016f61015c565b634e487b7160e01b5f52602260045260245ffd5b91607f169161013a565b5f80fd5b600435906001600160a01b038216820361022c57565b602435906001600160a01b038216820361022c57565b3461022c57604036600319011261022c57610275610230565b6024353315610302576001600160a01b0382169182156102ef576102b58291335f52600160205260405f209060018060a01b03165f5260205260405f2090565b5560405190815233907f8c5be1e5ebec7d5bd14f71427d1e84f3dd0314c0f7b2291e5b200ac8c7c3b92590602090a3602060405160018152f35b634a1406b160e11b5f525f60045260245ffd5b63e602df0560e01b5f525f60045260245ffd5b3461022c575f36600319011261022c576020600254604051908152f35b3461022c57606036600319011261022c5761034b610230565b610353610246565b6001600160a01b0382165f9081526001602090815260408083203384529091529020549160443591905f19841061039b575b61038f93506108b2565b60405160018152602090f35b8284106103b7576103b28361038f95033383610bdf565b610385565b8284637dc7a0d960e11b5f523360045260245260445260645ffd5b606090600319011261022c57600435906024359060443561ffff8116810361022c5790565b3461022c57610405366103d2565b610413828480821115610894565b33156105555761ffff906104278433610c25565b169161043283610988565b9261043c84610ce5565b600184015461046d61046786549261046161045b8560ff9060101c1690565b60ff1690565b90610a06565b60801c90565b906014860191825491610487610481610e5f565b83610a19565b8311610512575b816104998785610a19565b116104c9575050946015916104b1856104c798610a19565b9055016104bf848254610a19565b905533610a44565b005b61050e866104d9859361ffff1690565b92604051948594631390e0f160e21b8652600486019094939260609261ffff6080840197168352602083015260408201520152565b0390fd5b6040805161ffff83168152602081018490529081018490527f2ca734b51710a2741a487d0025c9b6fc8b308d9ba8ec14233c188f272b7faeee90606090a161048e565b634b637e8f60e11b5f525f60045260245ffd5b3461022c575f36600319011261022c57602060405160128152f35b3461022c5761ffff610594366103d2565b6105a48284808297951115610894565b16916105af83610988565b926105b984610ce5565b6105c284611071565b151593805494610651576014810180546105da610e5f565b860180871161064c57811061061d5792601586959386936106016104c79961061798610ae6565b90550161060f848254610ae6565b905533610af3565b33610b93565b856106499161062d8961ffff1690565b63f24c792360e01b5f5261ffff16600452602452604452606490565b5ffd5b6109f2565b61ffff8563064ce12f60e41b5f521660045260245ffd5b3461022c57602036600319011261022c576001600160a01b03610689610230565b165f525f602052602060405f2054604051908152f35b3461022c575f36600319011261022c576040515f7f499202b3cbbc90b72fe65bc477c8a608e23616c82a95bd757f890e1b3173e8b5548060011c906001811690811561078b575b60208310821461020e5782855260208501919081156101f5575060011461071a576101806101748561016f81870382610831565b7f499202b3cbbc90b72fe65bc477c8a608e23616c82a95bd757f890e1b3173e8b55f9081529250907fdbef1a009119e92aeb2aa4b23071ccb1232fceef66b61cf07b465231f349329f5b818410610777575050018161016f61015c565b805484840152602090930192600101610764565b91607f16916106e6565b3461022c57604036600319011261022c576107bb6107b1610230565b60243590336108b2565b602060405160018152f35b3461022c57604036600319011261022c5760206108146107e4610230565b6107ec610246565b6001600160a01b039182165f9081526001855260408082209290931681526020919091522090565b54604051908152f35b634e487b7160e01b5f52604160045260245ffd5b90601f8019910116810190811067ffffffffffffffff82111761085357604052565b61081d565b9061089260236020936040519485916231393b60e91b828401528051918291018484015e81015f838201520301601f198101845283610831565b565b1561089d575050565b63da63a49f60e01b5f5260045260245260445ffd5b916001600160a01b038316918215610555576001600160a01b038116938415610975576001600160a01b0381165f90815260208190526040902054838110610950579161093e91610924855f5160206122065f395f51905f529695039160018060a01b03165f525f60205260405f2090565b556001600160a01b03165f90815260208190526040902090565b805482019055604051908152602090a3565b63391434e360e21b5f526001600160a01b03909116600452602452604482905260645ffd5b63ec442f0560e01b5f525f60045260245ffd5b61ffff169081156109df57815f527f499202b3cbbc90b72fe65bc477c8a608e23616c82a95bd757f890e1b3173e8fe60205260405f209161ffff835416156109cd5750565b6347de056d60e11b5f5260045260245ffd5b5063bf392cf360e01b5f5260045260245ffd5b634e487b7160e01b5f52601160045260245ffd5b8181029291811591840414171561064c57565b9190820180921161064c57565b15610a2f575050565b631c102d6360e21b5f5260045260245260445ffd5b90610ab791610a7482827f499202b3cbbc90b72fe65bc477c8a608e23616c82a95bd757f890e1b3173e8ac610ef9565b60018060a01b03165f527f499202b3cbbc90b72fe65bc477c8a608e23616c82a95bd757f890e1b3173e8ac60205260405f209061ffff165f5260205260405f2090565b610ac5838381811015610a26565b805491820180921161064c57600191815501805491820180921161064c5755565b9190820391821161064c57565b90610b2691939293610a7482827f499202b3cbbc90b72fe65bc477c8a608e23616c82a95bd757f890e1b3173e8ac610ef9565b90610b35818481811015610a26565b8154610b45848280821115610a26565b6001830193845491828411610b7c570380935503809255818110610b67575050565b632740736f60e01b5f5260045260245260445ffd5b5050637ed0f18d60e01b5f5260045260245260445ffd5b6001600160a01b03811691908215610975576002549180830180931161064c5761093e5f5160206122065f395f51905f52925f9460025560018060a01b03165f525f60205260405f2090565b6001600160a01b0316908115610302576001600160a01b038116156102ef57610c22915f52600160205260405f209060018060a01b03165f5260205260405f2090565b55565b6001600160a01b038116919082610c6f57509060025482810180911161064c575f925f5160206122065f395f51905f52916002555b600280548290039055604051908152602090a3565b6001600160a01b0381165f90815260208190526040902054828110610cc257915f5160206122065f395f51905f5291610cbc825f9695039160018060a01b03165f525f60205260405f2090565b55610c5a565b63391434e360e21b5f526001600160a01b0390911660045260245260445260645ffd5b60148101805491601581018054840393841161064c576101005b60ff8116601014610e58578254610d2a91908690600883901c811661ffff16610d2f575b50506110c1565b610cff565b610dda610d9e610d9993610d91600494610d71610d6b610d618d610d5861045b8d62ffffff1690565b998a9101610eea565b90549060031b1c90565b876111cc565b610d85610d7d8a61115f565b9261ffff1690565b908d54918c5493611276565b959060801b90565b61110a565b610dc4610dae8460168b01610eea565b919092610dbf8385549060031b1c90565b610a19565b82545f1960039390931b92831b1916911b179055565b8454610de9575b879150610d23565b610e09610df9610e019383611388565b939060801b90565b86549061110a565b610e1860268801918254610a19565b90558115610de157610dc4610dae610e47610e3f610e39610e51968861149c565b60801b90565b88549061110a565b9260278901610eea565b5f80610de1565b5050505050565b7f499202b3cbbc90b72fe65bc477c8a608e23616c82a95bd757f890e1b3173e8ea546001600160801b038116156104675760801c6001810180911161064c5790565b634e487b7160e01b5f52603260045260245ffd5b6010811015610ee5577f499202b3cbbc90b72fe65bc477c8a608e23616c82a95bd757f890e1b3173e8ee01905f90565b610ea1565b6010821015610ee55701905f90565b91610f4a610f3991610f1f610f0d82610988565b60268101549160276016830193920190565b94919590969060018060a01b03165f5260205260405f2090565b9061ffff165f5260205260405f2090565b90815492610f5e6001840194855490610ae6565b9160128401916002850190602386015f5b88601060ff831610610fb2575050505050505050610fad6033610fa36022840194610f9b865488610ae6565b905490611119565b9201918254610a19565b905555565b8161101e6110118861100b600195610f9b8d8f610d61898f8f8260ff9f610ffa96611000610ff495610ffa610d6185610ff4610d6161100598610d619b610eea565b93610eea565b90610ae6565b611119565b9a610eea565b90610a19565b610dc4610dae8488610eea565b61105061102e610d618388610eea565b6110388389610eea565b90919082549060031b91821b915f19901b1916179055565b61106a611060610d61838a610eea565b611038838b610eea565b0116610f6f565b6101005b601060ff8216146110bb578154600882901c1661ffff1661109f575b61109a906110c1565b611075565b60ff6110aa8261115f565b5460181c1615611091575050600190565b50505f90565b600160ff82160162ffffff811161064c5762fffe0062ffffff8092169260011b16160162ffffff811161064c5762ffffff1690565b634e487b7160e01b5f52601260045260245ffd5b8115611114570490565b6110f6565b905f198183099102908180821091030360801b9060801c0190565b905f198183099181810291600160801b91091515600116918180821091030360801b9060801c010190565b62ffffff1690815f527f499202b3cbbc90b72fe65bc477c8a608e23616c82a95bd757f890e1b3173e8ff60205260405f209162ffffff835416156111a05750565b634f24b97560e01b5f5260045260245ffd5b9081602091031261022c575190565b6040513d5f823e3d90fd5b7f499202b3cbbc90b72fe65bc477c8a608e23616c82a95bd757f890e1b3173e8b6546001600160a01b031691602091606490611207906114bb565b60405194859384926301c856ab60e21b845260018060a01b031660048401526024830152600160448301525afa908115611271575f91611245575090565b611267915060203d60201161126a575b61125f8183610831565b8101906111b2565b90565b503d611255565b6111c1565b91949392909262ffffff8354169561128d87611596565b96876001600160801b03806112b35f8a60206112ab83838951611a96565b960151611a96565b169116016001600160801b03811161064c576001600160801b03169081831161132557509361130661131f946113129897946113006112f8611318966108929a610ae6565b80978d611665565b856116e9565b9687915462ffffff1690565b92610ae6565b908661177e565b9361181f565b9450925090507f597e13956fe737c1742c99b18e6895b87dbf00726021c3575716b3d18ad0d80894955061ffff60809460405194855216602084015260408301526060820152a15f905f90565b919082604091031261022c576020825192015190565b7f499202b3cbbc90b72fe65bc477c8a608e23616c82a95bd757f890e1b3173e8b7805492939290919084906001600160a01b03168015611493576114086113fc6113fc5f966113ef611443966113df6040996114bb565b966001600160a01b038816611903565b546001600160a01b031690565b6001600160a01b031690565b8351637432795b60e11b81526001600160a01b0390921660048301526001600160801b03871660248301529093849283919082906044820190565b03925af1801561127157611267915f905f92611461575b5093610ae6565b9050611485915060403d60401161148c575b61147d8183610831565b810190611372565b905f61145a565b503d611473565b505050505f9190565b91906114b5610892916114ae85611596565b948561177e565b9261181f565b7f499202b3cbbc90b72fe65bc477c8a608e23616c82a95bd757f890e1b3173e8ad54811015610ee5577f499202b3cbbc90b72fe65bc477c8a608e23616c82a95bd757f890e1b3173e8ad5f527fe1808cd437c343964b1a6c7cb8f4628e5dbe9d0f4ce70dbdd8d743451701e16c01546001600160a01b031690565b604051906060820182811067ffffffffffffffff82111761085357604052815f81525f602082015260405190602082019082821067ffffffffffffffff8311176108535760408281529161158b608082610831565b608036823783520152565b90604051916040830183811067ffffffffffffffff821117610853576040526115bd611536565b835262ffffff60208401916115d0611536565b83528082165f9081527f499202b3cbbc90b72fe65bc477c8a608e23616c82a95bd757f890e1b3173e8af60205260409020548590611616906001600160a01b0316611960565b9052165f9081527f499202b3cbbc90b72fe65bc477c8a608e23616c82a95bd757f890e1b3173e8b060205260409020546001600160a01b031680611658575050565b61166190611960565b9052565b91906001600160801b0361167a828551611a3e565b6116848551611ae9565b82821681106116c8575b501692838311156116bd57806116a8858460209451611b8b565b015192820391821161064c5761089292611b8b565b610892935051611b8b565b829150165f61168e565b1561022c57565b600160ff1b811461064c575f0390565b90915f19838309928083029283808610950394808603951461176b579082916117138684116116d2565b098161171e816116d9565b168092046002816003021880820260020302808202600203028082026002030280820260020302808202600203028091026002030293600183805f03040190848311900302920304170290565b5050915061177a8215156116d2565b0490565b92919060ff169261179260015f8351611a96565b6001600160801b03806117ab60015f6020870151611a96565b169116016001600160801b03811161064c576117d0836001600160801b039351611edf565b16806117fc575060648102908082046064149015171561064c57610892905b610dc4610dae8295610eb5565b6118196108929261180c86610eb5565b90549060031b1c90610a06565b046117ef565b60206108929161182f8151611c5d565b0151611c5d565b6040519060205f81840163095ea7b360e01b815260018060a01b03861660248601528160448601526044855261186d606486610831565b84519082855af15f51903d816118d7575b501590505b61188c57505050565b60405163095ea7b360e01b60208201526001600160a01b039390931660248401525f6044808501919091528352610892926118d2906118cc606482610831565b82611c99565b611c99565b151590506118f757506118836001600160a01b0382163b15155b5f61187e565b600161188391146118f1565b60405163095ea7b360e01b60208281019182526001600160a01b0385166024840152604480840196909652948252929390925f9061186d606486610831565b6002111561194c57565b634e487b7160e01b5f52602160045260245ffd5b90611969611536565b9160018060a01b0381165f527f499202b3cbbc90b72fe65bc477c8a608e23616c82a95bd757f890e1b3173e8b160205260ff60405f205416600281101561194c578060019160208601526119bc81611942565b6119c581611942565b03611a11576001600160a01b03165f9081527f499202b3cbbc90b72fe65bc477c8a608e23616c82a95bd757f890e1b3173e8b26020526040902061089290808452604084015190611cf1565b63c02219d960e01b5f526001600160a01b031660045260245ffd5b90602491600281101561194c57600452565b8051156110bb57602081018051600281101561194c5780611a60600192611942565b03611a795750611267918160405f935191015190611e1d565b6106499051611a8781611942565b631dd8be1560e31b5f52611a2c565b929190835115611ae25760208401938451600281101561194c5780611abc600192611942565b03611ad4576112679394506040815191015190611e1d565b6106498551611a8781611942565b505f925050565b805115611b8657602081018051600281101561194c5780611b0b600192611942565b03611a795750516001015460405163ce96cb7760e01b815230600482015290602090829060249082906001600160a01b03165afa9081156112715761126791611b5b915f91611b67575b506121ea565b6001600160801b031690565b611b80915060203d60201161126a5761125f8183610831565b5f611b55565b505f90565b908151158015611c55575b611c5057602082018051600281101561194c5780611bb5600192611942565b03611a79575060408251920151611bd760208251015160608351015190611119565b9181515192830180931161064c57604082510151830392831161064c57611c1d906003611c0a60048701958887546116e9565b95019061ffff165f5260205260405f2090565b9182549284840393841161064c5761166194611c4894611c3f92558254610ae6565b90555160400190565b918251610a19565b505050565b508215611b96565b805115611c9657602081018051600281101561194c5780611c7f600192611942565b03611a795750806040610892925191015190611fc0565b50565b905f602091828151910182855af1156111c1575f513d611ce857506001600160a01b0381163b155b611cc85750565b635274afe760e01b5f9081526001600160a01b0391909116600452602490fd5b60011415611cc1565b90611d3160206002611d0f6113fc600187015460018060a01b031690565b9401546040518093819263266d6a8360e11b8352600483019190602083019252565b0381865afa908115611271575f91611dfe575b5081515260405163ef8b30f760e01b8152600160801b6004820152602081602481865afa801561127157611d9d936020925f92611ddf575b50604051808096819463266d6a8360e11b8352600483019190602083019252565b03915afa918215611271575f92611dba575b505160600152565b52565b611db7919250611dd89060203d60201161126a5761125f8183610831565b9190611daf565b611df7919250833d851161126a5761125f8183610831565b905f611d7c565b611e17915060203d60201161126a5761125f8183610831565b5f611d44565b90926004820154918215611ed657611e8785611e80611e78602061126799510151611e49845160600190565b515f198183099181810291600160801b910915158816918180821091030360801b9060801c0101835151610a19565b915160400190565b5190610ae6565b9115611eb457611eaf936003611ea992019061ffff165f5260205260405f2090565b546121b6565b6121ea565b611eaf936003611ed092019061ffff165f5260205260405f2090565b546116e9565b50505050505f90565b8051158015611fb8575b611fb457602081018051600281101561194c5780611f08600192611942565b03611a795750611c48816040611661935191015190611f986004611f55611f4b611f43602087510151611f3c885160600190565b5190611134565b865151610a19565b8551604001611e80565b611f6a611f63865160600190565b5189611119565b9080611fa15750925b5f8080526003820160205260409020611f8d858254610a19565b905501918254610a19565b90555160200190565b611fae91838601546116e9565b92611f73565b5050565b508115611ee9565b90611fd8611fcf825160200190565b51915160400190565b5191811515806121ad575b612183575b81156120d75780545f9350602090612065906001600160a01b0316936120268160018601966120206113fc895460018060a01b031690565b90611903565b845461203a906001600160a01b03166113fc565b604051636e553f6560e01b815260048101929092523060248301529095869283919082906044820190565b03925af18015611271576120a46120b2926113fc92610892965f916120b8575b5061209560028301918254610a19565b9055546001600160a01b031690565b92546001600160a01b031690565b90611836565b6120d1915060203d60201161126a5761125f8183610831565b5f612085565b9050816120e2575050565b60018101545f926020916121359190612103906001600160a01b03166113fc565b604051632d182be560e21b81526004810192909252306024830181905260448301529094859283919082906064820190565b03925af1918215611271575f9261215b575b5060026121579101918254610ae6565b9055565b61215791925061217b60029160203d60201161126a5761125f8183610831565b929150612147565b91908181111561219e579061219791610ae6565b5f91611fe8565b811115611fb4575f9091611fe8565b50821515611fe3565b9291906121c48282866116e9565b93821561111457096121d257565b905f1981101561022c575f19811461064c5760010190565b6001600160801b03811115611b5b57506001600160801b039056feddf252ad1be2c89b69c2b068fc378daa952ba7f163c4a11628f55a4df523b3efa26469706673582212205a54a8f42c815eab287c88ca84af10430ecfcfeb227e47966dd6a043f8782fe964736f6c634300081c0033","linkReferences":{}},"methodIdentifiers":{"allowance(address,address)":"dd62ed3e","approve(address,uint256)":"095ea7b3","balanceOf(address)":"70a08231","burn(uint256,uint256,uint16)":"2f175a6f","decimals()":"313ce567","mint(uint256,uint256,uint16)":"5aaa777b","name()":"06fdde03","symbol()":"95d89b41","totalSupply()":"18160ddd","transfer(address,uint256)":"a9059cbb","transferFrom(address,address,uint256)":"23b872dd"},"id":90}