{"abi":[{"type":"function","name":"fetch","inputs":[{"name":"useId","type":"uint256","internalType":"uint256"}],"outputs":[{"name":"e","type":"tuple","internalType":"struct TimedEntry","components":[{"name":"timestamp","type":"uint64","internalType":"uint64"},{"name":"submitter","type":"address","internalType":"address"},{"name":"entry","type":"bytes","internalType":"bytes"}]}],"stateMutability":"view"}],"bytecode":{"object":"0x60808060405234601557610260908161001a8239f35b5f80fdfe60806040526004361015610011575f80fd5b5f3560e01c637a33e3b014610024575f80fd5b346101eb5760203660031901126101eb5761003d61020b565b5061004661020b565b506004355f527f17f01c17e066e33ab1eb361d9c95b7ef37a5d3118e9d8eb5595eb37a0502ebd060205260405f2060405190610081826101ef565b805467ffffffffffffffff81168352604090811c6001600160a01b031660208401908152905160019283018054919492935f9280821c9291811680156101e1575b6020841081146101cd578388529081156101af5750600114610177575b5050839003601f01601f1916830167ffffffffffffffff8111848210176101635767ffffffffffffffff9360a09360209260405260408401918252604051958694848652511683850152600180861b039051166040840152516060808401528051918291826080860152018484015e5f828201840152601f01601f19168101030190f35b634e487b7160e01b5f52604160045260245ffd5b9091505f5260205f205f905b8282106101995750602091508401015f806100df565b6001816020925483858a01015201910190610183565b9150506020925060ff191682860152151560051b8401015f806100df565b634e487b7160e01b5f52602260045260245ffd5b92607f16926100c2565b5f80fd5b6060810190811067ffffffffffffffff82111761016357604052565b60405190610218826101ef565b60606040835f81525f6020820152015256fea2646970667358221220cd168f296d54caf8a1a35c9053a0e6a0a5da4ef07d167dd6113d510756abae3064736f6c634300081c0033","linkReferences":{}},"methodIdentifiers":{"fetch(uint256)":"7a33e3b0"},"id":60}