{"abi":[{"type":"function","name":"MIN_SWAP_SIZE","inputs":[],"outputs":[{"name":"","type":"uint128","internalType":"uint128"}],"stateMutability":"view"},{"type":"function","name":"simSwap","inputs":[{"name":"inToken","type":"address","internalType":"address"},{"name":"outToken","type":"address","internalType":"address"},{"name":"amountSpecified","type":"int256","internalType":"int256"},{"name":"cid","type":"uint16","internalType":"uint16"}],"outputs":[{"name":"inAmount","type":"uint256","internalType":"uint256"},{"name":"outAmount","type":"uint256","internalType":"uint256"},{"name":"valueExchangedX128","type":"uint256","internalType":"uint256"}],"stateMutability":"view"},{"type":"function","name":"swap","inputs":[{"name":"recipient","type":"address","internalType":"address"},{"name":"inToken","type":"address","internalType":"address"},{"name":"outToken","type":"address","internalType":"address"},{"name":"amountSpecified","type":"int256","internalType":"int256"},{"name":"amountLimit","type":"uint256","internalType":"uint256"},{"name":"_cid","type":"uint16","internalType":"uint16"}],"outputs":[{"name":"inAmount","type":"uint256","internalType":"uint256"},{"name":"outAmount","type":"uint256","internalType":"uint256"}],"stateMutability":"nonpayable"},{"type":"event","name":"InsufficientBalance","inputs":[{"name":"vid","type":"uint24","indexed":false,"internalType":"VertexId"},{"name":"cid","type":"uint16","indexed":false,"internalType":"ClosureId"},{"name":"targetReal","type":"uint256","indexed":false,"internalType":"uint256"},{"name":"realBalance","type":"uint256","indexed":false,"internalType":"uint256"}],"anonymous":false},{"type":"event","name":"Swap","inputs":[{"name":"sender","type":"address","indexed":false,"internalType":"address"},{"name":"recipient","type":"address","indexed":true,"internalType":"address"},{"name":"inToken","type":"address","indexed":true,"internalType":"address"},{"name":"outToken","type":"address","indexed":true,"internalType":"address"},{"name":"inAmount","type":"uint256","indexed":false,"internalType":"uint256"},{"name":"outAmount","type":"uint256","indexed":false,"internalType":"uint256"},{"name":"valueExchangedX128","type":"uint256","indexed":false,"internalType":"uint256"}],"anonymous":false},{"type":"error","name":"BelowMinSwap","inputs":[{"name":"nominalSwapAttempted","type":"uint256","internalType":"uint256"},{"name":"minSwap","type":"uint256","internalType":"uint256"}]},{"type":"error","name":"EmptyClosure","inputs":[{"name":"","type":"uint16","internalType":"ClosureId"}]},{"type":"error","name":"IrrelevantVertex","inputs":[{"name":"cid","type":"uint16","internalType":"ClosureId"},{"name":"vid","type":"uint24","internalType":"VertexId"}]},{"type":"error","name":"ReentrancyGuardReentrantCall","inputs":[]},{"type":"error","name":"SafeERC20FailedOperation","inputs":[{"name":"token","type":"address","internalType":"address"}]},{"type":"error","name":"SlippageSurpassed","inputs":[{"name":"acceptableAmount","type":"uint256","internalType":"uint256"},{"name":"actualAmount","type":"uint256","internalType":"uint256"},{"name":"isOut","type":"bool","internalType":"bool"}]},{"type":"error","name":"TokenBalanceOutOfBounds","inputs":[{"name":"cid","type":"uint16","internalType":"ClosureId"},{"name":"idx","type":"uint8","internalType":"uint8"},{"name":"attemptedBalance","type":"uint256","internalType":"uint256"},{"name":"minBalance","type":"uint256","internalType":"uint256"},{"name":"maxBalance","type":"uint256","internalType":"uint256"}]},{"type":"error","name":"TokenNotFound","inputs":[{"name":"token","type":"address","internalType":"address"}]},{"type":"error","name":"UninitializedClosure","inputs":[{"name":"","type":"uint16","internalType":"ClosureId"}]},{"type":"error","name":"UninitializedVertex","inputs":[{"name":"","type":"uint24","internalType":"VertexId"}]},{"type":"error","name":"VacuousSwap","inputs":[]},{"type":"error","name":"VaultNotFound","inputs":[{"name":"","type":"address","internalType":"address"}]},{"type":"error","name":"VaultTypeUnrecognized","inputs":[{"name":"","type":"uint8","internalType":"enum VaultType"}]},{"type":"error","name":"VertexLocked","inputs":[{"name":"vid","type":"uint24","internalType":"VertexId"}]},{"type":"error","name":"XTooSmall","inputs":[{"name":"requestedX","type":"uint256","internalType":"uint256"},{"name":"minimumX","type":"uint256","internalType":"uint256"}]}],"bytecode":{"object":"0x608080604052346015576128bf908161001a8239f35b5f80fdfe60806040526004361015610011575f80fd5b5f3560e01c80635adfa137146100445780639600b1f11461003f5763d55f94f51461003a575f80fd5b61031d565b6102ff565b346102975760803660031901126102975761005d61029b565b6100656102b1565b6044359061009061ffff61008961008361007d6102dd565b966106ed565b936106ed565b94166107f6565b905f831315610103576100be6100db6100cf6100ff94876100e0956100c9896100c46100be8462ffffff1690565b60ff1690565b61096b565b92610ad5565b9290929662ffffff1690565b610aa9565b925b604051938493846040919493926060820195825260208201520152565b0390f35b9161011090939193610612565b9260ff82169161012085846108b5565b90825461012e9061ffff1690565b90610146868361ffff600883901c8216161515610997565b61015c9161ffff600883901c8216161515610997565b5f51602061284a5f395f51905f529260ff851691826001850154916101818488610a04565b905460048801959160031b1c6101978287610a04565b905460039190911b1c6101aa91866114df565b916101b5828a610a04565b905460039190911b1c916101c99087610a04565b90546101d9929160031b1c6106b6565b6101e39185611575565b6101ec916106b6565b95866101f88383610a04565b905460039190911b1c61020b8487610a04565b905460039190911b1c61021e9186611575565b9061022891610a32565b9161023291610a04565b905460039190911b1c610244926115c4565b9161024e91610a04565b905460039190911b1c610260916106b6565b60801b9060020154610271906106a4565b8082049106151501909162ffffff1660ff169061028d91610a3f565b906100ff906100e2565b5f80fd5b600435906001600160a01b038216820361029757565b602435906001600160a01b038216820361029757565b604435906001600160a01b038216820361029757565b6064359061ffff8216820361029757565b60a4359061ffff8216820361029757565b34610297575f366003190112610297576020604051635f5e10008152f35b346102975760c03660031901126102975761033661029b565b61033e6102b1565b6103466102c7565b9060643592608435936103576102ee565b947f9b779b17422d0df92223018b32b4d1fa46e071723d6817e2486d003becc55f005c6105ef5760017f9b779b17422d0df92223018b32b4d1fa46e071723d6817e2486d003becc55f005d6103ab846106ed565b61ffff6103b7876106ed565b976103cc62ffffff808b169085161415610627565b16956103d7876107f6565b935f81131561053c57808791988995826103f38762ffffff1690565b60ff16906104009161096b565b9b6104128d635f5e100081101561063d565b61041e8d82898c610eac565b9a909590916104309060ff8516610aa9565b9e8f9661043c92610e17565b9285818110159161044c92610681565b7fdba43ee9916cb156cc32a5d3406e87341e568126a46815294073ba25c9400246986104bb985b816104d7575b505060408051338152602081018f90529081018f9052606081019a909a5250506001600160a01b03948516998516989094169694859450608085019350915050565b0390a46104c6610c33565b604080519182526020820192909252f35b61050e8561050883610503610514998b96610503996105199f8a6104fe91309033906110a8565b61119c565b6112fa565b936106b6565b9161136d565b6113a3565b610524881515610627565b61052f8886836113cf565b85885f8080808c81610479565b61054a879199939899610612565b8099816105598662ffffff1690565b60ff1690610566916108b5565b61057290868c8a610c58565b919b919890969061058a8d635f5e100081101561063d565b6105978d60ff8516610a3f565b6105a4819e829a83610e17565b938a15159a6104bb9a7fdba43ee9916cb156cc32a5d3406e87341e568126a46815294073ba25c94002469c6105db575b5050610473565b816105e89282111561065f565b5f826105d4565b633ee5aeb560e01b5f5260045ffd5b634e487b7160e01b5f52601160045260245ffd5b600160ff1b8114610622575f0390565b6105fe565b1561062e57565b6315a12df760e21b5f5260045ffd5b156106455750565b630d54e9e160e01b5f52600452635f5e100060245260445ffd5b15610668575050565b6396f5447360e01b5f526004526024525f60445260645ffd5b1561068a575050565b6396f5447360e01b5f52600452602452600160445260645ffd5b600160801b9081039190821161062257565b9190820391821161062257565b60ff60089116019060ff821161062257565b9062ffffff8091169116019062ffffff821161062257565b6001600160a01b0381165f8181527f499202b3cbbc90b72fe65bc477c8a608e23616c82a95bd757f890e1b3173e8ae602052604090205460ff16919082159081610784575b5061076857506107588161076061075861074e610765956106c3565b60ff600191161b90565b62ffffff1690565b6106d5565b90565b63de6137d160e01b5f526001600160a01b031660045260245b5ffd5b5f51602061286a5f395f51905f525415915081156107a4575b505f610732565b906107f1575f51602061286a5f395f51905f525f9081527fe1808cd437c343964b1a6c7cb8f4628e5dbe9d0f4ce70dbdd8d743451701e16c546001600160a01b031691909114159061079d565b6109c0565b61ffff1690811561084d57815f527f499202b3cbbc90b72fe65bc477c8a608e23616c82a95bd757f890e1b3173e8fe60205260405f209161ffff8354161561083b5750565b6347de056d60e11b5f5260045260245ffd5b5063bf392cf360e01b5f5260045260245ffd5b634e487b7160e01b5f52604160045260245ffd5b90601f8019910116810190811067ffffffffffffffff82111761089657604052565b610860565b90816020910312610297575190565b6040513d5f823e3d90fd5b5f51602061282a5f395f51905f525461091f926020926001926001600160a01b031691906108e29061148a565b604051633a145e7360e21b81526001600160a01b039091166004820152602481019190915291151560448301529092839190829081906064820190565b03916001600160a01b03165afa908115610966575f9161093d575090565b610765915060203d60201161095f575b6109578183610874565b81019061089b565b503d61094d565b6108aa565b5f51602061282a5f395f51905f525461091f926020925f926001600160a01b031691906108e29061148a565b156109a0575050565b9061ffff62ffffff926338de495760e11b5f52166004521660245260445ffd5b634e487b7160e01b5f52603260045260245ffd5b60108110156107f1577f499202b3cbbc90b72fe65bc477c8a608e23616c82a95bd757f890e1b3173e8ee01905f90565b60108210156107f15701905f90565b600160811b81019190821061062257565b906001820180921161062257565b9190820180921161062257565b5f51602061282a5f395f51905f525461091f926020926001926001600160a01b03169190610a6c9061148a565b6040516301c856ab60e21b81526001600160a01b039091166004820152602481019190915291151560448301529092839190829081906064820190565b5f51602061282a5f395f51905f525461091f926020925f926001600160a01b03169190610a6c9061148a565b80549293919261ffff168084600881901c821661ffff16151591610af892610997565b84600881901c821661ffff16151591610b1092610997565b5f51602061284a5f395f51905f529260ff16916002820154610b32908261168d565b610b3b916106b6565b91600182015491610b4c8286610a04565b905460039190911b1c9060040193610b648386610a04565b9054610b74929160031b1c610a32565b610b7e9184611575565b90610b898186610a04565b905460039190911b1c90610b9d9085610a04565b905460039190911b1c610bb091846114df565b610bb9916106b6565b9360ff168385610bca838097610a04565b905460039190911b1c610bdd8487610a04565b905460039190911b1c610bf091866114df565b90610bfa916106b6565b91610c0491610a04565b905460039190911b1c610c169261161c565b91610c2091610a04565b9054610c30929160031b1c6106b6565b91565b5f7f9b779b17422d0df92223018b32b4d1fa46e071723d6817e2486d003becc55f005d565b909392918154610c699061ffff1690565b610c80868261ffff600883901c8216161515610997565b81600881901c821661ffff16151591610c9892610997565b610ca285836116ee565b610cac81836116ee565b5f51602061284a5f395f51905f529460ff169460ff869216908260018501805493610cd78185610a04565b905460048901969160031b1c610ced8388610a04565b905460039190911b1c610d0091836114df565b90610d0b8387610a04565b905460039190911b1c8a610d1f858a610a04565b9054610d2f929160031b1c6106b6565b90610d3992611575565b610d42916106b6565b97610d4d8287610a04565b9054610d5d929160031b1c6106b6565b610d6791886117e9565b549186610d748383610a04565b905460039190911b1c610d878487610a04565b905460039190911b1c610d9a9186611575565b90610da491610a32565b91610dae91610a04565b905460039190911b1c610dc0926115c4565b95610dca91610a04565b9054610dda9160031b1c866106b6565b94610de591836117e9565b610def8460801b90565b9060020154610dfd906106a4565b808204910615150192610c3090846106b6565b1561029757565b90915f198383099280830292838086109503948086039514610e9957908291610e41868411610e10565b0981610e4c81610612565b168092046002816003021880820260020302808202600203028082026002030280820260020302808202600203028091026002030293600183805f03040190848311900302920304170290565b50509150610ea8821515610e10565b0490565b805491949161ffff168086600881901c821661ffff16151591610ece92610997565b83600881901c821661ffff16151591610ee692610997565b610ef085826116ee565b610efa83826116ee565b5f51602061284a5f395f51905f529460ff166002820154610f1b908661168d565b9485610f26916106b6565b936001830190815492610f39818a610a04565b905460048701959160031b1c88610f508488610a04565b9054610f60929160031b1c610a32565b610f6a9183611575565b90610f75838c610a04565b905460039190911b1c610f888488610a04565b905460039190911b1c90610f9b926114df565b610fa4916106b6565b96610faf8286610a04565b9054610fbf929160031b1c610a32565b610fc991866117e9565b60ff1696878092549187610fdd8383610a04565b905460039190911b1c610ff08488610a04565b905460039190911b1c61100391866114df565b9061100d916106b6565b9161101791610a04565b905460039190911b1c6110299261161c565b91829161103591610a04565b9054611045929160031b1c6106b6565b9561104f926117e9565b565b3d1561108b573d9067ffffffffffffffff82116108965760405191611080601f8201601f191660200184610874565b82523d5f602084013e565b606090565b90816020910312610297575180151581036102975790565b6040516323b872dd60e01b602082019081526001600160a01b0393841660248301529390921660448301526064808301949094529281525f928392909183906110f2608482610874565b51925af16110fe611051565b81611137575b501561110c57565b60405162461bcd60e51b815260206004820152600360248201526229aa2360e91b6044820152606490fd5b805180159250821561114c575b50505f611104565b61115f9250602080918301019101611090565b5f80611144565b8181029291811591840414171561062257565b634e487b7160e01b5f52601260045260245ffd5b8115611197570490565b611179565b9061122b61104f9360166112246112419461121e6112106111d960ff8416966111c960038c0154826116b4565b906111d4828a6118fa565b6106b6565b5f9060158b0194888c87548061129d575b505050611201906111fb8385610a32565b90611a60565b9180611257575b505060801b90565b9160148901549054906106b6565b9061118d565b9401610a04565b91909261123c8385549060031b1c90565b610a32565b82545f1960039390931b92831b1916911b179055565b829161121e8261126d6112739461129697611166565b92610a32565b906111d48c61124161122b8c602761122461128e8960801b90565b8d549061118d565b5f80611208565b61128e9550936112ef92916112e860266112de6112d66112cf6112c46112019a9b88611166565b60148701549061118d565b809761194c565b9a9060801b90565b9201918254610a32565b90556106b6565b919050888c5f6111ea565b62ffffff1690815f527f499202b3cbbc90b72fe65bc477c8a608e23616c82a95bd757f890e1b3173e8ff60205260405f209162ffffff8354161561133b5750565b634f24b97560e01b5f5260045260245ffd5b156113555750565b62ffffff9063e8da114960e01b5f521660045260245ffd5b61104f9261139660ff61139161139e945462ffffff811692839160181c161561134d565b611adf565b928351611fba565b611bae565b61104f926113c861139e9261139162ffffff60ff835460181c1692541680921561134d565b9283611bc5565b60405163a9059cbb60e01b602082019081526001600160a01b03909316602482015260448101939093525f92839290839061141781606481015b03601f198101835282610874565b51925af1611423611051565b8161145b575b501561143157565b60405162461bcd60e51b815260206004820152600260248201526114d560f21b6044820152606490fd5b8051801592508215611470575b50505f611429565b6114839250602080918301019101611090565b5f80611468565b5f51602061286a5f395f51905f52548110156107f1575f51602061286a5f395f51905f525f527fe1808cd437c343964b1a6c7cb8f4628e5dbe9d0f4ce70dbdd8d743451701e16c01546001600160a01b031690565b9291926114ee600182846116c9565b906001600160ff1b0381168103610622578060011b820191828111610622578560801b818101809111610622578282018092116106225761152f9180611c32565b928284116115445750506107659293506106b6565b9061154f8692610a13565b80156111975761155f9104610a24565b9063164797ff60e11b5f5260045260245260445ffd5b9291926115835f82846116c9565b906001600160ff1b0381168103610622578060011b820191828111610622578560801b818101809111610622578282018092116106225761152f9180610e17565b905f826115d0926116c9565b9181830191828411610622576001600160ff1b03811681036106225760011b8301908184116106225781039081116106225761160c9180610e17565b9081039081116106225760801c90565b9060018261162c929594956116c9565b9281840191828511610622576001600160ff1b03811681036106225760011b840190818511610622578103908111610622576116689180611c32565b918203918211610622578160801c809260801b6116825750565b610765919250610a24565b9061169791611c66565b906001600160801b03811615156001169160801b9060801c010190565b906116be91611c66565b60801b9060801c0190565b906116d391611c66565b916001600160801b0382161515169160801b9060801c010190565b60148101549160158201805493848103908082116106225761176060049261175361175b986117709461173e61173861172e8c60ff8d169a8b9101610a04565b90549060031b1c90565b88610a3f565b6117478a6112fa565b8b5461ffff1690612251565b989060801b90565b61118d565b61124161122b8460168901610a04565b815461177e575b5050505050565b61179e61178e611796968361194c565b969060801b90565b83549061118d565b6117ad60268601918254610a32565b9055841561177757602761122461122b936117d76117d16117df9961124198611a60565b60801b90565b90549061118d565b5f80808080611777565b9092919061181a61172e857f499202b3cbbc90b72fe65bc477c8a608e23616c82a95bd757f890e1b3173e8c9610a04565b61183361182c60018401548093611c7a565b91607f1c90565b9080841080156118f1575b80156118e4575b61187457505061104f9293600461185c9201610a04565b90919082549060031b91821b915f19901b1916179055565b836118d49161188688955461ffff1690565b93600160601b8110156118d857915b604051958695632cb1f37160e01b875260048701919260ff608094979695929761ffff60a0860199168552166020840152604083015260608201520152565b0390fd5b50600160601b91611895565b50600160601b8411611845565b5083821061183e565b60108110156107f1577f499202b3cbbc90b72fe65bc477c8a608e23616c82a95bd757f890e1b3173e8d901908154908101809111610622579055565b9190826040910312610297576020825192015190565b7f499202b3cbbc90b72fe65bc477c8a608e23616c82a95bd757f890e1b3173e8b7805492939290919084906001600160a01b03168015611a57576119cc6119c06119c05f966119b3611a07966119a360409961148a565b966001600160a01b038816611d75565b546001600160a01b031690565b6001600160a01b031690565b8351637432795b60e11b81526001600160a01b0390921660048301526001600160801b03871660248301529093849283919082906044820190565b03925af1801561096657610765915f905f92611a25575b50936106b6565b9050611a49915060403d604011611a50575b611a418183610874565b810190611936565b905f611a1e565b503d611a37565b505050505f9190565b9190611a7961104f91611a7285611adf565b9485611db2565b92611bae565b604051906060820182811067ffffffffffffffff82111761089657604052815f81525f602082015260405190602082019082821067ffffffffffffffff83111761089657604082815291611ad4608082610874565b608036823783520152565b90604051916040830183811067ffffffffffffffff82111761089657604052611b06611a7f565b835262ffffff6020840191611b19611a7f565b83528082165f9081527f499202b3cbbc90b72fe65bc477c8a608e23616c82a95bd757f890e1b3173e8af60205260409020548590611b5f906001600160a01b0316611e71565b9052165f9081527f499202b3cbbc90b72fe65bc477c8a608e23616c82a95bd757f890e1b3173e8b060205260409020546001600160a01b031680611ba1575050565b611baa90611e71565b9052565b602061104f91611bbe815161201b565b015161201b565b91906001600160801b03611bda828551612057565b611be485516120dd565b8282168110611c28575b50169283831115611c1d5780611c0885846020945161217f565b01519282039182116106225761104f9261217f565b61104f93505161217f565b829150165f611bee565b929190611c40828286610e17565b9382156111975709611c4e57565b905f19811015610297575f1981146106225760010190565b91905f198184099202918280821091030390565b90611c8491611c66565b8091611c8e575090565b9050600181018091116106225790565b60405163095ea7b360e01b60208083019182526001600160a01b03851660248401525f604484018190529293929091611ce485606481015b03601f198101875286610874565b84519082855af15f51903d81611d49575b501590505b611d0357505050565b60405163095ea7b360e01b60208201526001600160a01b0390931660248401525f604484015261104f92611d4490611d3e8160648101611409565b8261234d565b61234d565b15159050611d695750611cfa6001600160a01b0382163b15155b5f611cf5565b6001611cfa9114611d63565b60405163095ea7b360e01b60208281019182526001600160a01b03851660248401526044830195909552929390925f90611ce48560648101611cd6565b92919060ff1692611dc660015f8351612098565b6001600160801b0380611ddf60015f6020870151612098565b169116016001600160801b03811161062257611e04836001600160801b039351611f4f565b1680611e3057506064810290808204606414901517156106225761104f905b61124161122b82956109d4565b611e4d61104f92611e40866109d4565b90549060031b1c90611166565b04611e23565b60021115611e5d57565b634e487b7160e01b5f52602160045260245ffd5b90611e7a611a7f565b9160018060a01b0381165f527f499202b3cbbc90b72fe65bc477c8a608e23616c82a95bd757f890e1b3173e8b160205260ff60405f2054166002811015611e5d57806001916020860152611ecd81611e53565b611ed681611e53565b03611f22576001600160a01b03165f9081527f499202b3cbbc90b72fe65bc477c8a608e23616c82a95bd757f890e1b3173e8b26020526040902061104f908084526040840151906123a5565b63c02219d960e01b5f526001600160a01b031660045260245ffd5b906024916002811015611e5d57600452565b8051158015611fb2575b611fae576020810180516002811015611e5d5780611f78600192611e53565b03611f915750905f82604061104f9451910151906124d1565b6107819051611f9f81611e53565b631dd8be1560e31b5f52611f3d565b5050565b508115611f59565b9291908351158015612013575b61200d57602084019384516002811015611e5d5780611fe7600192611e53565b03611fff5761104f93945060408151910151906124d1565b6107818551611f9f81611e53565b50509050565b508115611fc7565b805115612054576020810180516002811015611e5d578061203d600192611e53565b03611f91575080604061104f92519101519061257d565b50565b805115612092576020810180516002811015611e5d5780612079600192611e53565b03611f915750610765918160405f935191015190612773565b50505f90565b9291908351156120d657602084019384516002811015611e5d57806120be600192611e53565b03611fff576107659394506040815191015190612773565b505f925050565b80511561217a576020810180516002811015611e5d57806120ff600192611e53565b03611f915750516001015460405163ce96cb7760e01b815230600482015290602090829060249082906001600160a01b03165afa908115610966576107659161214f915f9161215b575b5061280e565b6001600160801b031690565b612174915060203d60201161095f576109578183610874565b5f612149565b505f90565b908151158015612249575b612244576020820180516002811015611e5d57806121a9600192611e53565b03611f915750604082519201516121cb602082510151606083510151906116b4565b91815151928301809311610622576040825101518303928311610622576122119060036121fe6004870195888754610e17565b95019061ffff165f5260205260405f2090565b9182549284840393841161062257611baa9461223c94612233925582546106b6565b90555160400190565b918251610a32565b505050565b50821561218a565b91949392909262ffffff8354169561226887611adf565b96876001600160801b038061228e5f8a602061228683838951612098565b960151612098565b169116016001600160801b038111610622576001600160801b0316908183116123005750936122e16122fa946122ed9897946122db6122d36122f39661104f9a6106b6565b80978d611bc5565b85610e17565b9687915462ffffff1690565b926106b6565b9086611db2565b93611bae565b9450925090507f597e13956fe737c1742c99b18e6895b87dbf00726021c3575716b3d18ad0d80894955061ffff60809460405194855216602084015260408301526060820152a15f905f90565b905f602091828151910182855af1156108aa575f513d61239c57506001600160a01b0381163b155b61237c5750565b635274afe760e01b5f9081526001600160a01b0391909116600452602490fd5b60011415612375565b906123e5602060026123c36119c0600187015460018060a01b031690565b9401546040518093819263266d6a8360e11b8352600483019190602083019252565b0381865afa908115610966575f916124b2575b5081515260405163ef8b30f760e01b8152600160801b6004820152602081602481865afa801561096657612451936020925f92612493575b50604051808096819463266d6a8360e11b8352600483019190602083019252565b03915afa918215610966575f9261246e575b505160600152565b52565b61246b91925061248c9060203d60201161095f576109578183610874565b9190612463565b6124ab919250833d851161095f576109578183610874565b905f612430565b6124cb915060203d60201161095f576109578183610874565b5f6123f8565b90611baa92612561600461223c9461254b61251861250b6125036020895101516124fc8a5160600190565b519061168d565b885151610a32565b87516040015b51906106b6565b61252d612526885160600190565b518b6116b4565b908061256a5750945b600383019061ffff165f5260205260405f2090565b612556858254610a32565b905501918254610a32565b90555160200190565b6125779185850154610e17565b94612536565b9061259561258c825160200190565b51915160400190565b51918115158061276a575b612740575b81156126945780545f9350602090612622906001600160a01b0316936125e38160018601966125dd6119c0895460018060a01b031690565b90611d75565b84546125f7906001600160a01b03166119c0565b604051636e553f6560e01b815260048101929092523060248301529095869283919082906044820190565b03925af180156109665761266161266f926119c09261104f965f91612675575b5061265260028301918254610a32565b9055546001600160a01b031690565b92546001600160a01b031690565b90611c9e565b61268e915060203d60201161095f576109578183610874565b5f612642565b90508161269f575050565b60018101545f926020916126f291906126c0906001600160a01b03166119c0565b604051632d182be560e21b81526004810192909252306024830181905260448301529094859283919082906064820190565b03925af1918215610966575f92612718575b50600261271491019182546106b6565b9055565b61271491925061273860029160203d60201161095f576109578183610874565b929150612704565b91908181111561275b5790612754916106b6565b5f916125a5565b811115611fae575f90916125a5565b508215156125a0565b909260048201549182156128055761279782602087510151606088510151906116c9565b948051519586018096116106225751610765956127b691604001612511565b91156127e3576127de9360036127d892019061ffff165f5260205260405f2090565b54611c32565b61280e565b6127de9360036127ff92019061ffff165f5260205260405f2090565b54610e17565b50505050505f90565b6001600160801b0381111561214f57506001600160801b039056fe499202b3cbbc90b72fe65bc477c8a608e23616c82a95bd757f890e1b3173e8b6499202b3cbbc90b72fe65bc477c8a608e23616c82a95bd757f890e1b3173e8b9499202b3cbbc90b72fe65bc477c8a608e23616c82a95bd757f890e1b3173e8ada2646970667358221220aaba5cdcb39c54858789a0edb9becaf3f82d1344491e5f873d5591cc306e994164736f6c634300081c0033","linkReferences":{}},"methodIdentifiers":{"MIN_SWAP_SIZE()":"9600b1f1","simSwap(address,address,int256,uint16)":"5adfa137","swap(address,address,address,int256,uint256,uint16)":"d55f94f5"},"id":81}