{"abi":[{"type":"constructor","inputs":[{"name":"_assetToken","type":"address","internalType":"address"}],"stateMutability":"nonpayable"},{"type":"function","name":"assetToken","inputs":[],"outputs":[{"name":"","type":"address","internalType":"address"}],"stateMutability":"view"},{"type":"function","name":"cacheAdjustment","inputs":[{"name":"token","type":"address","internalType":"address"}],"outputs":[],"stateMutability":"nonpayable"},{"type":"function","name":"toNominal","inputs":[{"name":"token","type":"address","internalType":"address"},{"name":"real","type":"int256","internalType":"int256"},{"name":"","type":"bool","internalType":"bool"}],"outputs":[{"name":"nominal","type":"int256","internalType":"int256"}],"stateMutability":"view"},{"type":"function","name":"toNominal","inputs":[{"name":"token","type":"address","internalType":"address"},{"name":"real","type":"uint256","internalType":"uint256"},{"name":"","type":"bool","internalType":"bool"}],"outputs":[{"name":"nominal","type":"uint256","internalType":"uint256"}],"stateMutability":"view"},{"type":"function","name":"toReal","inputs":[{"name":"token","type":"address","internalType":"address"},{"name":"nominal","type":"uint256","internalType":"uint256"},{"name":"","type":"bool","internalType":"bool"}],"outputs":[{"name":"real","type":"uint256","internalType":"uint256"}],"stateMutability":"view"},{"type":"function","name":"toReal","inputs":[{"name":"token","type":"address","internalType":"address"},{"name":"nominal","type":"int256","internalType":"int256"},{"name":"","type":"bool","internalType":"bool"}],"outputs":[{"name":"real","type":"int256","internalType":"int256"}],"stateMutability":"view"},{"type":"error","name":"AssetMismatch","inputs":[{"name":"incorrectAsset","type":"address","internalType":"address"},{"name":"correctAsset","type":"address","internalType":"address"}]},{"type":"error","name":"UnsafeICast","inputs":[{"name":"val","type":"uint256","internalType":"uint256"},{"name":"max","type":"int256","internalType":"int256"}]}],"bytecode":{"object":"0x608034606f57601f6105ae38819003918201601f19168301916001600160401b03831184841017607357808492602094604052833981010312606f57516001600160a01b03811690819003606f575f80546001600160a01b03191691909117905560405161052690816100888239f35b5f80fd5b634e487b7160e01b5f52604160045260245ffdfe60806040526004361015610011575f80fd5b5f3560e01c806307215aac146101745780631083f7611461014d5780636216c03914610133578063814eaa8c14610111578063e85179cc1461007a5763ecac2c9c1461005b575f80fd5b34610076576020366003190112610076576100746101cc565b005b5f80fd5b3461007657602061008a366101e2565b5091906001600160a01b039061009f90610419565b16916024604051809481936363737ac960e11b835260048301525afa8015610106575f906100d3575b602090604051908152f35b506020813d6020116100fe575b816100ed60209383610215565b8101031261007657602090516100c8565b3d91506100e0565b6040513d5f823e3d90fd5b3461007657602061012b610124366101e2565b509061037d565b604051908152f35b3461007657602061012b610146366101e2565b509061026f565b34610076575f366003190112610076575f546040516001600160a01b039091168152602090f35b34610076576020610184366101e2565b5091906001600160a01b039061019990610419565b16916024604051809481936303d1689d60e11b835260048301525afa8015610106575f906100d357602090604051908152f35b600435906001600160a01b038216820361007657565b6060906003190112610076576004356001600160a01b038116810361007657906024359060443580151581036100765790565b90601f8019910116810190811067ffffffffffffffff82111761023757604052565b634e487b7160e01b5f52604160045260245ffd5b600160ff1b811461025b575f0390565b634e487b7160e01b5f52601160045260245ffd5b61027a602091610419565b915f81126102f8576040516303d1689d60e11b8152600481019190915291829060249082906001600160a01b03165afa8015610106575f906102c4575b6102c191506104bd565b90565b506020813d6020116102f0575b816102de60209383610215565b81010312610076576102c190516102b7565b3d91506102d1565b6103019061024b565b6040516303d1689d60e11b8152600481019190915291829060249082906001600160a01b03165afa908115610106575f91610349575b506103446102c1916104bd565b61024b565b90506020813d602011610375575b8161036460209383610215565b810103126100765751610344610337565b3d9150610357565b610388602091610419565b915f81126103ce576040516363737ac960e11b8152600481019190915291829060249082906001600160a01b03165afa8015610106575f906102c4576102c191506104bd565b6103d79061024b565b6040516363737ac960e11b8152600481019190915291829060249082906001600160a01b03165afa908115610106575f9161034957506103446102c1916104bd565b6040516338d52e0f60e01b81526001600160a01b03919091169190602081600481865afa908115610106575f9161047b575b505f546001600160a01b039081169116818103610466575050565b634e83a9b960e01b5f5260045260245260445ffd5b90506020813d6020116104b5575b8161049660209383610215565b8101031261007657516001600160a01b0381168103610076575f61044b565b3d9150610489565b6001600160ff1b0381116104ce5790565b63632a768b60e01b5f9081526004919091526001600160ff1b03602452604490fdfea26469706673582212208ad302f9587423634d2aabd5982425d24bc1c13c5e3bc961b5df05ef8f1931cb64736f6c634300081c0033","linkReferences":{}},"methodIdentifiers":{"assetToken()":"1083f761","cacheAdjustment(address)":"ecac2c9c","toNominal(address,int256,bool)":"814eaa8c","toNominal(address,uint256,bool)":"e85179cc","toReal(address,int256,bool)":"6216c039","toReal(address,uint256,bool)":"07215aac"},"id":65}