{"abi":[{"type":"function","name":"ADD_DELAY","inputs":[],"outputs":[{"name":"","type":"uint32","internalType":"uint32"}],"stateMutability":"view"},{"type":"function","name":"acceptVault","inputs":[{"name":"token","type":"address","internalType":"address"}],"outputs":[],"stateMutability":"nonpayable"},{"type":"function","name":"addVault","inputs":[{"name":"token","type":"address","internalType":"address"},{"name":"vault","type":"address","internalType":"address"},{"name":"vType","type":"uint8","internalType":"enum VaultType"}],"outputs":[],"stateMutability":"nonpayable"},{"type":"function","name":"hotSwap","inputs":[{"name":"token","type":"address","internalType":"address"}],"outputs":[],"stateMutability":"nonpayable"},{"type":"function","name":"removeVault","inputs":[{"name":"vault","type":"address","internalType":"address"}],"outputs":[],"stateMutability":"nonpayable"},{"type":"function","name":"transferBalance","inputs":[{"name":"fromVault","type":"address","internalType":"address"},{"name":"toVault","type":"address","internalType":"address"},{"name":"cid","type":"uint16","internalType":"uint16"},{"name":"amount","type":"uint256","internalType":"uint256"}],"outputs":[],"stateMutability":"nonpayable"},{"type":"function","name":"vetoVault","inputs":[{"name":"token","type":"address","internalType":"address"}],"outputs":[],"stateMutability":"nonpayable"},{"type":"function","name":"viewVaults","inputs":[{"name":"token","type":"address","internalType":"address"}],"outputs":[{"name":"active","type":"address","internalType":"address"},{"name":"backup","type":"address","internalType":"address"}],"stateMutability":"view"},{"type":"event","name":"PreCommit","inputs":[{"name":"useId","type":"uint256","indexed":true,"internalType":"uint256"},{"name":"submitter","type":"address","indexed":true,"internalType":"address"},{"name":"entry","type":"bytes","indexed":false,"internalType":"bytes"}],"anonymous":false},{"type":"event","name":"VaultInstalled","inputs":[{"name":"token","type":"address","indexed":false,"internalType":"address"},{"name":"vault","type":"address","indexed":false,"internalType":"address"}],"anonymous":false},{"type":"event","name":"VaultMigrated","inputs":[{"name":"token","type":"address","indexed":false,"internalType":"address"},{"name":"fromVault","type":"address","indexed":false,"internalType":"address"},{"name":"toVault","type":"address","indexed":false,"internalType":"address"}],"anonymous":false},{"type":"event","name":"VaultVetoed","inputs":[{"name":"token","type":"address","indexed":false,"internalType":"address"}],"anonymous":false},{"type":"error","name":"ExistingPrecommitFound","inputs":[{"name":"useId","type":"uint256","internalType":"uint256"}]},{"type":"error","name":"NoBackup","inputs":[{"name":"","type":"uint24","internalType":"VertexId"}]},{"type":"error","name":"NoPrecommitFound","inputs":[{"name":"useId","type":"uint256","internalType":"uint256"}]},{"type":"error","name":"NotOwner","inputs":[]},{"type":"error","name":"PrematureParamUpdate","inputs":[{"name":"useId","type":"uint256","internalType":"uint256"},{"name":"expectedTime","type":"uint64","internalType":"uint64"},{"name":"actualTime","type":"uint64","internalType":"uint64"}]},{"type":"error","name":"RemainingVaultBalance","inputs":[{"name":"","type":"uint256","internalType":"uint256"}]},{"type":"error","name":"SafeERC20FailedOperation","inputs":[{"name":"token","type":"address","internalType":"address"}]},{"type":"error","name":"TokenNotFound","inputs":[{"name":"token","type":"address","internalType":"address"}]},{"type":"error","name":"VaultExists","inputs":[{"name":"","type":"address","internalType":"address"}]},{"type":"error","name":"VaultInUse","inputs":[{"name":"","type":"address","internalType":"address"},{"name":"","type":"uint24","internalType":"VertexId"}]},{"type":"error","name":"VaultNotFound","inputs":[{"name":"","type":"address","internalType":"address"}]},{"type":"error","name":"VaultTypeNotRecognized","inputs":[{"name":"","type":"uint8","internalType":"enum VaultType"}]},{"type":"error","name":"VaultTypeUnrecognized","inputs":[{"name":"","type":"uint8","internalType":"enum VaultType"}]},{"type":"error","name":"VertexVaultsOccupied","inputs":[{"name":"","type":"uint24","internalType":"VertexId"}]}],"bytecode":{"object":"0x60808060405234601557611a18908161001a8239f35b5f80fdfe60806040526004361015610011575f80fd5b5f3560e01c80630e6a80621461009457806313b632191461008f5780638a789cda1461008a578063907d17cd14610085578063a04ff32a14610080578063a337e8791461007b578063b260c304146100765763ceb68c2314610071575f80fd5b61070b565b610697565b61061c565b6105ff565b61057a565b61044f565b6101f0565b346101db5760203660031901126101db576004356100b1816101df565b6100b96109e3565b6100c281610a68565b6001600160a01b036100d382610ba0565b5416156101c3577f90a8c4727ebb773bd99c941fb1a26345deac1f20caec090e2311a04a9e8d3026916101be6001600160a01b0361012a8462ffffff165f525f5160206119c35f395f51905f5260205260405f2090565b5416926101938461016f6001600160a01b0361014585610ba0565b54169361018e8561016f8362ffffff165f525f5160206119c35f395f51905f5260205260405f2090565b80546001600160a01b0319166001600160a01b03909216919091179055565b610ba0565b604080516001600160a01b039485168152948416602086015292169183019190915281906060820190565b0390a1005b62ffffff9063dcb1d82360e01b5f521660045260245ffd5b5f80fd5b6001600160a01b038116036101db57565b346101db5760203660031901126101db5760043561020d816101df565b6102156109e3565b6001600160a01b038116610227610f65565b50610230610f65565b50805f525f5160206119a35f395f51905f5260205260405f2060016040519161025883610987565b80546001600160401b0381168452828060a01b039060401c166020840152019160405192835f82549261028a84610ddf565b808452936001811690811561042357506001146103df575b506102af925003846109c2565b604082019283526102dc6102d7825f525f5160206119a35f395f51905f5260205260405f2090565b610f84565b6001600160401b036102f583516001600160401b031690565b16156103cd5761031e6103196001600160401b03421693516001600160401b031690565b610bd2565b906001600160401b03821683106103a8577f5ccc6b3bc5c100385cf86ebcaea8df126d129b7964dc3ec8b741375c56d94c5e61038586610368875160208082518301019101610920565b6001600160a01b039091169290838361038081610a68565b610c1a565b604080516001600160a01b039283168152929091166020830152819081016101be565b636fb4ac2f60e11b5f526004526001600160401b039081166024521660445260645b5ffd5b632345866f60e21b5f5260045260245ffd5b90505f9291925260205f20905f915b8183106104075750509060206102af928201015f6102a2565b6020919350806001915483858a010152019101909185926103ee565b9050602092506102af94915060ff191682840152151560051b8201015f6102a2565b600211156101db57565b346101db5760603660031901126101db5760043561046c816101df565b60243590610479826101df565b6104b660443561048881610445565b6104906109e3565b61049983610a68565b50604080516001600160a01b039095166020860152840190610966565b604082526104c56060836109c2565b6001600160a01b03165f8181525f5160206119a35f395f51905f526020526040902080546001600160401b038116610567576001600160e01b031916426001600160401b0316173360401b68010000000000000000600160e01b0316178155610532908390600101610e70565b7f30179c43d64c20f02892c9c3d3cfed2f07a0b3b87465ed292d613c0b0a9e411160405180610562339582610f3b565b0390a3005b82635807b67560e01b5f5260045260245ffd5b346101db5760203660031901126101db5761059f60043561059a816101df565b610a68565b6001600160a01b036105ca8262ffffff165f525f5160206119c35f395f51905f5260205260405f2090565b5416906001600160a01b03906105df90610ba0565b54604080516001600160a01b039485168152929091169092166020820152f35b346101db575f3660031901126101db576020604051620697808152f35b346101db5760203660031901126101db577f2ea8ae92147125b41fe1e85fcb103e7555e86fb4efc5203bc586cb790434be0d602060043561065c816101df565b6106646109e3565b6001600160a01b03165f8181525f5160206119a35f395f51905f5283526040902061068e90610f84565b604051908152a1005b346101db5760803660031901126101db576004356106b4816101df565b6024356106c0816101df565b6044359061ffff82168092036101db57610709926107026106fd926106ed6106f2606435946106ed6109e3565b610ff6565b6106fd8588836110f5565b61116c565b92836111b8565b005b346101db5760203660031901126101db57600435610728816101df565b6107306109e3565b61074161073c82610ff6565b611205565b600a811161090e57506001600160a01b0381165f9081527f499202b3cbbc90b72fe65bc477c8a608e23616c82a95bd757f890e1b3173e8b360208190526040909120545f5160206119c35f395f51905f529062ffffff166107bf6107b282849062ffffff165f5260205260405f2090565b546001600160a01b031690565b6001600160a01b038581169116146108ea576107ee6107fe91600184019062ffffff165f5260205260405f2090565b80546001600160a01b0319169055565b6002810161084d6108438561082d61082682869060018060a01b03165f5260205260405f2090565b5460ff1690565b939060018060a01b03165f5260205260405f2090565b805460ff19169055565b61085681610948565b600181036108d7576107096108cb85856108b661088683600389019060018060a01b03165f5260205260405f2090565b6001906bffffffffffffffffffffffff60a01b8154168155016bffffffffffffffffffffffff60a01b8154169055565b9060018060a01b03165f5260205260405f2090565b805462ffffff19169055565b633658451360e21b5f526103ca90610c0a565b6346d3b3a560e01b5f526001600160a01b03841660045262ffffff1660245260445ffd5b63400f086560e01b5f5260045260245ffd5b91908260409103126101db5760208251610939816101df565b92015161094581610445565b90565b6002111561095257565b634e487b7160e01b5f52602160045260245ffd5b9060028210156109525752565b634e487b7160e01b5f52604160045260245ffd5b606081019081106001600160401b038211176109a257604052565b610973565b602081019081106001600160401b038211176109a257604052565b90601f801991011681019081106001600160401b038211176109a257604052565b7ffe60050de8c303e9e73c33538bcf1b0b6509d1437c01221e10b4d2281a279267546001600160a01b03163303610a1657565b6330cd747160e01b5f5260045ffd5b634e487b7160e01b5f52601160045260245ffd5b60ff60089116019060ff8211610a4b57565b610a25565b9062ffffff8091169116019062ffffff8211610a4b57565b6001600160a01b0381165f8181527f499202b3cbbc90b72fe65bc477c8a608e23616c82a95bd757f890e1b3173e8ae602052604090205460ff16919082159081610afb575b50610ae05750610ad381610adb610ad3610ac961094595610a39565b60ff600191161b90565b62ffffff1690565b610a50565b63de6137d160e01b5f526001600160a01b031660045260245ffd5b7f499202b3cbbc90b72fe65bc477c8a608e23616c82a95bd757f890e1b3173e8ad541591508115610b2e575b505f610aad565b90610b8c577f499202b3cbbc90b72fe65bc477c8a608e23616c82a95bd757f890e1b3173e8ad5f527fe1808cd437c343964b1a6c7cb8f4628e5dbe9d0f4ce70dbdd8d743451701e16c546001600160a01b039081161614155f610b27565b634e487b7160e01b5f52603260045260245ffd5b62ffffff165f527f499202b3cbbc90b72fe65bc477c8a608e23616c82a95bd757f890e1b3173e8b060205260405f2090565b6001600160401b0362069780911601906001600160401b038211610a4b57565b9060028110156109525760ff80198354169116179055565b90610c186004602493610966565b565b92905f5160206119c35f395f51905f529160018060a01b03610c4c6107b287869062ffffff165f5260205260405f2090565b16610d7657610c6c8461016f87869062ffffff165f5260205260405f2090565b6001600160a01b0384165f9081526002840160208190526040909120610c9190610826565b610c9a81610948565b610d5a5781610cbc86610cc1939060018060a01b03165f5260205260405f2090565b610bf2565b610cca81610948565b600181036108d7575091600482610d3183610c189796610d00826003610d4799019060018060a01b03165f5260205260405f2090565b80546001600160a01b03199081166001600160a01b0393841617825560019091018054939092169216919091179055565b019060018060a01b03165f5260205260405f2090565b9062ffffff1662ffffff19825416179055565b630e0e876760e31b5f526001600160a01b03851660045260245ffd5b60018301610da3610d976107b288849062ffffff165f5260205260405f2090565b6001600160a01b031690565b610dc7578461016f87610dc2939062ffffff165f5260205260405f2090565b610c6c565b639103aec960e01b5f5262ffffff861660045260245ffd5b90600182811c92168015610e0d575b6020831014610df957565b634e487b7160e01b5f52602260045260245ffd5b91607f1691610dee565b818110610e22575050565b5f8155600101610e17565b9190601f8111610e3c57505050565b610c18925f5260205f20906020601f840160051c83019310610e66575b601f0160051c0190610e17565b9091508190610e59565b91909182516001600160401b0381116109a257610e9781610e918454610ddf565b84610e2d565b6020601f8211600114610ed6578190610ec79394955f92610ecb575b50508160011b915f199060031b1c19161790565b9055565b015190505f80610eb3565b601f19821690610ee9845f5260205f2090565b915f5b818110610f2357509583600195969710610f0b575b505050811b019055565b01515f1960f88460031b161c191690555f8080610f01565b9192602060018192868b015181550194019201610eec565b602060409281835280519182918282860152018484015e5f828201840152601f01601f1916010190565b60405190610f7282610987565b60606040835f81525f60208201520152565b6001905f815501610f958154610ddf565b9081610f9f575050565b81601f5f9311600114610fb0575055565b81835260208320610fcc91601f0160051c810190600101610e17565b808252602082209081548360011b9084198560031b1c191617905555565b60028210156109525752565b906040519061100482610987565b5f825260208201915f83526040810160405161101f816109a7565b60405161102d6080826109c2565b6080368237815281526001600160a01b0385165f9081527f499202b3cbbc90b72fe65bc477c8a608e23616c82a95bd757f890e1b3173e8b160205260409020919384925f5160206119c35f395f51905f52916001916110959061108f90610826565b82610fea565b5161109f81610948565b6110a881610948565b036110d957610c1893949560036110cf92019060018060a01b03165f5260205260405f2090565b809252519061125e565b63c02219d960e01b5f526001600160a01b03861660045260245ffd5b9291908351158015611164575b61115e576020840193845160028110156109525780611122600192610948565b0361113a57610c1893945060408151910151906113b9565b6111596004865161114a81610948565b631dd8be1560e31b5f52610966565b60245ffd5b50509050565b508115611102565b8051156111b5576020810180516002811015610952578061118e600192610948565b036111a55750806040610c1892519101519061144d565b6004611159915161114a81610948565b50565b92919083511580156111fd575b61115e5760208401938451600281101561095257806111e5600192610948565b0361113a57610c189394506040815191015190611640565b5081156111c5565b80511561123f5760208101805160028110156109525780611227600192610948565b036111a557505f8160406109459351910151906116eb565b505f90565b908160209103126101db575190565b6040513d5f823e3d90fd5b9061129e6020600261127c610d97600187015460018060a01b031690565b9401546040518093819263266d6a8360e11b8352600483019190602083019252565b0381865afa90811561135c575f91611380575b5081515260405163ef8b30f760e01b8152600160801b6004820152602081602481865afa801561135c5761130a936020925f92611361575b50604051808096819463266d6a8360e11b8352600483019190602083019252565b03915afa91821561135c575f92611327575b505160600152565b52565b61132491925061134e9060203d602011611355575b61134681836109c2565b810190611244565b919061131c565b503d61133c565b611253565b611379919250833d85116113555761134681836109c2565b905f6112e9565b611399915060203d6020116113555761134681836109c2565b5f6112b1565b91908201809211610a4b57565b91908203918211610a4b57565b91906113d06020825101516060835101519061174c565b91815151928301809311610a4b576040825101518303928311610a4b5761141690600361140360048701958887546117a9565b95019061ffff165f5260205260405f2090565b91825492848403938411610a4b576114499461144194611438925582546113ac565b90555160400190565b91825161139f565b9052565b9061146561145c825160200190565b51915160400190565b519181151580611637575b61160d575b81156115645780545f93506020906114f2906001600160a01b0316936114b38160018601966114ad610d97895460018060a01b031690565b9061190b565b84546114c7906001600160a01b0316610d97565b604051636e553f6560e01b815260048101929092523060248301529095869283919082906044820190565b03925af1801561135c5761153161153f92610d9792610c18965f91611545575b506115226002830191825461139f565b9055546001600160a01b031690565b92546001600160a01b031690565b9061183e565b61155e915060203d6020116113555761134681836109c2565b5f611512565b905081611570575b5050565b60018101545f926020916115c39190611591906001600160a01b0316610d97565b604051632d182be560e21b81526004810192909252306024830181905260448301529094859283919082906064820190565b03925af191821561135c575f926115e5575b506002610ec791019182546113ac565b610ec791925061160560029160203d6020116113555761134681836109c2565b9291506115d5565b9190818111156116285790611621916113ac565b5f91611475565b81111561156c575f9091611475565b50821515611470565b90611449926116cf6004611441946116b961168661167a61167260208951015161166b8a5160600190565b5190611767565b88515161139f565b875160400151906113ac565b61169b611694885160600190565b518b61174c565b90806116d85750945b600383019061ffff165f5260205260405f2090565b6116c485825461139f565b90550191825461139f565b90555160200190565b6116e591858501546117a9565b946116a4565b60040154909190156117465760208251015190606083510151905f198284099282810292600160801b9109151516918180821091030360801b9060801c0101815151908101809111610a4b57604061094592510151906113ac565b50505f90565b905f198183099102908180821091030360801b9060801c0190565b905f198183099181810291600160801b91091515600116918180821091030360801b9060801c010190565b156101db57565b600160ff1b8114610a4b575f0390565b90915f19838309928083029283808610950394808603951461182b579082916117d3868411611792565b09816117de81611799565b168092046002816003021880820260020302808202600203028082026002030280820260020302808202600203028091026002030293600183805f03040190848311900302920304170290565b5050915061183a821515611792565b0490565b6040519060205f81840163095ea7b360e01b815260018060a01b0386166024860152816044860152604485526118756064866109c2565b84519082855af15f51903d816118df575b501590505b61189457505050565b60405163095ea7b360e01b60208201526001600160a01b039390931660248401525f6044808501919091528352610c18926118da906118d46064826109c2565b8261194a565b61194a565b151590506118ff575061188b6001600160a01b0382163b15155b5f611886565b600161188b91146118f9565b60405163095ea7b360e01b60208281019182526001600160a01b0385166024840152604480840196909652948252929390925f906118756064866109c2565b905f602091828151910182855af115611253575f513d61199957506001600160a01b0381163b155b6119795750565b635274afe760e01b5f9081526001600160a01b0391909116600452602490fd5b6001141561197256fe17f01c17e066e33ab1eb361d9c95b7ef37a5d3118e9d8eb5595eb37a0502ebd0499202b3cbbc90b72fe65bc477c8a608e23616c82a95bd757f890e1b3173e8afa2646970667358221220edbfda9d35a53523b066e48e7c52be5b43ebe89b9f1b7a5f169141be3776d3c464736f6c634300081c0033","linkReferences":{}},"methodIdentifiers":{"ADD_DELAY()":"a04ff32a","acceptVault(address)":"13b63219","addVault(address,address,uint8)":"8a789cda","hotSwap(address)":"0e6a8062","removeVault(address)":"ceb68c23","transferBalance(address,address,uint16,uint256)":"b260c304","vetoVault(address)":"a337e879","viewVaults(address)":"907d17cd"},"id":84}