{"abi":[{"type":"constructor","inputs":[],"stateMutability":"nonpayable"},{"type":"function","name":"adjAddr","inputs":[{"name":"token","type":"address","internalType":"address"}],"outputs":[{"name":"adjustor","type":"address","internalType":"address"}],"stateMutability":"view"},{"type":"function","name":"cacheAdjustment","inputs":[{"name":"token","type":"address","internalType":"address"}],"outputs":[],"stateMutability":"nonpayable"},{"type":"function","name":"defAdj","inputs":[],"outputs":[{"name":"","type":"address","internalType":"address"}],"stateMutability":"view"},{"type":"function","name":"setAdjustor","inputs":[{"name":"token","type":"address","internalType":"address"},{"name":"adjustor","type":"address","internalType":"address"}],"outputs":[],"stateMutability":"nonpayable"},{"type":"function","name":"setDefaultAdjustor","inputs":[{"name":"adjustor","type":"address","internalType":"address"}],"outputs":[],"stateMutability":"nonpayable"},{"type":"function","name":"toNominal","inputs":[{"name":"token","type":"address","internalType":"address"},{"name":"real","type":"int256","internalType":"int256"},{"name":"roundUp","type":"bool","internalType":"bool"}],"outputs":[{"name":"nominal","type":"int256","internalType":"int256"}],"stateMutability":"view"},{"type":"function","name":"toNominal","inputs":[{"name":"token","type":"address","internalType":"address"},{"name":"real","type":"uint256","internalType":"uint256"},{"name":"roundUp","type":"bool","internalType":"bool"}],"outputs":[{"name":"nominal","type":"uint256","internalType":"uint256"}],"stateMutability":"view"},{"type":"function","name":"toReal","inputs":[{"name":"token","type":"address","internalType":"address"},{"name":"nominal","type":"uint256","internalType":"uint256"},{"name":"roundUp","type":"bool","internalType":"bool"}],"outputs":[{"name":"real","type":"uint256","internalType":"uint256"}],"stateMutability":"view"},{"type":"function","name":"toReal","inputs":[{"name":"token","type":"address","internalType":"address"},{"name":"nominal","type":"int256","internalType":"int256"},{"name":"roundUp","type":"bool","internalType":"bool"}],"outputs":[{"name":"real","type":"int256","internalType":"int256"}],"stateMutability":"view"},{"type":"error","name":"CannotReinitializeOwner","inputs":[{"name":"existingOwner","type":"address","internalType":"address"}]},{"type":"error","name":"NotOwner","inputs":[]}],"bytecode":{"object":"0x6080806040523460cb575f5160206107845f395f51905f52546001600160a01b03168060b957505f5160206107845f395f51905f5280546001600160a01b031916331790556101158181016001600160401b0381118382101760a557829161066f833903905ff08015609a57600180546001600160a01b0319166001600160a01b039290921691909117905560405161059f90816100d08239f35b6040513d5f823e3d90fd5b634e487b7160e01b5f52604160045260245ffd5b631652a8fb60e01b5f5260045260245ffd5b5f80fdfe60806040526004361015610011575f80fd5b5f5f3560e01c806304f5e16b1461046557806307215aac146103de5780630866c15a1461039f5780632b13b444146103775780636216c039146102f0578063814eaa8c14610269578063a43f0b6f14610209578063e85179cc1461012a5763ecac2c9c1461007d575f80fd5b34610114576020366003190112610114576001600160a01b0361009e6104a8565b165f818152602081905260409020546001600160a01b03168015610118575b6001600160a01b031690813b15610114575f91602483926040519485938492633b2b0b2760e21b845260048401525af18015610109576100fb575080f35b61010791505f906104f1565b005b6040513d5f823e3d90fd5b5f80fd5b506001546001600160a01b03166100bd565b346101145761019e602061013d366104be565b6001600160a01b038084165f908152808652604090205491939116919082156101f6575b604051633a145e7360e21b81526001600160a01b039091166004820152602481019190915291151560448301529092839190829081906064820190565b03916001600160a01b03165afa8015610109575f906101c3575b602090604051908152f35b506020813d6020116101ee575b816101dd602093836104f1565b8101031261011457602090516101b8565b3d91506101d0565b6001546001600160a01b03169250610161565b34610114576040366003190112610114576102226104a8565b6024356001600160a01b038116919082900361011457610240610527565b6001600160a01b03165f90815260208190526040902080546001600160a01b0319169091179055005b346101145761019e602061027c366104be565b6001600160a01b038084165f908152808652604090205491939116919082156102dd575b604051632053aaa360e21b81526001600160a01b039091166004820152602481019190915291151560448301529092839190829081906064820190565b6001546001600160a01b031692506102a0565b346101145761019e6020610303366104be565b6001600160a01b038084165f90815280865260409020549193911691908215610364575b604051636216c03960e01b81526001600160a01b039091166004820152602481019190915291151560448301529092839190829081906064820190565b6001546001600160a01b03169250610327565b34610114575f366003190112610114576001546040516001600160a01b039091168152602090f35b34610114576020366003190112610114576001600160a01b036103c06104a8565b165f525f602052602060018060a01b0360405f205416604051908152f35b346101145761019e60206103f1366104be565b6001600160a01b038084165f90815280865260409020549193911691908215610452575b6040516301c856ab60e21b81526001600160a01b039091166004820152602481019190915291151560448301529092839190829081906064820190565b6001546001600160a01b03169250610415565b346101145760203660031901126101145761047e6104a8565b610486610527565b600180546001600160a01b0319166001600160a01b0392909216919091179055005b600435906001600160a01b038216820361011457565b6060906003190112610114576004356001600160a01b038116810361011457906024359060443580151581036101145790565b90601f8019910116810190811067ffffffffffffffff82111761051357604052565b634e487b7160e01b5f52604160045260245ffd5b7ffe60050de8c303e9e73c33538bcf1b0b6509d1437c01221e10b4d2281a279267546001600160a01b0316330361055a57565b6330cd747160e01b5f5260045ffdfea2646970667358221220f820e1dae96f964c9762e9ab6be65dd64bf72f5d029a4ef8a9cfff54669ec58964736f6c634300081c00336080806040523460145760fc90816100198239f35b5f80fdfe608060405260043610156010575f80fd5b5f3560e01c806307215aac1460655780636216c039146065578063814eaa8c146065578063e85179cc1460655763ecac2c9c14604a575f80fd5b346061576020366003190112606157605f6069565b005b5f80fd5b60ae565b600435906001600160a01b0382168203606157565b60609060031901126061576004356001600160a01b03811681036061579060243590604435801515810360615790565b34606157602060bb36607e565b509050604051908152f3fea2646970667358221220ec6664462ff30c0c16e7d5729e49eb16bf03f9a218437fa2400b0611a28f938964736f6c634300081c0033fe60050de8c303e9e73c33538bcf1b0b6509d1437c01221e10b4d2281a279267","linkReferences":{}},"methodIdentifiers":{"adjAddr(address)":"0866c15a","cacheAdjustment(address)":"ecac2c9c","defAdj()":"2b13b444","setAdjustor(address,address)":"a43f0b6f","setDefaultAdjustor(address)":"04f5e16b","toNominal(address,int256,bool)":"814eaa8c","toNominal(address,uint256,bool)":"e85179cc","toReal(address,int256,bool)":"6216c039","toReal(address,uint256,bool)":"07215aac"},"id":68}