{"abi":[{"type":"function","name":"getCreate2Address","inputs":[{"name":"deployer","type":"address","internalType":"address"},{"name":"salt","type":"bytes32","internalType":"bytes32"},{"name":"initCodeHash","type":"bytes32","internalType":"bytes32"}],"outputs":[{"name":"deployedAddr","type":"address","internalType":"address"}],"stateMutability":"pure"},{"type":"error","name":"NotAContract","inputs":[]}],"bytecode":{"object":"0x6080806040523460185760f3908161001d823930815050f35b5f80fdfe60806004361015600d575f80fd5b5f3560e01c63eff95b3e14601f575f80fd5b606036600319011260b957600435906001600160a01b038216820360b957602081019160ff60f81b83526bffffffffffffffffffffffff199060601b1660218201526024356035820152604435605582015260558152608081019080821067ffffffffffffffff83111760a5576040829052519091206001600160a01b03168152602090f35b634e487b7160e01b5f52604160045260245ffd5b5f80fdfea264697066735822122064465aec02a1a0b6fc3da899d127580f6506fd77e8548002d3f8c2873a694eb364736f6c634300081c0033","linkReferences":{}},"methodIdentifiers":{"getCreate2Address(address,bytes32,bytes32)":"eff95b3e"},"id":16}